:020000040800F2
:10000000F0780020CD0100084F90000895410008CD
:100010004D9000085F1700080DA3000800000000C5
:100020000000000000000000000000001B9300081A
:10003000731A000800000000199300081D930008BF
:10004000E7010008E7010008E7010008E7010008F0
:10005000E7010008E7010008E7010008E7010008E0
:10006000E7010008E7010008E7010008E7010008D0
:10007000E7010008E7010008E7010008E7010008C0
:10008000E7010008E7010008E7010008E7010008B0
:10009000E7010008E7010008E7010008E7010008A0
:1000A000E7010008E7010008E7010008E701000890
:1000B000E7010008E7010008E7010008E701000880
:1000C000E7010008E7010008E7010008E701000870
:1000D000E7010008E7010008E7010008E701000860
:1000E000E7010008E7010008E7010008E701000850
:1000F000E7010008E7010008E7010008E701000840
:10010000E7010008E7010008E7010008E70100082F
:10011000E7010008E7010008E7010008E70100081F
:10012000E7010008E7010008311A00083D1A00083D
:1001300000F002F800F03AF80AA090E8000C8244BF
:100140008344AAF10107DA4501D100F02FF8AFF29C
:10015000090EBAE80F0013F0010F18BFFB1A43F0A5
:10016000010318477CD100009CD10000103A24BF45
:1001700078C878C1FAD8520724BF30C830C144BF0C
:1001800004680C607047000000230024002500264E
:10019000103A28BF78C1FBD8520728BF30C148BFEA
:1001A0000B6070471FB51FBD10B510BD01F09CF965
:1001B0001146FFF7F7FF0AF039F901F0BAF903B475
:1001C000FFF7F2FF03BC01F0BDF9000009488047CA
:1001D00009480047FEE7FEE7FEE7FEE7FEE7FEE729
:1001E000FEE7FEE7FEE7FEE704480549054A064B41
:1001F000704700009B93000831010008F072002056
:10020000F0780020F0740020F07400202DE9F04F09
:100210004FF0000C4FF0000301EB9C5EBEF9025062
:10022000BEF900400EF5806EBEF90290BEF9008066
:100230000EF5806EBEF90270BEF900600EF5806E9C
:10024000BEF902B0BEF900A00EF5806ED044D944CC
:10025000A8EB4A0AA9EB4B0B4FEAA4044FEAA50509
:1002600004EBA60405EBA705A4EB6606A5EB670760
:1002700004EBA80405EBA905A4EB6808A5EB690944
:1002800006EBAB06A7EBAA07A6EB6B0B07EB6A0A1C
:10029000458020F8044B478020F8046BA0F80290BA
:1002A00020F8048BA0F802A020F804BB03F101039E
:1002B00093FAA3FCB3F5807FAED1A0EB82014FF09F
:1002C000100312090FF2341000F1000006B403EB22
:1002D000430C6144A2F5803202EB8332B1F9025043
:1002E000B1F90040A1EB0301B0F902B0B0F900A0F0
:1002F00000F10400A5EB040E0EFB0BFC0AEB4B0E09
:1003000005FB0ACB04FB0ECAB1F90250B1F900405B
:10031000A1EB0301B0F90290B0F9008000F10400F4
:10032000A5EB040E0EFB09FC08EB490E05FB08C902
:1003300004FB0EC8B1F90250B1F90040A1EB030172
:10034000B0F90270B0F9006000F10400A5EB040EF2
:100350000EFB07FC06EB470E05FB06C704FB0EC6AB
:10036000B1F90250B1F9004001F10001D044D94483
:10037000A8EB4A0AA9EB4B0B4FEAA4044FEAA505E8
:1003800004EB264405EB2745A4EBE636A5EBE7375F
:1003900004EB284405EB2945A4EBE838A5EBE93943
:1003A00006EB2B46A7EB2A47A6EBEB3B07EBEA3A1B
:1003B0004D800C8019444F800E801944A1F80290A2
:1003C000A1F800801944A1F802A021F804BBB2F5FD
:1003D000803283DA03EB430C6144A2F101025FEA4D
:1003E000024E18BFA0EB0C007FF476AF06BC4FEABC
:1003F000830392087FF46AAFBDE8F08F00400000ED
:1004000000400000004000005DDD213BA3227E187B
:100410000000412D7EA5412D0000412D00C000406F
:100420005DDD82E75DDD213B7EA5412D00400000C2
:100430000040000000400000AA2A94126B394606D2
:1004400049327C0CA8118E2349327C0CA3227E18E1
:1004500021F77931AA2A9412A8118E235DDD213B60
:10046000A3227E180000412D95C6B13F461A2B1ECF
:1004700058EE3735BEB4C53EA8118E235DDD213B55
:1004800063A97138DF089A28B7CDC53E7EA5412DF6
:100490000000412D00C0004063A92B1E21F77931D7
:1004A000BEB4C53EBEB47C0C58EE373561AC213BC2
:1004B00095C6BAF9BAE571383BA737355DDD82E7F5
:1004C0005DDD213B7EA5412D21F766D756D53F3D09
:1004D0003BA78E23A811C9CAB7CDC53E61AC7E1813
:1004E000AA2AC1C295C6B13FBEB47C0C0040000030
:1004F00000400000004000001E3BB504693E920130
:10050000C83C2403EB356409C83C24036B39460618
:100510006C30060E1E3BB504EB356409AA2A941212
:100520006B39460649327C0CAE240917AF37D60723
:10053000882E8D0F7E1E5D1BEB356409AA2A94124E
:1005400024188C1F1E34F10AB3269015A8118E238F
:1005500049327C0CA3227E18140B60276C30060EE7
:100560007E1E5D1B7104FB2A882E8D0F461A2B1EE2
:10057000C7FD5A2E9D2C1211FE15E72021F7793167
:10058000AA2A9412A8118E2387F05334B228131488
:10059000480D202602EAE536B3269015DF089A2892
:1005A0009CE32B39AE2409177104FB2A5DDD213B46
:1005B000A3227E180000412D4ED7C53C9320EF1991
:1005C0008FFB6C2F78D1153E7E1E5D1B21F7793194
:1005D000E2CB0F3F641CC61CB8F2683395C6B13F2E
:1005E000461A2B1E58EE373597C1FB3F24188C1F37
:1005F00002EAE536F0BCEC3FFE15E720BAE57138BB
:10060000A6B8853FD5133D2282E1DB39BEB4C53E95
:10061000A8118E235DDD213B40B1AF3D790FDA2477
:100620004DD9423C2EAE423C480D202656D53F3D8A
:100630008EAB823A140B602778D1153E63A97138CE
:10064000DF089A28B7CDC53EB1A71236A906CE2934
:1006500015CA4F3F78A668337104FB2A95C6B13F8F
:10066000BCA576303902212C38C3EC3F7EA5412D44
:100670000000412D00C00040BCA5CE29C7FD5A2E68
:10068000F0BCEC3F78A620268FFB6C2F09BAB13F57
:10069000B1A73D2257F976304DB74F3F63A92B1EC6
:1006A00021F77931BEB4C53E8EABEF19ECF474324C
:1006B0005EB2153E2EAE9015B8F268332DB03F3DB8
:1006C00040B1121187F053342EAE423CBEB47C0CC4
:1006D00058EE373561AC213BA6B8D6072BEC123665
:1006E000C8AADB39F0BC240302EAE53663A97138F5
:1006F00097C16EFEDCE7B03734A8E53695C6BAF987
:10070000BAE571383BA73735E2CB0FF59CE32B39BF
:1007100078A6683378D173F082E1DB39EDA57931C1
:100720004ED7EDEB6DDF823A99A56C2F5DDD82E748
:100730005DDD213B7EA5412D9CE33AE352DBB63BD8
:1007400099A5FB2A02EA19DF4DD9423CEDA59A286A
:1007500087F026DB4ED7C53C78A6202621F766D742
:1007600056D53F3D3BA78E23C7FDDFD363D3AF3DB7
:1007700034A8E720710494D078D1153E63A92B1ECC
:10078000140B8CCD94CF723EC8AA5D1BA811C9CAA8
:10079000B7CDC53E61AC7E18241850C8E2CB0F3FE0
:1007A0002EAE90157E1E25C615CA4F3F2DB0941251
:1007B000AE244AC451C8853F5EB28D0FAA2AC1C279
:1007C00095C6B13FBEB47C0C6C308EC1E2C4D43F40
:1007D0004DB76409EB35B1C038C3EC3F09BA4606E2
:1007E0001E3B2CC097C1FB3FF0BC2403004000001F
:1007F0000040000000400000D03E2E019B3F6500FD
:10080000363FC9009A3D5B02363FC900693E9201FE
:100810005F3C8803D03E2E019A3D5B021E3BB5042F
:10082000693E9201C83C2403D939E205023EF70132
:10083000F43BED038E380E079A3D5B021E3BB50478
:100840003F373908313DC002463A7E05EB35640931
:10085000C83C24036B39460692348E0A5F3C8803F9
:100860008E380E073433B70BF43BED03AF37D607A2
:10087000D231DF0C8A3B5104CE369D086C30060E17
:100880001E3BB504EB356409022F2B0FB23A1A0553
:1008900005352B0A932D5010463A7E051E34F10A79
:1008A000212C7311D939E2053433B70BAA2A9412DB
:1008B0006B39460649327C0C3129B413FD38AA063F
:1008C0005B31410DB327D2148E380E076C30060E03
:1008D0003226EE151F3872077B2FCA0EAE24091779
:1008E000AF37D607882E8D0F262321183F373908BA
:1008F000932D50109C213719CE369D089D2C121136
:100900000E204B1A5D360109A42BD3117E1E5D1BF0
:10091000EB356409AA2A9412EB1C6C1C7835C709C4
:10092000AF295413561B791D05352B0AB228131411
:10093000BE19841E92348E0AB327D21424188C1F39
:100940001E34F10AB326901588169120A933540B52
:10095000B1254C16EA1493213433B70BAE24091792
:100960004A139222BF321A0CA923C417A8118E234E
:1009700049327C0CA3227E1805108824D231DF0C6A
:100980009C213719610E7E255B31410D9320EF19B3
:10099000BB0C7126E430A40D891FA71A140B602725
:1009A0006C30060E7E1E5D1B6D094C28F42F680E00
:1009B000721D121CC40735297B2FCA0E641CC61C6D
:1009C0001B061A2A022F2B0F561B791D7104FB2AB6
:1009D000882E8D0F461A2B1EC702D82B0E2EEE0F17
:1009E0003519DC1E1C01B22C932D501024188C1FBD
:1009F00072FF882D182DB11011173A20C7FD5A2EFD
:100A00009D2C1211FE15E7201DFC282F212C73119F
:100A1000EA14932173FAF22FA42BD311D5133D229C
:100A2000CAF8B830282B3412BF12E72221F77931E7
:100A3000AA2A9412A8118E2379F536322D2AF4129F
:100A400091103524D2F3EF32AF295413790FDA2401
:100A50002CF2A3333129B413610E7E2587F0533471
:100A6000B2281314480D2026E3EEFF343328731404
:100A70002E0CC12641EDA535B327D214140B6027E7
:100A8000A1EB483633273115FA09FE2702EAE5368D
:100A9000B3269015DF089A2865E87E373226EE15D2
:100AA000C4073529CBE61238B1254C16A906CE2944
:100AB00032E5A1382F25AB168D05652A9CE32B392D
:100AC000AE2409177104FB2A08E2B0392B246617FB
:100AD00055038F2B77E0303AA923C4173902212C14
:100AE000E9DEAB3A262321181C01B22C5DDD213B47
:100AF000A3227E180000412DD5DB923B1F22DB187C
:100B0000E4FECF2D4FDAFD3B9C213719C7FD5A2E4D
:100B1000CDD8643C17219319ABFCE42E4ED7C53CCD
:100B20009320EF198FFB6C2FD3D5213D0E204B1A4C
:100B300073FAF22F5CD4783D891FA71A57F97630E3
:100B4000E8D2C93D041F021B3CF8F93078D1153EAC
:100B50007E1E5D1B21F779310CD05C3EF81DB81B61
:100B600006F6F831A5CE9D3E721D121CECF47432CF
:100B700041CDD83EEB1C6C1CD2F3EF32E2CB0F3FE1
:100B8000641CC61CB8F2683388CA403FDD1B201DB8
:100B90009FF1DF3332C96B3F561B791D87F0533409
:100BA000E1C7913FCE1AD31D6FEFC63495C6B13F52
:100BB000461A2B1E58EE37354EC5CC3FBE19841E43
:100BC00041EDA5350CC4E13F3519DC1E2BEC123686
:100BD000CFC2F13FAD18341F16EB7D3697C1FB3FF6
:100BE00024188C1F02EAE53665C000409B17E31FFE
:100BF000EFE84B3738BFFF3F11173A20DCE7B0373B
:100C000011BEF83F88169120CBE61238F0BCEC3FBD
:100C1000FE15E720BAE57138D4BBDB3F74153D21E2
:100C2000AAE4CF38BFBAC43FEA1493219CE32B391E
:100C3000AFB9A73F5F14E8218EE28439A6B8853F9B
:100C4000D5133D2282E1DB39A2B75D3F4A139222E0
:100C500077E0303AA5B6303FBF12E7226DDF823A27
:100C6000AFB5FD3E34123B2364DED33ABEB4C53E7D
:100C7000A8118E235DDD213BD5B3883E1D11E223F3
:100C800057DC6D3BF2B2453E9110352452DBB63B4A
:100C900015B2FC3D051088244FDAFD3B40B1AF3D55
:100CA000790FDA244DD9423C71B05B3DED0E2C2515
:100CB0004DD8853CA9AF033D610E7E254ED7C53C7E
:100CC000E8AEA53CD40DCF2551D6033D2EAE423C17
:100CD000480D202656D53F3D7BADDA3BBB0C712637
:100CE0005CD4783DD0AC6D3B2E0CC12663D3AF3DB8
:100CF0002BACFA3AA10B11276DD2E33D8EAB823AB1
:100D0000140B602778D1153EF8AA063A870AAF2758
:100D100085D0453E6AAA8439FA09FE2794CF723EEF
:100D2000E3A9FD386D094C28A5CE9D3E63A9713815
:100D3000DF089A28B7CDC53EEBA8E1375208E7286F
:100D4000CCCCEB3E7BA84B37C4073529E2CB0F3F19
:100D500012A8B13636078129FBCA303FB1A7123637
:100D6000A906CE2915CA4F3F57A76E351B061A2A6A
:100D700032C96B3F05A7C6348D05652A51C8853F2A
:100D8000BBA61934FF04B02A72C79C3F78A668330B
:100D90007104FB2A95C6B13F3EA6B232E303452B50
:100DA000BAC5C43F0BA6F83155038F2BE2C4D43F1C
:100DB000E0A53931C702D82B0CC4E13FBCA5763081
:100DC0003902212C38C3EC3FA1A5AF2FAA016A2C10
:100DD00066C2F53F8DA5E42E1C01B22C97C1FB3FE6
:100DE00081A5152E8E00FA2CCAC0FF3F7EA5412D8D
:100DF0000000412D00C0004081A56A2C72FF882DA3
:100E000038BFFF3F8DA58F2BE4FECF2D73BEFB3F78
:100E1000A1A5B02A56FE152EB0BDF53FBCA5CE2922
:100E2000C7FD5A2EF0BCEC3FE0A5E72839FD9F2E08
:100E300032BCE13F0BA6FE27ABFCE42E77BBD43FD0
:100E40003EA611271DFC282FBFBAC43F78A6202636
:100E50008FFB6C2F09BAB13FBBA62C2501FBAF2F2E
:100E600056B99C3F05A7352473FAF22FA6B8853FE3
:100E700057A73B23E5F93430F8B76B3FB1A73D22C4
:100E800057F976304DB74F3F12A83D21CAF8B83018
:100E9000A5B6303F7BA83A203CF8F93000B60F3FAA
:100EA000EBA8341FAEF739315EB5EB3E63A92B1EBC
:100EB00021F77931BEB4C53EE3A9201D93F6B931BF
:100EC00022B49D3E6AAA121C06F6F83188B3723E1F
:100ED000F8AA021B79F53632F2B2453E8EABEF1915
:100EE000ECF474325EB2153E2BACDB185FF4B23218
:100EF000CDB1E33DD0ACC417D2F3EF3240B1AF3D3A
:100F00007BADAB1645F32C33B5B0783D2EAE9015C6
:100F1000B8F268332DB03F3DE8AE73142CF2A33322
:100F2000A9AF033DA9AF54139FF1DF3328AFC53CF0
:100F300071B0341213F11934A9AE853C40B11211CD
:100F400087F053342EAE423C15B2EE0FFBEF8D34DA
:100F5000B6ADFD3BF2B2CA0E6FEFC63441ADB63B43
:100F6000D5B3A40DE3EEFF34D0AC6D3BBEB47C0C26
:100F700058EE373561AC213BAFB5540BCCED6E3537
:100F8000F6ABD33AA5B62B0A41EDA5358EAB823A26
:100F9000A2B70109B6ECDC3529AB303AA6B8D607C2
:100FA0002BEC1236C8AADB39AFB9AA06A1EB48363A
:100FB0006AAA8439BFBA7E0516EB7D360FAA2B3993
:100FC000D4BB51048CEAB136B7A9CF38F0BC2403A6
:100FD00002EAE53663A9713811BEF70178E91837DE
:100FE00012A9123838BFC900EFE84B37C5A8B0378F
:100FF00065C09BFF65E87E377BA84B3797C16EFEC7
:10100000DCE7B03734A8E536CFC240FD53E7E1371F
:10101000F1A77D360CC413FCCBE61238B1A712360B
:101020004EC5E6FA42E6423874A7A53595C6BAF928
:10103000BAE571383BA73735E1C78EF832E5A138FC
:1010400005A7C63432C963F7AAE4CF38D3A6533410
:1010500088CA39F623E4FD38A4A6DF33E2CB0FF5C6
:101060009CE32B3978A6683341CDE6F315E3583974
:1010700050A6EF32A5CEBFF28EE284392CA6743290
:101080000CD098F108E2B0390BA6F83178D173F0A2
:1010900082E1DB39EDA57931E8D24FEFFCE0063A89
:1010A000D3A5F9305CD42DEE77E0303ABCA576308C
:1010B000D3D50CEDF2DF593AA9A5F22F4ED7EDEBBF
:1010C0006DDF823A99A56C2FCDD8CFEAE9DEAB3A35
:1010D0008DA5E42E4FDAB4E964DED33A85A55A2E05
:1010E000D5DB9AE8E1DDFA3A7FA5CF2D5DDD82E719
:1010F0005DDD213B7EA5412DE9DE6DE6DADC473B77
:101100007FA5B22C77E059E557DC6D3B85A5212CF6
:1011100008E248E4D5DB923B8DA58F2B9CE33AE3B4
:1011200052DBB63B99A5FB2A32E52DE2D1DADA3B58
:10113000A9A5652ACBE624E14FDAFD3BBCA5CE2963
:1011400065E81DE0CED9203CD3A5352902EA19DF98
:101150004DD9423CEDA59A28A1EB18DECDD8643CD0
:101160000BA6FE2741ED19DD4DD8853C2CA6602746
:10117000E3EE1EDCCDD7A53C50A6C12687F026DBCA
:101180004ED7C53C78A620262CF231DACFD6E43CE7
:10119000A4A67E25D2F33FD951D6033DD3A6DA24A7
:1011A00079F551D8D3D5213D05A7352421F766D748
:1011B00056D53F3D3BA78E23CAF87FD6D8D45B3D9A
:1011C00074A7E72273FA9BD55CD4783DB1A73D2282
:1011D0001DFCBBD4DFD3933DF1A79321C7FDDFD323
:1011E00063D3AF3D34A8E72072FF06D3E8D2C93DF0
:1011F0007BA83A201C0131D26DD2E33DC5A88C1FDB
:10120000C70261D1F2D1FC3D12A9DC1E710494D059
:1012100078D1153E63A92B1E1B06CCCFFED02D3EE8
:10122000B7A9791DC40707CF85D0453E0FAAC61CB4
:101230006D0947CE0CD05C3E6AAA121C140B8CCDF3
:1012400094CF723EC8AA5D1BBB0CD4CC1CCF883E89
:1012500029ABA71A610E21CCA5CE9D3E8EABEF190E
:10126000051073CB2ECEB13EF6AB3719A811C9CA03
:10127000B7CDC53E61AC7E184A1324CA41CDD83ED5
:10128000D0ACC417EA1483C9CCCCEB3E41AD0917EE
:101290008816E8C857CCFD3EB6AD4C16241850C889
:1012A000E2CB0F3F2EAE9015BE19BEC76ECB203FCE
:1012B000A9AED214561B31C7FBCA303F28AF131456
:1012C000EB1CA8C688CA403FA9AF54137E1E25C692
:1012D00015CA4F3F2DB094120E20A7C5A3C95D3F7C
:1012E000B5B0D3119C212DC532C96B3F40B112114D
:1012F0002623B9C4C1C8783FCDB15010AE244AC42A
:1013000051C8853F5EB28D0F3226E0C3E1C7913FE1
:10131000F2B2CA0EB3277BC372C79C3F88B3060ED6
:1013200031291CC303C7A73F22B4410DAA2AC1C259
:1013300095C6B13FBEB47C0C212C6DC227C6BB3F05
:101340005EB5B70B932D1DC2BAC5C43F00B6F10AF6
:10135000022FD3C14EC5CC3FA5B62B0A6C308EC12F
:10136000E2C4D43F4DB76409D2314FC176C4DB3FEC
:10137000F8B79D08343315C10CC4E13FA6B8D607B1
:101380009234E0C0A1C3E73F56B90E07EB35B1C0B8
:1013900038C3EC3F09BA46063F3788C0CFC2F13F99
:1013A000BFBA7E058E3864C066C2F53F77BBB50410
:1013B000D93945C0FEC1F83F32BCED031E3B2CC0FD
:1013C00097C1FB3FF0BC24035F3C19C030C1FD3F17
:1013D000B0BD5B029A3D0BC0CAC0FF3F73BE920115
:1013E000D03E03C065C0004038BFC9004FF00002C6
:1013F00000B5134694469646203922BFA0E80C500B
:10140000A0E80C50B1F12001BFF4F7AF090728BFE5
:10141000A0E80C5048BF0CC05DF804EB890028BF61
:1014200040F8042B08BF704748BF20F8022B11F08A
:10143000804F18BF00F8012B704700004FF0013CAF
:1014400050F8042B51F8043B9A4221D1A2EB0C0333
:10145000934313EACC1317D150F8042B51F8043BF3
:101460009A4215D1A2EB0C03934313EACC130BD190
:1014700050F8042B51F8043B9A4209D1A2EB0C031B
:10148000934313EACC13DBD04FF00000704700BF4A
:10149000D01A01BAB1FA81F101F0180122FA01F073
:1014A000CB40C1F12001DBB2C0B2C01A2CFA01F36B
:1014B000D11A914311EAC311E6D1704770477047C2
:1014C000704710B500F008F8006810BD10B504466C
:1014D00000F002F8046010BD0048704790720020D0
:1014E00000487047907200207546FFF7F9FFAE463E
:1014F00005006946534620F00700854618B020B520
:10150000FEF772FEBDE820404FF000064FF00007E6
:101510004FF000084FF0000B21F00701AC46ACE89B
:10152000C009ACE8C009ACE8C009ACE8C0098D4608
:10153000704710B50446AFF300802046BDE8104068
:10154000FEF73DBE01491820ABBEFEE726000200B3
:101550007047000070B5044600688168C943C90738
:1015600017D1816821F00101816002F059F8054628
:101570000AE000BF02F054F8401B022804D920689A
:101580008068C043C00706D020688068C043C00799
:10159000F0D0002070BDA06A40F01000A062E06AA8
:1015A00040F00100E062012070BD10B50146406AC4
:1015B000826A12F0500F05D0006A026BBDE810403D
:1015C00008461047816A41F40071816201688968A8
:1015D000C1F3424107290CD1017B51B9816A21F441
:1015E00080718162816AC90403D4816A41F001017A
:1015F000816201F0A3FA10BD10B5406A816A41F022
:1016000040018162C16A41F00401C16201F0B5FA92
:1016100010BD10B5406A01F0AFFA10BDF8B5002654
:101620000446009600688168C943C9072DD08168C7
:1016300041F001018160164816490068B0FBF1F0E5
:1016400000E0401E00900028FBD101F0E9FF0546B4
:1016500016E000BF01F0E4FF401B022810D920680B
:101660008068C043C0070BD0A06A40F01000A062A1
:10167000E06A40F00100E06284F824600120F8BDD7
:1016800020688068C043C007E4D10020F8BD000096
:10169000C400002040420F0002F09EBD70B5144609
:1016A0000D46064608E03046711C8EB200F007F881
:1016B000641E05F8010BA4B2002CF4D170BD10B566
:1016C000044602F019FE200AA02101EB4000C0B23E
:1016D00002F0E2FD02F052FEE0B202F0DDFD02F0A7
:1016E0004DFE02F009FEA12002F0D6FD02F046FEFA
:1016F000002002F09BFD044602F01EFE204610BDB5
:1017000070B516460C46054606E02178284600F0DE
:1017100007F86D1CADB2641C761EB6B2F5D270BD72
:1017200070B50D46044602F0E7FD200AA02101EB4A
:101730004000C0B202F0B0FD02F020FEE0B202F0C4
:10174000ABFD02F01BFE284602F0A6FD02F016FEDD
:1017500002F0F2FDBDE870400A2008F0F3BDFEE79C
:1017600070B50E4C0025C4F880510D48016821F475
:1017700070410160016841F440510160052004F5A9
:10178000C07408F0EDFDE560052008F0E9FD0120DA
:101790002060052008F0E4FD256070BD00002242B5
:1017A000001001400E4810B5816986B041F010016B
:1017B00081618069012400F0100004900920CDE9C6
:1017C00000040320CDE902406946064801F022FEEC
:1017D0000548C0F88041C0F88C4106B010BD00003B
:1017E00000100240001001400000224270B50E4C73
:1017F0000025C4F880510D48016821F47041016052
:10180000016841F440510160052004F5C07408F0FE
:10181000A7FD0126E660052008F0A2FD2660052050
:1018200008F09EFD256070BD0000224200100140BE
:101830002DE9F047814618480024016821F47041E1
:101840000160016841F4004101601E2008F088FD3C
:101850000025124E2F464FF0010800BFC6F88071D8
:10186000052008F07DFDC6F880816006040ED6F8DC
:101870000C0108B1641CE4B26D1CEDB2082DEDD36F
:10188000B9F1000F04D0FFF76BFF2046BDE8F087E9
:10189000FFF7ACFFF9E70000001001400000224212
:1018A0002DE9F04106461448016821F470410160B9
:1018B000016841F440510160104C0027C4F8807168
:1018C000052008F04DFD00254FF00108F009C4F88F
:1018D0008C017006060EC4F88081052008F040FDDA
:1018E000C4F88071052008F03BFD6D1CEDB2082D99
:1018F000ECD3BDE8F081000000100140000022425E
:1019000070B50D48016821F470410160016841F42F
:1019100040510160094C0120C4F88C01C4F88001D9
:101920001E2004F5C07408F01BFD0025E5600520AD
:1019300008F016FD256070BD001001400000224235
:1019400070B50C48016821F470410160016841F4F0
:1019500040510160084C0125C4F880511E2004F557
:10196000C07408F0FDFC0020E060052008F0F8FCE1
:10197000E56070BD001001400000224270B51148C2
:101980000025016821F470410160016841F40041C3
:1019900001600D4C0120C4F88C01C4F8800107E0FF
:1019A0006D1CEDB2FA2D03D9FFF7CAFF012070BDFF
:1019B000052008F0D5FCD4F80C010028F0D1C4F8BB
:1019C000800170BD001001400000224210B5446A41
:1019D000204601F057FA0120207110BD10B5446A6D
:1019E000204601F029FA0120207110BD10B5446A8B
:1019F000206940F004002061204601F045FA0120F2
:101A0000207110BD10B5446A206940F004002061C7
:101A1000204601F013FA0120207110BD10B5406A74
:101A200001F031FA10BD10B5406A01F006FA10BDA0
:101A3000014801F055BB0000AC310020014801F025
:101A40004FBB00005431002030B590F840500124C5
:101A5000AC40C56B6C60046863604368102B03681E
:101A600003D099600068C26030BD9A600068C160B0
:101A700030BD704772B6FEE770B52D4886B08169FB
:101A800041F0100181618069012400F0100005908F
:101A90004FF40050CDE901040320CDE90340254E69
:101AA00001A9304601F0B6FC02200025CDE9010570
:101AB00001A9304601F0AEFCFFF774FE1E4EC6F8D9
:101AC000B451142006F5DA7608F03CFC346032207C
:101AD00008F038FC8DF8005001226946002000F023
:101AE000F9F801226946A42000F0F4F816208DF8D8
:101AF000000001226946802000F0ECF80C208DF8EF
:101B0000000001226946882000F0E4F802226946BC
:101B1000A12000F013F89DF80000302803D19DF8B3
:101B20000100032802D0012006B070BD0020FBE7B1
:101B30000010024000100140000022422DE9F04157
:101B400015460E460446FFF7DBFE7020FFF7A8FEA1
:101B5000FFF714FFE0B2FFF7A3FEFFF70FFFFFF759
:101B6000CFFE7120FFF79CFEFFF708FF00246F1ED9
:101B700009E0BC4201D0012000E00020FFF758FE40
:101B80003055641CE4B2AC42F3D3BDE8F041FFF73A
:101B9000D7BE00002DE9F1474B4E00244FF00A0A52
:101BA000307881B0401CC0B2B0FBFAF20AFB1201DF
:101BB000DFF818812746307009B10A2867D2012260
:101BC00001A90220FFF7BAFF9DF8040001075ED0CB
:101BD00000F00F0106295AD2FF208840C04340F090
:101BE000C000454688F8200001274FF0000900BFDB
:101BF00095F8200007FA04F108423BD0344804224B
:101C0000694630F81400FFF799FF95F830009DF809
:101C10000010C0079DF8010001F00F010ED000EB8D
:101C2000012105EB4400C1829DF802209DF80310BC
:101C300002F00F0201EB022181810FE000EB012095
:101C4000C0F5F07105EB440081819DF802209DF8FC
:101C5000031002F00F0201EB0221C1829DF8000087
:101C60000821B1EB101F05D005EB4400A0F8169039
:101C7000A0F80C90641CE4B2052CB9D3A889012704
:101C800018B9E88A08B98DF8049086F800909DF894
:101C90000400C00610D198F82000010602D520F0FB
:101CA000800007E04FF6FF71A8F80C10A8F8161096
:101CB00000F0E00088F820003078F02801D986F89C
:101CC00000A03846BDE8FC87E8000020F0000020B6
:101CD0007ED100082DE9F04116460F460446002546
:101CE000FFF70EFE7020FFF7DBFDFFF747FEE0B2C7
:101CF000FFF7D6FDFFF742FE002408E0385DFFF74E
:101D0000CFFDFFF73BFE050003D1641CE4B2B442F3
:101D1000F4D3FFF715FE2846BDE8F0812DE9FC5FFE
:101D2000002002F057FBFE4DA0212870002000F09B
:101D3000B7FD68702978DFF8EC830024012901D011
:101D400007282ED1F848D0F8A01139B35FF0000170
:101D5000C0F8A0110021F54801F084F9F04A3223BF
:101D60003C320021F148009401F000F9EC49686927
:101D7000A031D8F8003051F820209A6201F1100209
:101D8000D8F8006052F82030F36252F82020401C4E
:101D9000C8F80C206861042802D002E00121D7E7CE
:101DA0006C61AC61EC602046DFF884A32A6A0746C8
:101DB0004FF480663AF81010914200D90A46401C50
:101DC0000F44B042F6DBEF60AC612A62D5F82430F4
:101DD000104621463AF811C0944500D26346491C8A
:101DE000B142F7DB6B62A961C11AA962B90AA0F519
:101DF0000060E961E8620220CE4AE880030280B216
:101E0000AF8852F82010B94201D9A9802881401C1E
:101E100080B2E8809842F2D3288908F0B0FD002211
:101E2000C54B08F0FBFD6FF0090209F0B4FC08F0A7
:101E300079FD6881B1463246C049C148FEF7E6F9EE
:101E400000F0DEFC2878032802D06878062815D137
:101E50000021B64801F006F9D8F800201721916258
:101E6000D8F8002040F22B11D162C8F80C104B4674
:101E7000AF4A0021AD48009401F078F86878DFF8A7
:101E8000C4B21027012809D0A84602284AD0032846
:101E90007ED004287DD005287CD011E2E86A4FF47A
:101EA0007A714843C00A09F07FFAA749686309F0CC
:101EB00065F9A649884233DA00219C4801F0D2F83E
:101EC0002E4620464B465946C5F818403AF8102091
:101ED00041F82020401C9842F8DB2046C6F8184004
:101EE00051F8202002EB8202A2F5F852FC3A41F8A8
:101EF0002020401C9842F3DB954A2046C6F8184043
:101F000031F820C022F810C0401C9842F8DBA861CC
:101F10008F4A00218548009401F028F88DA0C6E181
:101F200092A0C4E1D8F82C004FF47A714843C00A5B
:101F300009F03AFA8449C8F8340009F01FF99149C8
:101F4000884239DA0021794801F08CF820464B4666
:101F50005946C8F8184000BF3AF8102041F8202030
:101F6000401C9842F8DB884A2046C8F8184000BF59
:101F700051F8206006EB860602EB460641F8206029
:101F8000401C9842F4DB2046714AC8F8184002E031
:101F900014E05EE0A7E031F8206022F81060401CF9
:101FA0009842F4DBC8F81800694A00215F480094A1
:101FB00000F0DCFF75A07AE17AA078E1D8F82C0077
:101FC0004FF47A714843C00A09F0EEF95E49C8F847
:101FD000340009F0D3F87949884238DD00215348AC
:101FE00001F040F820464B465E46C8F8184000BF56
:101FF0003AF8101046F82010401C9842F8DB2046B2
:102000000522C8F8184000BF56F82010A1F2FF7151
:1020100091FBF2F101F2FF7146F82010401C98424A
:10202000F2DB4B492046C8F8184000BF36F82020A4
:1020300021F81020401C9842F8DBC8F81800444AE8
:1020400000213A48009400F091FF5DA02FE162A0CA
:102050002DE1D8F82C004FF47A714843C00A09F0FA
:10206000A3F93949C8F8340009F088F86049884272
:1020700037DD00212D4800F0F5FF20464B4659463C
:10208000C8F818403AF8102041F82020401C984227
:10209000F8DB20460A26C8F8184000BF51F8202077
:1020A000A2F2FF7292FBF6F202F2FF7241F82020D8
:1020B000401C9842F2DB264A2046C8F8184000BF70
:1020C00031F8206022F81060401C9842F8DBC8F814
:1020D00018001F4A00211548009400F047FF45A052
:1020E000E5E04AA0E3E0D8F82C004FF47A714843C9
:1020F000C00A08F044FC4B4A4B4B08F08FFC08F038
:1021000023FBC8F834000021084800F0ABFF474823
:102110002146C8F8184000BF3AF8113088E00000A6
:1021200004000020383200200000214298310020B5
:1021300024010020905200200088C34090320020EB
:10214000904200202411002000007A44CDCC4C3E67
:10215000240900205670705F616D706C6966696358
:1021600061746520352020200000000043616E2747
:102170007420616D706C69666963617465203520D7
:1021800020200000CDCCCC3D09B8FFFF5670705F19
:10219000616D706C696669636174652031302020FF
:1021A0002000000043616E277420616D706C6966C9
:1021B000696361746520313000000000E7FBA93DD0
:1021C0005670705F6E6172726F772035202020200C
:1021D000202020202000000043616E2774205670CC
:1021E000705F6E6172726F772035202020000000D2
:1021F0000C022B3E5670705F6E6172726F772031E9
:1022000030202020202020200000000043616E2785
:1022100074205670705F6E6172726F77203130205B
:1022200020000000FCA9F1D24D62503F2421002083
:1022300040F82130491CB1F5806FFFF66DAFA14623
:10224000C8F818404E464FF07E50D8F8341008F0C9
:1022500095FF8246814850F82600A0F2FF7009F0F1
:102260008BF8514609F0E8F87D4908F013FF09F0B2
:1022700047F84BF826004FF48063761C59469E427F
:10228000E8DB784A4846C8F8189000BF31F820606B
:1022900022F81060401C9842F8DBC8F81800714A18
:1022A00000217148CDF8009000F060FE6FA0CDE9EC
:1022B000007010234FF496725021142006F0C7FCD2
:1022C000704801684FF40060012905D0022903D04D
:1022D000032901D0042900D12863CDE90074042327
:1022E0006A891421322006F0DCFC286A4000A0F53F
:1022F000805008F044FBDFF890914FF0663842467A
:102300004B4608F08BFB6FF00B0A524609F043FA7C
:1023100008F008FBCDE900740246012328213C2087
:1023200006F0BFFC286A41F6C811A0F500604843DA
:10233000000B4FF47A76B0FBF6F106FB1102CDE903
:102340000074032328215020643A06F0AAFC286B6D
:1023500008F015FB42464B4608F060FB524609F078
:102360001AFA08F0DFFACDE90074024601233C2195
:10237000502006F096FC286B40F6E4414843000BE1
:10238000B0FBF6F106FB1102CDE9007403233C21FA
:10239000642006F086FC0021334800F076FD2861B9
:1023A000CDE90074024604236421322006F079FC52
:1023B000286908F0F9FF08F041FE4246334B08F067
:1023C0002DFB08F0C1F9A86308F0B6FF2861CDE93C
:1023D00000740246012378213C2006F062FC286943
:1023E00008F0E2FFA96B09F024F9294909F024F863
:1023F000A86308F0A1FF8021CDE900710246032304
:102400007821502006F04DFCE86908F0B8FA424601
:102410004B4608F003FB524609F0BDF908F082FA7A
:10242000CDE90074024601238C213C2006F039FCE2
:10243000E86940F6E4414843000BB0FBF6F106FBC7
:102440001102CDE9007403238C21502006F029FCF1
:10245000BDE8FC5F0F4807F09DBF0000242100206D
:1024600000E0FF44240900209831002053656C6689
:102470002D41646170746174696F6E20202020208A
:1024800020202000E400002066660A4066664A3F7D
:1024900000007A44905200202DE9F041334888B082
:1024A000816941F0100181618069012600F010000E
:1024B00006904FF40050CDE900060320CDE90260FC
:1024C000DFF8AC806946404600F0A4FF02250024F6
:1024D000CDE900546946404600F09CFFFFF762F9E1
:1024E000244FC7F8B4410A2007F5DA7707F02AFF2E
:1024F0003E600A2007F026FF009569464046CDE978
:10250000014500F087FF642007F01CFF042204A9A6
:1025100048F2401000F034F88DF8144016A104A8D9
:10252000FEF78CFFF0B98DF8105048F240050122FB
:1025300004A9284600F03AF9012204A9E81D00F098
:102540001FF89DF81000602802D2012000F006F963
:102550000A2007F0F7FE8DF81040012204A9284652
:1025600000F024F908B00020BDE8F081001002401E
:1025700000100140000022423931343700000000D1
:102580002DE9F04115460E460446FFF7B9F928201B
:10259000FFF786F9FFF7F2F9200AFFF781F9FFF755
:1025A000EDF9E0B2FFF77CF9FFF7E8F9FFF7A8F9DA
:1025B0002920FFF775F9FFF7E1F900246F1E09E004
:1025C000BC4201D0012000E00020FFF731F9305576
:1025D000641CE4B2AC42F3D3BDE8F041FFF7B0B9FC
:1025E0002DE9F147594E00244FF00A0A307885B0A2
:1025F000401CC0B2B0FBFAF20AFB1201544DA046D7
:10260000307009B10A2878D248F24E19012205A982
:102610004846FFF7B5FF9DF814004FF0000701068C
:102620000AD500F00F00062806D28DF800700122AE
:102630006946484600F0BAF89DF8140001075CD0DE
:1026400000F00F01062958D2FF2088408DF80000C5
:10265000C04395F8209040F0C00085F82000A8897C
:10266000A882E88AE8834FF0010800BF95F820109F
:1026700008FA04F0014225D03648042202A930F8B5
:102680001400FFF77DFF95F830009DF80910C00792
:102690009DF8080000EB012105EB44000AD0C1823F
:1026A0009DF80A109DF80B2001EB0221C1F548713D
:1026B000818107E081819DF80A109DF80B2001EBD4
:1026C0000221C182641CE4B2052CCFD32249AA891D
:1026D0004FF001080B8828469A4203D8C28A4988DD
:1026E0008A4209D99DF8141001F00F0101290BD974
:1026F000C1898181018BE98237709DF8140000F057
:102700008F0080280AD018E0818A8181C18BC18224
:1027100080218DF8141085F82090EEE795F82000C0
:10272000010602D520F0800005E04FF6FF71A98177
:10273000E98200F0E00085F820003078F02801D927
:1027400086F800A006B04046BDE8F087E90000200A
:10275000F000002040D200088032002008B500219F
:102760008DF800108DF801000F4800BF435C9DF804
:102770000020491C1A44C9B28DF80020B829F5D3AD
:10278000D0B2C043401C8DF80000B822064948F280
:10279000470000F00BF80222694648F2FF0000F003
:1027A00005F8002008BD000088D100082DE9F0419F
:1027B00016460F4604460025FFF7A2F82820FFF72B
:1027C0006FF8FFF7DBF8200AFFF76AF8FFF7D6F893
:1027D000E0B2FFF765F8FFF7D1F8002408E0385DB4
:1027E000FFF75EF8FFF7CAF8050003D1641CE4B2F6
:1027F000B442F4D3FFF7A4F82846BDE8F081000006
:102800002DE9F05FDFF8948000246FF00E076FF081
:10281000090B08F580594FF4007A00BF58F82410CE
:1028200008B20E1408F0A8FD0A2108F0E2FF3946AC
:1028300008F0DFFF0546304608F09EFD0A2108F04B
:10284000D8FF394608F0D5FF014608F0F5FD0646E9
:102850002946084608F0F0FD314608F01BFC08F058
:10286000EDFB07F04BFF5A4608F095FF07F06CFFB1
:1028700064B1102108F0BDFF08F05EFD49F82400A6
:10288000641CA4B25445C9D3BDE8F09F0F2108F0E1
:10289000B0FF08F051FDC9F80000F1E790420020B8
:1028A0002DE9F05F2E4E8A460546002471682046C9
:1028B000884796F82000DFF8ACB0000640D5B14656
:1028C000B689002101EB81030AEB0313B9F816C0A6
:1028D000002003F1500200BFC0EB001705EB870793
:1028E00007F13C08464512D2BE4210D994450ED29B
:1028F0009C450CD900EB8100401C10F0FF040AD06D
:102900009BF802005E46A0420AD1002425E0401C4C
:1029100080B20428E0D3491C89B20229D2D31CE03A
:10292000401EC2B200235146284601F0A9FD601E98
:10293000C2B2B47001235146284601F0A1FD0CE05B
:102940009BF802005E4640B1401EC2B200235146D1
:10295000284601F095FD0020B0702046BDE8F09FAC
:10296000F000002004000020F8B500250446009582
:1029700090F82400012808D0012084F82400204683
:10298000FEF7E8FD060002D053E00220F8BDA06A81
:1029900020F4885040F00200A062022000F0DEFE29
:1029A00026490968B1FBF0F0400000E0401E0090AD
:1029B0000028FBD12046FEF731FE2068816841F0F7
:1029C0000801816000F02CFE074608E000F028FEB8
:1029D000C01B0A2803D920688068000715D4206826
:1029E00080680007F2D42068816841F004018160AA
:1029F00000F016FE074612E000F012FEC01B0A2887
:102A00000DD920688068400709D5A06A20F002002F
:102A100040F01000A06284F824500120F8BD206826
:102A200080684007E8D4A06A20F0020040F001006E
:102A3000A06284F824503046F8BD0000C400002095
:102A4000F8B50024009490F824202546012A12D0DD
:102A5000012280F824204A681F23072A0DD2066825
:102A6000776B521E02EB820293409F430B689340A8
:102A70001F43776319E00220F8BD06680D2A0AD2C9
:102A8000376BD21F02EB820293409F430B68934047
:102A90001F43376309E0F76A0D3A02EB8202934065
:102AA0009F430B6893401F43F7620A680723066839
:102AB0000A2A0AD3F7680A3A02EB420293409F437C
:102AC0008B6893401F43F76008E0376902EB4202CE
:102AD00093409F438B6893401F4337610A68102AD5
:102AE00001D0112A20D1124B02689A4217D1936863
:102AF0001B0219D4936843F40003936009681029FA
:102B000012D10C490C4A0968B1FBF2F101EB8101C9
:102B1000490000E0491E00910029FBD104E0816AD0
:102B200041F020018162012480F824502046F8BD44
:102B300000240140C400002040420F0030B50A4983
:102B4000884210D109490020094A8861094B4FF495
:102B50008064C86032F810502D0443F82050401CA7
:102B6000A042F7DB886130BD243100200400002042
:102B70002401002090320020704770472DE9F04179
:102B800004004FF000057FD0A06A002628B9E66255
:102B900084F82460204600F081F82046FEF7DAFC35
:102BA000A16AC90600D420B1A06A40F01000A0625A
:102BB0006AE0A16A21F4885141F00201A16233491F
:102BC00023688B42E16904D1B1F5402F01D14FF464
:102BD0000021277B4FF4807C41EA470261680A4369
:102BE000A168614508D0012906D0002194F814E0BD
:102BF000BEF1010F02D00AE06146F7E7C7B1A76A4C
:102C000047F02007A762E76A47F00107E7625F68BD
:102C100027F469470F435F60236899681C4F394068
:102C200011439960A16861450BD0012909D00CE0DE
:102C3000DFF860E0A7690EEB47370F4347F4006108
:102C4000E5E7218A0D05A5F580152168CB6A23F4F7
:102C500070032B43CB62216889680F4B1940914266
:102C600008D1E662A16A21F0020141F00101A162EE
:102C7000BDE8F081A06A20F0020040F01000A062E0
:102C8000E06A40F00100E0620120F1E7003C014011
:102C9000FDF7E1FF00E0FFFFFE0E1FFF70B586B0FD
:102CA00000250646009501950295039500681A498E
:102CB00088422ED11949886940F4004088618869AA
:102CC00000F400400490886940F00400886188693D
:102CD000694600F004000490042000900320019055
:102CE0000F4800F097FB104C0E48C4E90005802007
:102CF000C4E9025040002061800060612020C4E9E6
:102D00000605204600F010FB08B1FEF7B3FE346262
:102D1000666206B070BD0000003C01400010024039
:102D20000008014058040240543100202DE9F047CA
:102D3000894604463B4900683B4F0E1D9046884239
:102D400001D0B84207D1306810F4702F03D00125AC
:102D50002846BDE8F08794F8240001280CD0012013
:102D600084F824002046FEF759FC05004FF00000CF
:102D700004D084F82400EBE70220EAE7A16A40F6D9
:102D80000162914341F48071A1622168B94218D176
:102D9000326812F4702F14D0A16A41F48011A1623C
:102DA0003168490505D5A16A21F4005141F48051EB
:102DB000A162A16AC9040AD5E16A21F00601E162B3
:102DC00006E0A26A22F48012A2624968E9E7E062A2
:102DD00084F82400216A15488862216A1448C86270
:102DE000216A1448086321686FF0020008602068B7
:102DF000816841F480718160216843464A464C31C4
:102E0000206A00F0CFFA20688168C1F342410729A7
:102E1000816803D041F48011816099E741F4A001F9
:102E2000FAE700000024014000280140AB1500082B
:102E300013160008F915000870477047704770B501
:102E40004379012B1CD001264671022303710568CA
:102E50002B6802F0100440F6FE72A2409343D1E9C1
:102E600000210A43A2401A432A6001680A68C0236D
:102E7000A3409A430A60067100214171084670BD63
:102E8000022070BD704770477047006809B1006B41
:102E90007047C06A704770B5040003D020790025E0
:102EA00010B105E0012070BD6571204600F008F802
:102EB00002202071256101202071002070BD0000DA
:102EC000F0B585B000260546009601960296039659
:102ED00000681A4988422ED11949C86940F000504B
:102EE000C861C86900F000500490886940F004008F
:102EF00088618869102700F0040004900320CDE960
:102F0000007069460F4800F085FA104C0E48C4E97D
:102F100000078020C4E902604000206180006061F9
:102F20002020C4E90606204600F0FEF908B1FEF7AD
:102F3000A1FDAC60656205B0F0BD0000007400400A
:102F4000001002400008014030040240AC31002073
:102F500018B5046800940068104421B11430009042
:102F60000360002018BD0830F9E700002DE9F041AA
:102F700004460D461746617900220698012920D0A3
:102F80000126667102212171F5B1D4F80CC02F49D8
:102F9000CCF82810D4F80CC02D49CCF82C10D4F85B
:102FA0000CC02C49CCF830102168D1F800C04CF08E
:102FB000805CC1F800C068B304282ED0082831D145
:102FC0002EE00220BDE8F081D4F808C02249CCF8F8
:102FD0002810D4F808C02149CCF82C10D4F808C027
:102FE0001F49CCF830102168D1F800C04CF4805C47
:102FF000C1F800C020B1042805D0082808D105E098
:103000002268083204E022680C3201E022681032A3
:10301000A06808E02268143204E02268183201E057
:1030200022681C32E068394600F0BCF90021617169
:1030300020B1216941F004012161C3E721680A68D8
:1030400005F010039E4032430A60BBE7DD1900081B
:10305000271A0008051A0008CD1900081D1A0008D3
:10306000ED19000870B504460068036801F010020D
:103070004FF480559540AB430360206803680125F9
:1030800005FA02F29343036029B1E06800F005F805
:103090002571002070BDA068F8E710B590F82110E8
:1030A0000022022905D00421816380F8202001201C
:1030B00010BD01680B6823F00E030B6001680B68FC
:1030C00023F001030B6090F84030C46B012101FA3A
:1030D00003F3636080F8211080F82020104610BDB3
:1030E0002DE9F05FC16B0A6801680B68046C4FF052
:1030F000040808FA04F8844D844E854FDFF814C2A2
:10310000DFF81492DFF814A2DFF814B2DFF814E24B
:1031100018EA020F65D05FEA437862D50A68920622
:1031200003D40A6822F004020A60DFF8F0814FF449
:103130008062016808F1140813011402414524D982
:10314000A9420DD0B1420FD0B9421AD0614515D075
:10315000494515D0514501D1120312E0594501D11D
:1031600004220EE0714501D140220AE06D4D143574
:10317000A94206D06B4A2832914201D11A4600E09A
:1031800022466749091F0A6029E0A94213D0B142CB
:1031900015D0B94220D061451BD049451BD05145BF
:1031A00002D14FF4800217E0414502D14FF0806216
:1031B00012E0594501D104220EE0714501D14022AF
:1031C0000AE0584D1435A94206D0564A2832914299
:1031D00001D11A4600E022464B4908394A60C16ACB
:1031E00071E04FF0020808FA04F818EA020F70D0F4
:1031F0005FEA83786DD50A68920606D40A6822F0E1
:103200000A020A60012180F82110DFF810814FF4D2
:103210000072016808F1140813011402414524D911
:10322000A9420DD0B1420FD0B9421AD0614515D094
:10323000494515D0514501D1120312E0594501D13C
:1032400002220EE0714501D120220AE0354D1435ED
:10325000A94206D0334A2832914201D11A4600E0F1
:1032600022462F49091F0A6029E0A94213D0B14222
:1032700015D0B94220D061451BD049451BD05145DE
:1032800002D14FF4001217E0414502D14FF0007215
:1032900012E0594501D102220EE0714501D12022F0
:1032A0000AE0204D1435A94206D01E4A2832914228
:1032B00001D11A4600E02246134908394A6000212C
:1032C00080F82010816A00291CD0BDE8F05F084713
:1032D000FFE70825A540154214D01A0712D50A6841
:1032E00022F00E020A6090F84020C36B012101FA1F
:1032F00002F25A60816380F82110002180F82010CA
:10330000016BE0E7BDE8F09F080002401C000240AE
:103310003000024044000240580002406C0002406D
:10332000080402401C04024030B560B11A4B026828
:1033300014219A4209D2194B1344B3FBF1F18900CD
:10334000016417490AE0012030BD134B5B4213446E
:10335000B3FBF1F1890001640F490839C16302210F
:1033600080F82110136843F6F0718B43F0E90114E3
:103370002143D0E902452C43214304692143446998
:1033800021438469214319431160002141630122D3
:1033900042770177084630BD08040240F8FFFDBFC0
:1033A0000000024070B5044690F820000025012876
:1033B0000CD0012084F8200094F821600020012E18
:1033C00006D084F820000225284670BD022070BD7A
:1033D000022684F82160A0632068066826F00106B2
:1033E00006602046FEF730FBE06A0028206801688E
:1033F00002D041F00E0106E021F0040101602068D6
:10340000016841F00A0101602068016841F0010192
:103410000160D9E72DE9F84FDFF8C891002409F1E0
:10342000040A0AF1040B23460F270BF1040ED1E026
:103430000125A54006EA0502AA4276D1DFF8A8C117
:103440004E68A6EB0C0866452BD00DDC032E34D05D
:1034500005DC36B3012E19D0022E2FD11BE0112E20
:1034600016D0122E2AD119E0B8F5881F19D006DC23
:10347000B8F5803F15D0B8F5801F1FD111E0B8F521
:10348000001F0ED0B8F5041F18D10AE0CB6815E074
:10349000CB681B1D12E0CB6808330FE0CB680C3300
:1034A0000CE08B682BB1012B4FF0080303D0456172
:1034B00004E0042302E0056100E00023FF2A01D8B4
:1034C000064601E000F104064FEA840501D9A5F1A2
:1034D0002005D6F8008007FA05FC28EA0C0803FA54
:1034E00005F548EA0508C6F800804D68ED0070D57E
:1034F0003E4DAE6946F00106AE61AD6924F00306AB
:1035000005F0010500953A4D06EB050CDCF8085076
:10351000A607360F07FA06F825EA0805DFF8D48073
:10352000404503D14FF0000825E052E0DFF8C880A5
:10353000404502D14FF001081DE0DFF8C080404552
:1035400002D14FF0020816E0DFF8B480404502D106
:103550004FF003080FE0DFF8AC80404502D14FF098
:10356000040808E0DFF8A080404502D14FF00508CC
:1035700001E04FF0060808FA06F848EA0508CCF81A
:1035800008804D68D9F80060ED034D4601D516431B
:1035900000E096432E604D68DAF80060AD035546B2
:1035A00001D5164300E096432E604D68DBF80060BD
:1035B000ED025D4601D5164300E096432E604D684E
:1035C000DEF80060AD02754601D5164300E0964373
:1035D0002E60641C0A681646E2407FF429AFBDE8FD
:1035E000F88F00000004014000001110001002409C
:1035F0000000014000080140000C014000100140A3
:103600000014014000180140001C0140806808407F
:1036100000D0012070470AB1016170470904FBE73F
:103620000148806870470000CC0000200248816893
:103630000278114481607047CC000020074810B523
:10364000016841F010010160032000F075F80F20BF
:1036500000F006F800F024F8002010BD0020024021
:1036600070B50D4D04464FF47A712878B1FBF0F037
:103670000A490968B1FBF0F000F0C8FB48B9102C0A
:1036800007D200222146501E00F036F800206C6060
:1036900070BD012070BD0000CC000020C4000020DF
:1036A0000C4808B5816941F001018161816901F02F
:1036B00001010091C16941F08051C161C06900F010
:1036C000805000900448416821F0E06141F00071B1
:1036D000416008BD0010024000000140002809DBE5
:1036E00000F01F02012191404009800000F1E0201C
:1036F000C0F8001170470000F0B40E4B1B680C4678
:10370000C3F30223C3F10705042D00D90425191DB5
:10371000072901D2002300E0DB1E012606FA05F18D
:10372000491E214099409E40761E16403143F0BC10
:1037300006F0EDBD0CED00E0064900F00702086858
:103740004FF6FF03184040EA0220034A1043086086
:10375000704700000CED00E00000FA0510B52CA445
:1037600001461DCC86B08DE81D002DA02D4C0068B3
:103770000490002004292FD00BDC01292FD002292E
:1037800028D100F061F96168C1F38131491C490019
:103790001EE0082920D010291CD161682268D201BE
:1037A00018D5C1F38342C9031DF8020009D5616829
:1037B00004AAC1F34041515C1B4AB2FBF1F14843FA
:1037C00001E01A4948436168490203D440000321DB
:1037D000B0FBF1F006B010BD00F046F9FAE7226A3E
:1037E000C2F30121012903D1920701D5C803F1E7F2
:1037F000022905D1626A920702D549F64040E9E7FD
:103800000329E7D121688903E4D54FF22440E1E799
:1038100002030405060708090A0B0C0D0E0F101011
:10382000010200000010024000127A0000093D0071
:103830002DE9F84305460078354CC00754D0E069BF
:103840000026C00008D4E06940F08050E061E069E3
:10385000012600F0805000902E480168C90512D45E
:103860000168804641F480710160FFF7D9FE074688
:1038700005E000BFFFF7D4FEC01B642823D8D8F8AA
:103880000000C005F6D5206A10F4407021D0A98848
:1038900001F4407181421CD0206A1F49012220F4AA
:1038A00040700A6000220A602062C00711D0FFF752
:1038B000B7FE074641F2883808E000BFFFF7B0FEC8
:1038C000C11B414502D90320BDE8F883206A800767
:1038D000F4D5206A696820F44070084320621EB164
:1038E000E06920F08050E0612878800705D56068A5
:1038F000A96820F44040084360602878C00605D5D8
:103900006068696920F48000084360600020DBE79C
:103910000010024000700040400442422DE9F04790
:103920000F46050061D0434E306800F00700B842F2
:1039300009D2306820F0070038433060306800F06A
:103940000700B84251D128683B4C810712D5400787
:1039500003D5606840F4E06060602878000703D514
:10396000606840F4605060606068A96820F0F00012
:10397000084360602878C00728D06868012810D004
:103980002168022810D0890700292EDA616821F009
:10399000030101436160FFF743FE804641F288392D
:1039A0000DE021688903EFE78901EDE7FFF738FEB5
:1039B000A0EB0801494502D90320BDE8F087606803
:1039C000696800F00C00B0EB810FEFD1306800F0B7
:1039D0000700B8420BD9306820F007003843306048
:1039E000306800F00700B84201D00120E5E72878F0
:1039F000400705D56068E96820F4E060084360602E
:103A00002878000706D56068296920F4605040EAEC
:103A1000C100606000F028F86168084AC1F3031132
:103A2000515CC8400649086006480068FFF718FE68
:103A30000020C2E700200240001002406EB80008DB
:103A4000C4000020D00000200448054900684968EF
:103A5000044AC1F3C221515CC8407047C400002031
:103A6000001002407EB8000812A185B00FC98DE891
:103A70000F0014A0144A006804905168134801F024
:103A80000C03042B10D0082B0ED1C1F38343C903C0
:103A90001DF803000AD5516804AAC1F34041515CE6
:103AA0000A4A5043B0FBF1F005B07047084948435B
:103AB000FAE7000002030405060708090A0B0C0DCB
:103AC0000E0F1010010200000010024000127A00D8
:103AD00000093D002DE9F84F040070D02078C04D5A
:103AE000C00749D06868C0F38100012807D0686822
:103AF000C0F38100022809D16868C00306D5286890
:103B0000800339D560680028E7D035E06068B0F5FB
:103B1000803F0BD010B1B0F5A02F11D0286820F451
:103B200080302860286820F4802002E0286840F473
:103B300080302860606890B1FFF772FD06460AE0A9
:103B4000286840F480202860F0E700BFFFF768FD98
:103B5000801B642873D828688003F7D50CE0FFF732
:103B60005FFD064605E000BFFFF75AFD801B642895
:103B7000F0D828688003F7D420789A4E80074FF059
:103B800001094FF0000839D5686810F00C0F07D014
:103B90006868C0F38100022809D16868C00306D4B0
:103BA0002868800714D52069012808D110E0206911
:103BB000B0B1C6F80090FFF733FD074605E00AE113
:103BC000FFF72EFDC01B0228C4D828688007F7D550
:103BD0002868616920F0F80040EAC10028600DE023
:103BE000C6F80080FFF71CFD074604E0FFF718FD4C
:103BF000C01B022823D828688007F7D42078000744
:103C00002CD57948A169D9B1C0F80090FFF708FD1B
:103C1000074604E0FFF704FDC01B02280FD8686ABE
:103C20008007F7D571484FF4FA510068B0FBF1F006
:103C3000009000BF0098411E0091FAD20EE080E093
:103C4000C0F80080FFF7ECFC074604E0FFF7E8FC53
:103C5000C01B022875D8686A8007F7D4207840070F
:103C600060D5E8690027C00008D4E86940F08050BA
:103C7000E861E869012700F0805000905C48016825
:103C8000C90513D40168834641F480710160FFF7D0
:103C9000C7FC824606E000BFFFF7C2FCA0EB0A00AB
:103CA00064284ED8DBF80000C005F5D5E06801288F
:103CB0000AD008B1052813D0286A20F00100286234
:103CC000286A20F0040002E0286A40F0010028621F
:103CD000E06841F2883B98B1FFF7A2FC82460BE016
:103CE000286A40F004002862EEE700BFFFF798FC66
:103CF000A0EB0A0159455AD8286A8007F6D50CE08E
:103D0000FFF78EFC824605E0FFF78AFCA0EB0A0174
:103D100059454CD8286A8007F6D41FB1E86920F0CD
:103D20008050E861E06988B36968C1F381010229C4
:103D300044D00228C6F8608004D0FFF771FC044626
:103D400038E034E0FFF76CFC074604E0FFF768FC5E
:103D5000C01B02282BD828688001F7D4206AB0F550
:103D6000803F05D16868A16820F40030084368608E
:103D7000D4E908010843696821F4741108436860B4
:103D8000C6F86090FFF74CFC044606E025E000BF53
:103D9000FFF746FC001B022809D828688001F7D5E8
:103DA0001BE000BFFFF73CFC001B022802D90320E8
:103DB000BDE8F88F28688001F4D40EE00128F7D020
:103DC0006868226A00F48031914204D1616A00F48B
:103DD0007010884201D00120EAE70020E8E70000E7
:103DE000001002400000424280044242C400002011
:103DF000007000404FF0E0210428086903D020F053
:103E000004000861704740F00400FAE710B5401E56
:103E1000B0F1807F01D3012010BD4FF0E02460613C
:103E20000F21601706F073FA0020A06107202061BF
:103E3000002010BD70B590F83C20012A2CD0012440
:103E400080F83C40022280F83D2003685A689D6853
:103E500022F070060A6832435A60104B02689A4298
:103E60000ED00F4B9A420BD0B2F1804F08D00D4BC1
:103E70009A4205D00C4B9A4202D00C4B9A4204D184
:103E8000496825F080031943916080F83D40002186
:103E900080F83C10084670BD022070BD002C014027
:103EA000003401400004004000080040000C0040C5
:103EB00010B5040003D094F83D0010B107E00120D4
:103EC00010BD002084F83C00204600F01FF80220BE
:103ED00084F83D00211D206805F060FA012084F877
:103EE000460084F83E0084F83F0084F8400084F8DF
:103EF000410084F8420084F8430084F8440084F8C8
:103F0000450084F83D00002010BD000008B50068A1
:103F10000649884208D10648C16941F02001C161C3
:103F2000C06900F02000009008BD000000140040AF
:103F30000010024090F83D10012901D00120704787
:103F4000022180F83D1000680E4988420ED00E49CB
:103F500088420BD0B0F1804F08D00C49884205D080
:103F60000B49884202D00B49884204D1816801F094
:103F70000701062903D0016841F00101016000201A
:103F800070470000002C0140003401400004004054
:103F900000080040000C004070B5044690F83C005A
:103FA0000D4601280AD0012084F83C0042B1042AC1
:103FB00018D0082A2AD00C2A4DD139E0022070BD31
:103FC000206805F03FFA2068816941F008018161AD
:103FD0002068816921F004018161206881692A6972
:103FE000114311E0206805F05DFA2068816941F411
:103FF000006181612068816921F4806181612068AC
:1040000081692A6941EA0221816124E0206805F082
:104010007FFA2068C16941F00801C1612068C16967
:1040200021F00401C1612068C1692A69114311E0CE
:10403000206805F0A1FA2068C16941F40061C161FE
:104040002068C16921F48061C1612068C1692A6961
:1040500041EA0221C161002084F83C0070BD10B526
:10406000040003D094F83D0010B107E0012010BD1A
:10407000002084F83C00204600F01EF8022084F85E
:104080003D00211D206805F089F9012084F84600D3
:1040900084F83E0084F83F0084F8400084F8410032
:1040A00084F8420084F8430084F8440084F8450012
:1040B00084F83D00002010BD08B50068064988421C
:1040C00008D10648C16941F00201C161C06900F030
:1040D0000200009008BD00000004004000100240F3
:1040E00010B50446022249B104290ED0082913D084
:1040F00094F84100012816D0012010BD94F83E002C
:104100000128F9D184F83E200FE094F83F000128FF
:10411000F2D184F83F2008E094F840000128EBD168
:1041200084F8402001E084F841200122206805F055
:104130007BF913492068134A884201D0904203D189
:10414000436C43F400434364206888420DD090429E
:104150000BD0B0F1804F08D00B49884205D00B49F5
:10416000884202D00A49884204D1816801F00701DF
:10417000062903D0016841F001010160002010BD53
:10418000002C0140003401400004004000080040C1
:10419000000C0040FEE7000070B50D4C0025C4F88F
:1041A000B0510C48416821F470414160416841F4CC
:1041B00040514160C4F8AC51022004F5D67406F0B9
:1041C000CFF801206060022006F0CAF8656070BD7B
:1041D000000022420010014003480121C0F8AC1148
:1041E000C0F8B011704700000000224270B50D4CBD
:1041F0000025C4F8B0510C48416821F47041416079
:10420000416841F4405141600126C4F8AC6102208C
:1042100004F5D67406F0A4F86660022006F0A0F853
:10422000656070BD00002242001001402DE9F0479A
:10423000814617480024416821F47041416041687B
:1042400041F400414160134E254627464FF00108D6
:10425000C6F8B071022006F083F8C6F8B081600697
:10426000040ED6F82C0108B1641CE4B2012006F05B
:1042700077F86D1CEDB2082DEAD3B9F1000F04D028
:10428000FFF78AFF2046BDE8F087FFF7AFFFF9E7A9
:1042900000100140000022422DE9F041064614487A
:1042A000416821F470414160416841F440514160EE
:1042B000104C0027C4F8B0713D464FF00108F009DA
:1042C000C4F8AC017006060E022006F049F8C4F8E6
:1042D000B081022006F044F8C4F8B071022006F064
:1042E0003FF86D1CEDB2082DE9D3BDE8F081000068
:1042F000001001400000224270B50D48416821F4D1
:1043000070414160416841F440514160094C0120D5
:10431000C4F8AC01C4F8B001042004F5D67406F06A
:104320001FF800252560042006F01AF8656070BDAE
:1043300000100140000022420E4810B5416821F4EF
:1043400070414160416841F4405141600A4C002095
:10435000C4F8B001C4F8AC01042004F5D67405F02B
:10436000FFFF012060602060BDE81040042005F0E0
:10437000F7BF0000001001400000224270B5134852
:104380000024416821F470414160416841F40041DA
:1043900041600F4D0126C5F8AC61304605F0E0FFE5
:1043A000C5F8B061012005F0DBFF07E0641CE4B252
:1043B000FA2C03D9FFF7C0FF012070BDD5F82C01FE
:1043C0000028F3D1C5F8B00170BD00000010014015
:1043D000000022422DE9F0410126264C264F274DB0
:1043E0004FF40048012818D0607878B12021384671
:1043F000FFF70CF998B141462846FFF707F970B16D
:1044000001212846FFF702F9012808D0202138466B
:10441000FFF7FCF801281FD02AE06670E6E70A20C3
:1044200005F090FF0020607020213846FFF7EEF87D
:1044300058B141462846FFF7E9F848B1012128461E
:10444000FFF7E4F8012805D012E00120BDE8F08173
:104450000220FBE70320F9E741462846FFF7D6F89C
:10446000012805D101212846FFF7D0F800B9667070
:104470000020EBE700000020001001400008014090
:104480007CB5092A6BD802F003059408C5EB051525
:1044900004EB840400EB850001EB041100F13B0503
:1044A00001F14F04401C491C1BB1092A57D01F229F
:1044B00003E0092A53D04FF6FF720092A3B2AAB2CA
:1044C00089B280B200F03AFB25A01824CDE9004063
:1044D00050237822BE210F2004F0B9FB21A0CDE9A2
:1044E000004050237822BE214B2004F0B0FB1EA0D8
:1044F000CDE9004050237822BE21872004F0A7FB9D
:104500001AA0CDE9004050237822BE21C32004F038
:104510009EFB17A0CDE900404FF487755023782209
:1045200029460F2004F093FB12A0CDE90040502350
:10453000782229464B2004F08AFB0FA0CDE90040E9
:10454000502378222946872004F081FB0BA0CDE977
:104550000040502378222946C32004F078FB7CBD1C
:1045600035550000313055003544000031304400ED
:10457000535F41004F75740053696E00444453000B
:104580002DE9F0431B4C8146002520886688464370
:10459000A088A0F5D041043902D1A07901280CD01F
:1045A0000021084604F008F904F0E2FB12484FF439
:1045B00080734115114C802218E00020A0712A2739
:1045C00067814FF02B08A4F80C80014604F0F4F842
:1045D0000120A071A4F80A80A781E5E70361416189
:1045E000C4F800904261026101616D1CB542F5D3CF
:1045F000BDE8F08380320020001001400C0C014027
:104600002DE9F04F4A492A242B25898845F2105A72
:104610004FF4305B4FF4285E4FF448764FF0F00CC7
:1046200049F241394FF4A07345F210374FF4F0725C
:1046300080B13F484FF00108494580F8068003806B
:10464000A0F802C001D0B9423ED12C260681448197
:10465000858157E036484FF00008494580F80680CC
:10466000A0F800C0438006D0A1F5D04CBCF1040CEA
:1046700001D0B9420CD12C2606814481A1F5D04449
:104680008581043C01D0B94244D10380428041E09D
:10469000514507D1A0F808B0A0F80AE04FF42C511A
:1046A00081810EE0A1F5C853633B06D02221018130
:1046B00020214181212181812CE02C210181458112
:1046C00084810280468025E0A1F5D04CBCF1040C29
:1046D00009D051450BD1A0F808B0A0F80AE04FF47A
:1046E0002C54848121E02C260681458109E0A1F526
:1046F000C85CBCF1630C12D02224048121244481C3
:1047000020248481A1F5D044043C01D0B94201D1D8
:1047100002804380BDE8F04F002003F0A5BE4FF0BB
:104720002C0CA0F808C04481858106804280E9E70E
:10473000803200202DE9FE4F161ACDE900104FF00F
:1047400000085D1A47464FF0FF30002E02DD4FF0A3
:10475000010102E003D14FF000018B4602E08346E5
:10476000C6F10006002D02DD4FF0010002E003D18A
:104770004FF00000824602E08246C5F10005AE42DD
:1047800001DD344600E02C46601C4FF00009029029
:1047900018E0009881B2019880B200F019F8B04496
:1047A0002F44A04504DD0198A8EB0408584401906B
:1047B000A74203DD00983F1B5044009009F101001F
:1047C0001FFA80F902998945E3DDBDE8FE8F0000FC
:1047D00000B503F0F1FF04F0CBFA07484FF4807105
:1047E000016141154161054A054B12881A6080221A
:1047F00042610261016100BD00100140C80000205B
:104800000C0C0140F0B51C4615460E4607460B46FB
:10481000FFF790FF3A46234631461046FFF78AFFDE
:1048200023462A4619463846FFF784FF2A46234680
:104830003146BDE8F0401046FFF77CBF2DE9FC4F44
:1048400080460025144603200F46A0EB440649E0AD
:10485000381B81B208EB050A01901FFA8AF0FFF7B6
:10486000B7FF781B81B208EB040900901FFA89F0AA
:10487000FFF7AEFF07EB050B1FFA8BF11FFA89F06C
:10488000FFF7A6FF07EB04091FFA89F11FFA8AF068
:10489000FFF79EFFA8EB050A1FFA89F11FFA8AF0BD
:1048A000FFF796FFA8EB04091FFA8BF11FFA89F0B6
:1048B000FFF78EFF019881B21FFA8AF0FFF788FF99
:1048C000009881B21FFA89F0FFF782FF6D1C002E5D
:1048D00003DA06EB8506B61D04E0281B06EB80060E
:1048E000641E0A36A542B3DDBDE8FC8F2DE9F74F03
:1048F00007468F4881B0DFF83CA2818802983E0AC3
:1049000000F0FF094FEA1028F8B200908848A1F59E
:1049100013434FF4807B42894FF40074413B18D01D
:104920000546A1F5A640103813D0A1F5AA401038CD
:1049300033D02846A1F5C85683790088C01B401E95
:10494000633E5ED0A1F5D046043E7CD0012B7BD0E7
:10495000CEE0104604F0FAF9774DC5F810B06C615E
:104960005746CAF8006080266E612E612C61C5F83A
:1049700010B06C610098CAF800006E612E612C6165
:104980006B48808904F0E2F9C5F810B06C61C7F893
:1049900000806E612E612C612DE0104604F0D6F986
:1049A000654DC5F810B06C615746CAF800608026A6
:1049B0006E612E612C615E484089401C80B204F01B
:1049C000C5F9C5F810B06C61009838606E612E6151
:1049D0002C615748808904F0B9F9C5F810B06C61B2
:1049E000C7F800806E612E612C6151488089401C9F
:1049F00080B204F0ABF9C5F810B06C61C7F8009054
:104A000071E003B987B2104604F0A0F94A4DC5F829
:104A100010B06C61380ACAF8000080266E612E6101
:104A20002C61C5F810B06C61F9B2CAF800106E6163
:104A30002E612C61C5F810B06C61CAF800006E617F
:104A40002E612C6101E022E051E0C5F810B06C61EC
:104A5000CAF800106E612E612C613548808904F01F
:104A600075F9C5F810B06C615146CAF800806E61E6
:104A70002E612C61C5F810B06C61CAF800906E61AF
:104A80002E612C61C5F810B06C61404622E0012B0C
:104A900000D187B2104604F059F9274DC5F810B07F
:104AA0006C61390ACAF8001080266E612E612C6193
:104AB000C5F810B06C61F9B2CAF800106E612E61D1
:104AC0002C611B48808904F041F9C5F810B06C6175
:104AD0004046514608606E612E612C61C5F810B0E9
:104AE0006C61C1F800906E612E612C6108E087B2A4
:104AF0003946104604F042F9A889029904F03EF9BB
:104B00000D48C0F814B0446109490989CAF8001079
:104B10008021416101610461C0F810B04461039AD1
:104B2000CAF80020416101610461BDE8FF8F000007
:104B3000803200200C0C0140001001402DE9F84F9C
:104B4000274E1D468146B3880A9FA3F5D0400438FE
:104B500002D1B07901280BD0A2EB0900401C86B22B
:104B60000C464FF48078DFF87CA04FF4007B33E0F4
:104B700034880846A11AA4EB09030024B4712A461C
:104B80002A2474812B25491E5B1EB58189B29BB2F4
:104B90000097FFF7D3FF0120B0717581B481BDE8A4
:104BA000F88F2146484603F007FE04F0E1F80021A3
:104BB00050465A46DFF830C0802309E0C0F8108024
:104BC0004261CCF80070436103610261491C89B203
:104BD000B142F3D3641CA4B2AC42E2D9DFE70000D7
:104BE00080320020001001400C0C01402DE9F05FE4
:104BF000322005F0A7FB0121002004F0BFF832208D
:104C000005F0A0FB002003F0D9FBFE4D4FF48074AB
:104C100049F24138A88046F6040945F2103A45F2B7
:104C20001057FF2806D3A0F57F41FF3902D0B0F519
:104C3000134F6DD1D32004F089F803F087FB03F004
:104C400085FB03F083FB4FF6FF7606EA0020A88081
:104C500003F07CFBA9880843A880404558D0BF20BA
:104C600004F074F803F072FB03F070FB03F06EFBCA
:104C700003F06CFB06EA0020A88003F067FBA9881C
:104C80000843A880484543D0D42004F05FF803F0DF
:104C90005DFB03F05BFB03F059FB06EA0020A880F4
:104CA00003F054FBA9880843A880504530D04FF446
:104CB0005A4004F04BF803F049FB4FF45B4004F01A
:104CC00045F803F043FB06EA0020A8804FF45C405F
:104CD00004F03CF803F03AFBA9880843A880B0F53B
:104CE000004F7DD0B84213D0A12004F02FF803F07C
:104CF0002DFBA88003F02AFB06EA0020A88003F021
:104D000025FBA9880843A0F5AE41A880613968D089
:104D100080B2404566D1CF2004F018F8002004F09E
:104D200003F8C12004F000F8302003F0FDFFED206F
:104D300004F00CF8642003F0F7FF032003F0F4FF05
:104D4000122003F0F1FF812003F0EEFFE82003F0D2
:104D5000FDFF852003F0E8FF102003F0E5FF7A2037
:104D600003F0E2FFCB2003F0F1FF392003F0DCFF7A
:104D70002C2003F0D9FF002003F0D6FF342003F0ED
:104D8000D3FF022003F0D0FFF72003F0DFFF202045
:104D900003F0CAFFEA2003F0D9FF002003F0C4FFAC
:104DA000002003F0C1FFC02003F0D0FF1B2003F060
:104DB000BBFFC12003F0CAFF012003F0B5FFC520EF
:104DC00003F0C4FF302003F0AFFF302003F0ACFF4E
:104DD000C72003F0BBFFB72003F0A6FF362002E098
:104DE000B1E0ABE0B2E003F0B1FF482003F09CFF7C
:104DF0003A2003F0ABFF552003F096FFB12003F0FB
:104E0000A5FF002003F090FF1A2003F08DFFB620CD
:104E100003F09CFF0A2003F087FFA22003F084FF29
:104E2000F22003F093FF002003F07EFF262003F022
:104E30008DFF012003F078FFE02003F087FF0F20B3
:104E400003F072FF2A2003F06FFF282003F06CFFAD
:104E5000082003F069FF0E2003F066FF082003F02E
:104E600063FF542003F060FFA92003F05DFF43209F
:104E700003F05AFF0A2003F057FF0F2003F054FFFE
:104E8000002003F051FF002003F04EFF002003F04C
:104E90004BFF002003F048FFE12003F057FF002004
:104EA00003F042FF152003F03FFF172003F03CFF03
:104EB000072003F039FF112003F036FF062003F02E
:104EC00033FF2B2003F030FF562003F02DFF3C2052
:104ED00003F02AFF052003F027FF102003F024FF32
:104EE0000F2003F021FF3F2003F01EFF3F2003F0BF
:104EF0001BFF0F2003F018FF2B2003F027FF0020DB
:104F000003F012FF002003F00FFF012003F00CFF5D
:104F10003F2003F009FF2A2003F018FF002003F0D0
:104F200003FF002003F000FF002003F0FDFEEF2050
:104F300003F0FAFE112003F009FFB1E041F663101F
:104F4000A88003F06EB8AF8001F02EB848457DD13F
:104F5000112003F0FBFE142005F0F4F9D02003F03B
:104F6000F5FE072003F0E0FE422003F0DDFE1D20E9
:104F700003F0DAFED12003F0E9FE002003F0D4FEB6
:104F80001A2003F0D1FE092003F0CEFED22003F058
:104F9000DDFE012003F0C8FE222003F0C5FEC02084
:104FA00003F0D4FE102003F0BFFE3B2003F0BCFE54
:104FB000002003F0B9FE022003F0B6FE112003F03A
:104FC000B3FEC52003F0C2FE032003F0ADFEC820EF
:104FD00003F0BCFE002003F0A7FE252003F0A4FE92
:104FE000212003F0A1FE052003F09EFE002003F027
:104FF0009BFE0A2003F098FE652003F095FE252015
:1050000002E000008032002003F08EFE772003F0E3
:105010008BFE502003F088FE0F2003F085FE002059
:1050200003F082FEF82003F091FE012003F07CFEE5
:10503000FE2003F08BFE002003F076FE022003F03A
:1050400073FE202003F082FE362000E02EE003F005
:105050007DFE082003F068FE3A2003F077FE55201D
:1050600003F062FE2B2003F071FE002003F05CFED3
:10507000002003F059FE012003F056FE3F2003F00C
:1050800053FE2A2003F062FE002003F04DFE0020B4
:1050900003F04AFE012003F047FEDF2003F044FE48
:1050A000782005F04FF9292001F0FBBE50457CD156
:1050B000ED2003F04BFE012003F036FEFE2003F04E
:1050C00033FEEE2003F042FEDE2003F02DFE212011
:1050D00003F02AFEF12003F039FE012003F024FE44
:1050E000DF2003F033FE102003F01EFEC42003F087
:1050F0002DFE8F2003F018FEC62003F027FE0020AF
:1051000003F012FEE22003F00FFEE22003F00CFE9B
:10511000E22003F009FEBF2003F018FEAA2003F0EE
:1051200003FEB02003F012FE0D2003F0FDFD002071
:1051300003F0FAFD0D2003F0F7FD002003F0F4FD6D
:10514000112003F0F1FD002003F0EEFD192003F023
:10515000EBFD002003F0E8FD212003F0E5FD002039
:1051600003F0E2FD2D2003F0DFFD002003F0DCFD65
:105170003D2003F0D9FD002003F0D6FD5D2003F0B3
:10518000D3FD002003F0D0FD5D2003F0CDFD002015
:1051900003F0CAFDB12003F0D9FD802003F0C4FD67
:1051A000002003F0C1FD8B2000E0FCE303F0BCFD18
:1051B000002003F0B9FD962003F0B6FD002003F0B7
:1051C000B3FDB22003F0C2FD002003F0ADFD0020CE
:1051D00003F0AAFD022003F0A7FD002003F0A4FDC8
:1051E000032003F0A1FD002003F09EFDB32003F097
:1051F000ADFD002003F098FD002003F095FD002098
:1052000003F092FD002003F08FFD002003F08CFDE1
:10521000002003F089FD002003F086FD002003F04C
:1052200083FD002003F080FD002003F07DFD0020C1
:1052300003F07AFD002003F077FD002003F074FDF9
:10524000002003F071FD002003F06EFD002003F04C
:105250006BFD002003F068FD002003F065FD0020D9
:1052600003F062FD002003F05FFD002003F05CFD11
:10527000002003F059FD002003F056FD002003F04C
:1052800053FDB42003F062FD8B2003F04DFD0020A0
:1052900003F04AFD962003F047FD002003F044FD93
:1052A000A12003F041FD002003F03EFDB52003F0F6
:1052B0004DFD022003F038FD002003F035FD0320F2
:1052C00003F032FD002003F02FFD042003F02CFD3D
:1052D000002003F029FDB62003F038FD002003F084
:1052E00023FD002003F020FDB72003F02FFD002058
:1052F00003F01AFD002003F017FD3F2003F014FD1A
:10530000002003F011FD5E2003F00EFD002003F0ED
:105310000BFD642003F008FD002003F005FD8C2048
:1053200003F002FD002003F0FFFCAC2003F0FCFCC6
:10533000002003F0F9FCDC2003F0F6FC002003F071
:10534000F3FC702003F0F0FC002003F0EDFC902053
:1053500003F0EAFC002003F0E7FCEB2003F0E4FCA0
:10536000002003F0E1FCDC2003F0DEFC002003F071
:10537000DBFCB82003F0EAFC002003F0D5FC0020A1
:1053800003F0D2FC002003F0CFFC002003F0CCFCA3
:10539000002003F0C9FC002003F0C6FC002003F04D
:1053A000C3FC002003F0C0FCBA2003F0CFFC242093
:1053B00003F0BAFC002003F0B7FC002003F0B4FCBB
:1053C000002003F0B1FCC12003F0C0FC202003F05A
:1053D000ABFC002003F0A8FC542003F0A5FC002047
:1053E00003F0A2FCFF2003F09FFC002003F09CFCD4
:1053F000C22003F0ABFC0A2003F096FC002003F06F
:1054000093FC042003F090FC002003F08DFCC320EB
:1054100003F09CFC3C2003F087FC002003F084FC9C
:105420003A2003F081FC002003F07EFC392003F0D9
:105430007BFC002003F078FC372003F075FC002093
:1054400003F072FC3C2003F06FFC002003F06CFCC6
:10545000362003F069FC002003F066FC322003F0E4
:1054600063FC002003F060FC2F2003F05DFC0020B3
:1054700003F05AFC2C2003F057FC002003F054FCEE
:10548000292003F051FC002003F04EFC262003F0FD
:105490004BFC002003F048FC242003F045FC0020D6
:1054A00003F042FC242003F03FFC002003F03CFC0E
:1054B000232003F039FC002003F036FC3C2003F0ED
:1054C00033FC002003F030FC362003F02DFC0020DC
:1054D00003F02AFC322003F027FC002003F024FC18
:1054E0002F2003F021FC002003F01EFC2C2003F0F1
:1054F0001BFC002003F018FC292003F015FC002001
:1055000003F012FC262003F00FFC002003F00CFC3B
:10551000242003F009FC002003F006FC242003F003
:1055200003FC002003F000FC232003F0FDFB00201F
:1055300003F0FAFBC42003F009FC622003F0F4FB43
:10554000002003F0F1FB052003F0EEFB002003F048
:10555000EBFB842003F0E8FB002003F0E5FBF020E8
:1055600003F0E2FB002003F0DFFB182003F0DCFB7C
:10557000002003F0D9FBA42003F0D6FB002003F0A9
:10558000D3FB182003F0D0FB002003F0CDFB50200C
:1055900003F0CAFB002003F0C7FB0C2003F0C4FBA0
:1055A000002003F0C1FB172003F0BEFB002003F036
:1055B000BBFB952003F0B8FB002003F0B5FBF32004
:1055C00003F0B2FB002003F0AFFBE62003F0ACFBDE
:1055D000002003F0A9FBC52003F0B8FB322003F044
:1055E000A3FB002003F0A0FB442003F09DFB002060
:1055F00003F09AFB652003F097FB002003F094FB77
:10560000762003F091FB002003F08EFB882003F04E
:105610008BFB002003F088FBC62003F097FB2020C3
:1056200003F082FB002003F07FFB172003F07CFBDC
:10563000002003F079FB012003F076FB002003F04B
:1056400073FBC72003F082FB002003F06DFB0020FA
:1056500003F06AFB002003F067FB002003F064FB0B
:10566000C82003F073FB002003F05EFB002003F072
:105670005BFB002003F058FB002003F055FBC92022
:1056800003F064FB002003F04FFB002003F04CFB11
:10569000002003F049FB002003F046FB002003F04C
:1056A00043FB002003F040FB002003F03DFB002003
:1056B00003F03AFB002003F037FB002003F034FB3B
:1056C000002003F031FB002003F02EFB002003F04C
:1056D0002BFB002003F028FB002003F025FB00201B
:1056E00003F022FBE02003F031FB162003F01CFB4B
:1056F000002003F019FB1C2003F016FB002003F030
:1057000013FB212003F010FB002003F00DFB3620DB
:1057100003F00AFB002003F007FB462003F004FB24
:10572000002003F001FB522003F0FEFA002003F0FA
:10573000FBFA642003F0F8FA002003F0F5FA7A206F
:1057400003F0F2FA002003F0EFFA8B2003F0ECFAFA
:10575000002003F0E9FA992003F0E6FA002003F0B4
:10576000E3FAA82003F0E0FA002003F0DDFAB92004
:1057700003F0DAFA002003F0D7FAC42003F0D4FAD9
:10578000002003F0D1FACA2003F0CEFA002003F083
:10579000CBFAD22003F0C8FA002003F0C5FAD920D2
:1057A00003F0C2FA002003F0BFFAE02003F0BCFAD5
:1057B000002003F0B9FAF32003F0B6FA002003F05A
:1057C000B3FAE12003F0C2FA162003F0ADFA00208C
:1057D00003F0AAFA1C2003F0A7FA002003F0A4FAB1
:1057E000222003F0A1FA002003F09EFA362003F0F5
:1057F0009BFA002003F098FA452003F095FA002068
:1058000003F092FA522003F08FFA002003F08CFA92
:10581000642003F089FA002003F086FA7A2003F06E
:1058200083FA002003F080FA8B2003F07DFA002039
:1058300003F07AFA992003F077FA002003F074FA63
:10584000A82003F071FA002003F06EFAB92003F0EB
:105850006BFA002003F068FAC42003F065FA002018
:1058600003F062FACA2003F05FFA002003F05CFA4A
:10587000D22003F059FA002003F056FAD82003F0A2
:1058800053FA002003F050FAE02003F04DFA002014
:1058900003F04AFAF32003F047FA002003F044FA39
:1058A000E22003F053FA052003F03EFA002003F053
:1058B0003BFA0B2003F038FA002003F035FA1B20E6
:1058C00003F032FA002003F02FFA342003F02CFA10
:1058D000002003F029FA442003F026FA002003F008
:1058E00023FA4F2003F020FA002003F01DFA612074
:1058F00003F01AFA002003F017FA792003F014FAE3
:10590000002003F011FA882003F00EFA002003F0C3
:105910000BFA972003F008FA002003F005FAA620FE
:1059200003F002FA002003F0FFF9B72003F0FCF9BE
:10593000002003F0F9F9C22003F0F6F9002003F08B
:10594000F3F9C72003F0F0F9002003F0EDF9D120BE
:1059500003F0EAF9002003F0E7F9D62003F0E4F9B8
:10596000002003F0E1F9DD2003F0DEF9002003F070
:10597000DBF9F32003F0D8F9002003F0D5F9E32098
:1059800003F0E4F9052003F0CFF9002003F0CCF98F
:105990000A2003F0C9F9002003F0C6F91C2003F027
:1059A000C3F9002000E0FDE203F0BEF9332003F06C
:1059B000BBF9002003F0B8F9442003F0B5F900204A
:1059C00003F0B2F9502003F0AFF9002003F0ACF976
:1059D000622003F0A9F9002003F0A6F9782003F073
:1059E000A3F9002003F0A0F9882003F09DF900201E
:1059F00003F09AF9972003F097F9002003F094F947
:105A0000A62003F091F9002003F08EF9B72003F0EF
:105A10008BF9002003F088F9C22003F085F90020FB
:105A200003F082F9C72003F07FF9002003F07CF92E
:105A3000D12003F079F9002003F076F9D52003F0A6
:105A400073F9002003F070F9DD2003F06DF90020F8
:105A500003F06AF9F32003F067F9002003F064F91A
:105A6000E42003F073F9012003F05EF9002003F055
:105A70005BF9012003F058F9002003F055F90220EA
:105A800003F052F9002003F04FF92A2003F04CF9FB
:105A9000002003F049F93C2003F046F9002003F010
:105AA00043F94B2003F040F9002003F03DF95D205D
:105AB00003F03AF9002003F037F9742003F034F9C9
:105AC000002003F031F9842003F02EF9002003F0C8
:105AD0002BF9932003F028F9002003F025F9A220E8
