:020000040800F2
:10000000D00800200D020008FF1700089D1400080A
:10001000FD17000813030008B51B000800000000CE
:1000200000000000000000000000000003180008AD
:10003000150300080000000001180008051800085A
:1000400027020008270200082702000827020008EC
:1000500027020008270200081703000827020008EB
:1000600027020008270200082702000827020008CC
:1000700027020008270200082702000827020008BC
:1000800027020008270200082702000827020008AC
:10009000270200082702000827020008250300089D
:1000A000270200082702000827020008270200088C
:1000B0006918000875180008811800082702000850
:1000C000270200082702000827020008270200086C
:1000D000270200082702000827020008270200085C
:1000E0001D03000827020008270200082702000855
:1000F000270200082702000827020008270200083C
:1001000027020008270200088D18000827020008AF
:10011000270200082702000827020008270200081B
:10012000270200082702000827020008270200080B
:1001300000F002F800F05AF80AA090E8000C82449F
:100140008344AAF10107DA4501D100F04FF8AFF27C
:10015000090EBAE80F0013F0010F18BFFB1A43F0A5
:1001600001031847481C0000681C00000A444FF0B7
:10017000000C10F8013B13F0070408BF10F8014B06
:100180001D1108BF10F8015B641E05D010F8016B4B
:10019000641E01F8016BF9D113F0080F1EBF10F8AF
:1001A000014BAD1C0C1B09D16D1E58BF01F801CBD2
:1001B000FAD505E014F8016B01F8016B6D1EF9D555
:1001C0009142D6D37047000000230024002500266A
:1001D000103A28BF78C1FBD8520728BF30C148BFAA
:1001E0000B6070471FB51FBD10B510BD00F058F86B
:1001F0001146FFF7F7FF01F0EFFC00F076F803B4CB
:10020000FFF7F2FF03BC00F07DF8000009488047CB
:1002100009480047FEE7FEE7FEE7FEE7FEE7FEE7E8
:10022000FEE7FEE7FEE7FEE704480549054A064B00
:10023000704700006518000831010008D002002056
:10024000D0080020D0040020D00400204FF000028D
:1002500000B5134694469646203922BFA0E80C50BC
:10026000A0E80C50B1F12001BFF4F7AF090728BF97
:10027000A0E80C5048BF0CC05DF804EB890028BF13
:1002800040F8042B08BF704748BF20F8022B11F03C
:10029000804F18BF00F8012B7047704770477047B8
:1002A000754600F02BF8AE4605006946534620F02F
:1002B0000700854618B020B5FFF7B6FFBDE820401F
:1002C0004FF000064FF000074FF000084FF0000B12
:1002D00021F00701AC46ACE8C009ACE8C009ACE8C5
:1002E000C009ACE8C0098D46704710B50446AFF3AD
:1002F00000802046BDE81040FFF781BF00487047EE
:100300006C02002001491820ABBEFEE72600020067
:100310007047FEE77047012000F028B84FF4004016
:1003200000F024B8202000F021B872B6FEE70000EB
:100330000C4A0D49202806D0B0F5004F09D00128FD
:1003400006D1032006E0012004E000BFC1F88801C7
:10035000704702201060D1F8880108B10020F5E74D
:100360000120F3E70000002000802242044910B57C
:100370000A68024202D00860FFF7DAFF10BD0000F1
:10038000140401402DE9F84FDFF8C891002409F169
:10039000040A0AF1040B23460F270BF1040ED1E0E7
:1003A0000125A54006EA0502AA4276D1DFF8A8C1D8
:1003B0004E68A6EB0C0866452BD00DDC032E34D01E
:1003C00005DC36B3012E19D0022E2FD11BE0112EE1
:1003D00016D0122E2AD119E0B8F5881F19D006DCE4
:1003E000B8F5803F15D0B8F5801F1FD111E0B8F5E2
:1003F000001F0ED0B8F5041F18D10AE0CB6815E035
:10040000CB681B1D12E0CB6808330FE0CB680C33C0
:100410000CE08B682BB1012B4FF0080303D0456132
:1004200004E0042302E0056100E00023FF2A01D874
:10043000064601E000F104064FEA840501D9A5F162
:100440002005D6F8008007FA05FC28EA0C0803FA14
:1004500005F548EA0508C6F800804D68ED0070D53E
:100460003E4DAE6946F00106AE61AD6924F003066B
:1004700005F0010500953A4D06EB050CDCF8085037
:10048000A607360F07FA06F825EA0805DFF8D48034
:10049000404503D14FF0000825E052E0DFF8C88066
:1004A000404502D14FF001081DE0DFF8C080404513
:1004B00002D14FF0020816E0DFF8B480404502D1C7
:1004C0004FF003080FE0DFF8AC80404502D14FF059
:1004D000040808E0DFF8A080404502D14FF005088D
:1004E00001E04FF0060808FA06F848EA0508CCF8DB
:1004F00008804D68D9F80060ED034D4601D51643DC
:1005000000E096432E604D68DAF80060AD03554672
:1005100001D5164300E096432E604D68DBF800607D
:10052000ED025D4601D5164300E096432E604D680E
:10053000DEF80060AD02754601D5164300E0964333
:100540002E60641C0A681646E2407FF429AFBDE8BD
:10055000F88F00000004014000001110001002405C
:100560000000014000080140000C01400010014063
:100570000014014000180140001C01400AB1016153
:1005800070470904FBE700000148806870470000DD
:100590003C01002002488168027811448160704764
:1005A0003C010020074810B5016841F010010160CE
:1005B000032000F075F80F2000F006F800F024F892
:1005C000002010BD0020024070B50D4D04464FF4D0
:1005D0007A712878B1FBF0F00A490968B1FBF0F0B4
:1005E00000F0CCFA48B9102C07D200222146501E48
:1005F00000F036F800206C6070BD012070BD000076
:100600003C010020480100200C4808B5816941F0F8
:1006100001018161816901F001010091C16941F02D
:100620008051C161C06900F0805000900448416869
:1006300021F0E06141F00071416008BD001002400E
:1006400000000140002809DB00F01F020121914059
:100650004009800000F1E020C0F800117047000060
:10066000F0B40E4B1B680C46C3F30223C3F107051D
:10067000042D00D90425191D072901D2002300E00B
:10068000DB1E012606FA05F1491E214099409E40D5
:10069000761E16403143F0BC01F08DBA0CED00E03F
:1006A000064900F0070208684FF6FF03184040EAC9
:1006B0000220034A10430860704700000CED00E080
:1006C0000000FA052DE9F0470F46050061D0434EC2
:1006D000306800F00700B84209D2306820F0070007
:1006E00038433060306800F00700B84251D12868C4
:1006F0003B4C810712D5400703D5606840F4E060A9
:1007000060602878000703D5606840F4605060603E
:100710006068A96820F0F000084360602878C0078E
:1007200028D06868012810D02168022810D08907D5
:1007300000292EDA616821F0030101436160FFF7AF
:1007400023FF804641F288390DE021688903EFE7F5
:100750008901EDE7FFF718FFA0EB0801494502D931
:100760000320BDE8F0876068696800F00C00B0EB1A
:10077000810FEFD1306800F00700B8420BD9306824
:1007800020F0070038433060306800F00700B842BE
:1007900001D00120E5E72878400705D56068E968C1
:1007A00020F4E060084360602878000706D56068A0
:1007B000296920F4605040EAC100606000F018F838
:1007C0006168084AC1F30311515CC84006490860DA
:1007D00006480068FFF7F8FE0020C2E7002002404C
:1007E000001002409C1D000848010020400100202C
:1007F00012A185B00FC98DE80F0014A0144A00683B
:1008000004905168134801F00C03042B10D0082BFE
:100810000ED1C1F38343C9031DF803000AD5516803
:1008200004AAC1F34041515C0A4A5043B0FBF1F0C5
:1008300005B0704708494843FAE700000203040581
:10084000060708090A0B0C0D0E0F1010010200001C
:100850000010024000127A0000093D002DE9F84F17
:10086000040070D02078C04DC00749D06868C0F33C
:100870008100012807D06868C0F38100022809D1EF
:100880006868C00306D52868800339D560680028E9
:10089000E7D035E06068B0F5803F0BD010B1B0F51F
:1008A000A02F11D0286820F480302860286820F418
:1008B000802002E0286840F480302860606890B1B1
:1008C000FFF762FE06460AE0286840F480202860B0
:1008D000F0E700BFFFF758FE801B642873D8286834
:1008E0008003F7D50CE0FFF74FFE064605E000BF9A
:1008F000FFF74AFE801B6428F0D828688003F7D4ED
:1009000020789A4E80074FF001094FF0000839D542
:10091000686810F00C0F07D06868C0F381000228E7
:1009200009D16868C00306D42868800714D52069F7
:10093000012808D110E02069B0B1C6F80090FFF797
:1009400023FE074605E00AE1FFF71EFEC01B022852
:10095000C4D828688007F7D52868616920F0F800B6
:1009600040EAC10028600DE0C6F80080FFF70CFEE9
:10097000074604E0FFF708FEC01B022823D82868BA
:100980008007F7D4207800072CD57948A169D9B120
:10099000C0F80090FFF7F8FD074604E0FFF7F4FD0C
:1009A000C01B02280FD8686A8007F7D571484FF43A
:1009B000FA510068B0FBF1F0009000BF0098411EB2
:1009C0000091FAD20EE080E0C0F80080FFF7DCFD75
:1009D000074604E0FFF7D8FDC01B022875D8686AF7
:1009E0008007F7D42078400760D5E8690027C00069
:1009F00008D4E86940F08050E861E869012700F018
:100A0000805000905C480168C90513D40168834692
:100A100041F480710160FFF7B7FD824606E000BF38
:100A2000FFF7B2FDA0EB0A0064284ED8DBF8000007
:100A3000C005F5D5E06801280AD008B1052813D013
:100A4000286A20F001002862286A20F0040002E0F1
:100A5000286A40F001002862E06841F2883B98B1C2
:100A6000FFF792FD82460BE0286A40F004002862FE
:100A7000EEE700BFFFF788FDA0EB0A0159455AD801
:100A8000286A8007F6D50CE0FFF77EFD824605E078
:100A9000FFF77AFDA0EB0A0159454CD8286A800778
:100AA000F6D41FB1E86920F08050E861E06988B3AE
:100AB0006968C1F38101022944D00228C6F8608028
:100AC00004D0FFF761FD044638E034E0FFF75CFD39
:100AD000074604E0FFF758FDC01B02282BD8286802
:100AE0008001F7D4206AB0F5803F05D16868A1681D
:100AF00020F4003008436860D4E9080108436968BD
:100B000021F4741108436860C6F86090FFF73CFD5B
:100B1000044606E025E000BFFFF736FD001B022873
:100B200009D828688001F7D51BE000BFFFF72CFD2E
:100B3000001B022802D90320BDE8F88F2868800135
:100B4000F4D40EE00128F7D06868226A00F48031FE
:100B5000914204D1616A00F47010884201D00120F2
:100B6000EAE70020E8E700000010024000004242EF
:100B700080044242480100200070004010B5401E31
:100B8000B0F1807F01D3012010BD4FF0E0246061FF
:100B90000F21601701F00FF80020A06107202061ED
:100BA000002010BD7047704770B590F83C20012AB6
:100BB0002CD0012480F83C40022280F83D200368BC
:100BC0005A689D6822F070060A6832435A60104BDA
:100BD00002689A420ED00F4B9A420BD0B2F1804F6E
:100BE00008D00D4B9A4205D00C4B9A4202D00C4BC8
:100BF0009A4204D1496825F080031943916080F836
:100C00003D40002180F83C10084670BD022070BDB8
:100C1000002C014000340140000400400008004066
:100C2000000C004010B5040003D094F83D0010B152
:100C300007E0012010BD002084F83C00204600F0B1
:100C40001FF8022084F83D00211D206800F024FEDA
:100C5000012084F8460084F83E0084F83F0084F8C0
:100C6000400084F8410084F8420084F8430084F88E
:100C7000440084F8450084F83D00002010BD0000C9
:100C800008B501682648B1F1804F11D0254A91423C
:100C90001DD1C16941F00201C161C069002200F0AB
:100CA0000200009011461D20FFF7DAFC1D2031E004
:100CB000C16941F00101C161C069002200F0010079
:100CC000009011461C20FFF7CBFC1C2022E0164AA6
:100CD00091420ED1C16941F00401C161C069002295
:100CE00000F00400009011461E20FFF7B9FC1E2002
:100CF00010E00E4A914211D1C16941F00801C16171
:100D0000C069002200F00800009011463220FFF771
:100D1000A7FC3220BDE80840FFF794BC08BD0000E6
:100D2000001002400004004000080040000C004099
:100D300090F83D10012901D001207047022180F870
:100D40003D100168CA6842F00102CA6000680E499D
:100D500088420ED00D4988420BD0B0F1804F08D0A8
:100D60000B49884205D00B49884202D00A49884283
:100D700004D1816801F00701062903D0016841F020
:100D80000101016000207047002C01400034014047
:100D90000004004000080040000C00400168CA68E0
:100DA00022F00102CA6001680A6A41F211131A4274
:100DB00007D10A6A9B101A4203D10A6822F0010285
:100DC0000A60012180F83D100020704770B504468C
:100DD00090F83C00012817D0012584F83C500220EF
:100DE00084F83D002068826822F0770222F47F4276
:100DF00082600868502830D00DDC20284DD005DCFA
:100E000098B310283BD148E0022070BD302844D070
:100E1000402834D139E0602828D0702806D0B0F5B9
:100E2000805F2CD0B0F5005F29D10AE0CB68D1E912
:100E30000121206800F083FD2068816841F077017E
:100E400009E0CB68D1E90121206800F078FD206835
:100E5000816841F48041816011E0CA684968206876
:100E600000F085FE5021206807E016E0CA68496856
:100E7000206800F08DFE6021206800F06AFD84F893
:100E80003D50002084F83C0070BDCA684968206865
:100E900000F06DFE40212068EFE722680146104611
:100EA000EBE7704770B50446006801694FF0000534
:100EB000C943890715D4C168C943890711D4E91EFC
:100EC000016101202077206880698007204602D0D8
:100ED000FFF7E7FF04E000F005F9204600F01DFAF7
:100EE000257720680169C943490717D4C168C943F8
:100EF000490713D46FF004010161022020772068B4
:100F0000806910F4407F204602D0FFF7CAFF04E05A
:100F100000F0E8F8204600F000FA25772068016923
:100F2000C943090716D4C168C943090712D46FF031
:100F300008010161042020772068C06980072046ED
:100F400002D0FFF7AEFF04E000F0CCF8204600F03E
:100F5000E4F9257720680169C943C90617D4C16837
:100F6000C943C90613D46FF010010161082020772E
:100F70002068C06910F4407F204602D0FFF791FF3F
:100F800004E000F0AFF8204600F0C7F925772068AC
:100F90000169C943C90708D1C168C943C90704D158
:100FA000891E0161204600F013FA20680169C943D7
:100FB000090609D4C168C943090605D46FF0800148
:100FC00001612046FFF7EEFD20680169C94349062B
:100FD00009D4C168C943490605D46FF040010161D5
:100FE000204600F05AFA20680169C94389060BD4EB
:100FF000C168C943890607D46FF02001016120460A
:10100000BDE87040FFF7CFBD70BD000010B586B0E1
:10101000002100910191029103911A4C03681A4931
:1010200002221A48A34219D18B6943F008038B614D
:101030008969039201F0080104912021CDE9001291
:101040006946FFF79FF91248416821F4406141F079
:10105000E06141F40061416006B010BD0D4CA34257
:10106000FAD18B6943F008038B618969039201F01F
:1010700008010491C021CDE900126946FFF782F909
:10108000EAE700000004004000100240000C0140AC
:10109000000001400008004010B5044690F83C00F4
:1010A00001280AD0012084F83C0042B1042A0AD069
:1010B000082A0CD00C2A11D10DE0022010BD2068A6
:1010C00000F050FC0AE0206800F07CFC06E020689C
:1010D00000F0AEFC02E0206800F0DEFC002084F8A6
:1010E0003C0010BD704710B5040003D094F83D00DB
:1010F00010B107E0012010BD002084F83C0020461C
:1011000000F01EF8022084F83D00211D206800F048
:10111000C3FB012084F8460084F83E0084F83F00B9
:1011200084F8400084F8410084F8420084F84300C9
:1011300084F8440084F8450084F83D00002010BD88
:101140007047000010B50446022249B104290ED0B0
:10115000082913D094F84100012816D0012010BDB1
:1011600094F83E000128F9D184F83E200FE094F86D
:101170003F000128F2D184F83F2008E094F84000B5
:101180000128EBD184F8402001E084F841200122BD
:10119000206800F0C7FB13492068134A884201D039
:1011A000904203D1436C43F4004343642068884277
:1011B0000DD090420BD0B0F1804F08D00B4988423F
:1011C00005D00B49884202D00A49884204D181687F
:1011D00001F00701062903D0016841F00101016017
:1011E000002010BD002C01400034014000040040EC
:1011F00000080040000C004070B5044690F83C0028
:101200000D4601280AD0012084F83C0042B1042A8E
:1012100018D0082A2AD00C2A4DD139E0022070BDFE
:10122000206800F09FFB2068816941F0080181611E
:101230002068816921F004018161206881692A693F
:10124000114311E0206800F0BDFB2068816941F482
:10125000006181612068816921F480618161206879
:1012600081692A6941EA0221816124E0206800F055
:10127000DFFB2068C16941F00801C1612068C169D4
:1012800021F00401C1612068C1692A69114311E09C
:10129000206800F001FC2068C16941F40061C1616F
:1012A0002068C16921F48061C1612068C1692A692F
:1012B00041EA0221C161002084F83C0070BD10B5F4
:1012C000040003D094F83D0010B107E0012010BDE8
:1012D000002084F83C00204600F01EF8022084F82C
:1012E0003D00211D206800F0D7FA012084F8460057
:1012F00084F83E0084F83F0084F8400084F8410000
:1013000084F8420084F8430084F8440084F84500DF
:1013100084F83D00002010BD7047704710B50446AA
:10132000022249B104290ED0082913D094F84100B3
:10133000012816D0012010BD94F83E000128F9D1F3
:1013400084F83E200FE094F83F000128F2D184F8A1
:101350003F2008E094F840000128EBD184F84020B9
:1013600001E084F841200122206800F0DBFA1349F3
:101370002068134A884201D0904203D1436C43F461
:1013800000434364206888420DD090420BD0B0F1F6
:10139000804F08D00B49884205D00B49884202D0C3
:1013A0000A49884204D1816801F00701062903D067
:1013B000016841F001010160002010BD002C0140D6
:1013C000003401400004004000080040000C0040D0
:1013D000164910B5CB6900225B1CCB61642B00D190
:1013E000CA61134B984207D1104BCC69743333F860
:1013F0001430104C246863630F4B984213D10F488C
:10140000D0F8A03183B10023C0F8A0310C4C074BB9
:1014100088694833246833F81030A363401C88611E
:10142000122800D18A6110BD0123EDE700000020E1
:101430004C010020DC010020240200200000214299
:101440009401002070B5044690F83C00012812D0A9
:10145000012584F83C50022084F83D00204600F02D
:1014600043FB01004FF0000007D084F83D5084F8A2
:101470003C00012070BD022070BD2168CA6822F0C6
:101480004002CA602168CA6822F48042CA6084F8B7
:101490003D5084F83C00002070BD7047FEE700001E
:1014A0002DE9F04385B00020009001900290039058
:1014B0003C48816941F020018161816901F020018E
:1014C0000491816941F004018161816901F00401A5
:1014D0000491816941F010018161816901F010017D
:1014E0000491816941F0080181618069DFF8B88069
:1014F00000F008004FF480770490002239464046FF
:10150000FFF73CF8DFF8A490002204214846FFF7DB
:1015100035F827480124CDE90040022569460295A7
:101520004046FEF72FFF234E2020CDE900066946F6
:1015300002942148FEF726FFCDE900746946404633
:10154000CDE90245FEF71EFFE003CDE9000669463E
:1015500002944046FEF716FF0420CDE90004032064
:10156000CDE9024069464846FEF70CFF00221146CD
:101570000620FFF775F80620FFF764F80022022125
:101580001720FFF76DF81720FFF75CF80022012104
:101590002820FFF765F82820FFF754F805B0BDE8CC
:1015A000F0830000001002400008014000140140D8
:1015B00000001110000021100010014010B586B08D
:1015C00000241648009401940294039404944FF06C
:1015D0008041059401603F21C0E90114C721C0E9A1
:1015E00003148461FFF71EFB08B1FEF79EFE4FF463
:1015F0008050009069460948FFF7E8FB08B1FEF704
:1016000094FE049404A905480594FFF7CDFA002838
:1016100001D0FEF78AFE06B010BD00004C0100208C
:1016200030B593B000240C940D940E94142107A8A7
:101630000F94FEF70BFE10941C2168461194FEF7E0
:1016400005FE24482249802501603F21C0E901149C
:1016500063218561C0E90314FFF7E4FA08B1FEF7DE
:1016600064FE4FF480500C900CA91A48FFF7AEFBB3
:1016700008B1FEF75AFE1748FFF721FE08B1FEF742
:1016800054FE062007903020089007A91148FFF764
:10169000D9FE08B1FEF749FE1020CDE9100510A9CA
:1016A0000C48FFF781FA08B1FEF73FFE7020CDE944
:1016B000000402940422694606480494FFF79CFD46
:1016C00008B1FEF732FE0348FFF7A0FC13B030BDAF
:1016D000000400409401002010B58EB0002407944F
:1016E000089409940A940B941C2168460C94FEF704
:1016F000ADFD2748254901603F21C0E9011440F2B2
:10170000F311C0E9031480218161FFF78BFA08B15E
:10171000FEF70BFE4FF48050079007A91C48FFF717
:1017200055FB08B1FEF701FE1948FFF7C8FD08B1E7
:10173000FEF7FBFD1648FFF7D6FC08B1FEF7F5FDF6
:101740001020CDE90B040BA91148FFF72DFA08B1C1
:10175000FEF7EBFD6020CDE900040294002269460B
:101760000B480494FFF748FD08B1FEF7DEFD30207A
:101770000090042269460648FFF78EFC08B1FEF788
:10178000D4FD0348FFF742FC0EB010BD0008004036
:10179000DC01002010B586B00024174800940194A5
:1017A00002940394049413490594016041F6FF01E7
:1017B000C0E9011442F20F71C0E903148461FFF71C
:1017C00031FA08B1FEF7B1FD4FF480500090694640
:1017D0000948FFF7FBFA08B1FEF7A7FD049404A936
:1017E00005480594FFF7E0F9002801D0FEF79DFDBC
:1017F00006B010BD000C004024020020FEE7FEE70A
:1018000070477047FEF7C6BE30B58FB028216846D6
:10181000FEF71CFD14210AA8FEF718FD0225012081
:10182000049000951020059000244FF46010CDE93D
:10183000084007956846FFF711F808B172B6FEE751
:101840000F20CDE90A054FF48060CDE90C4002215C
:101850000AA80E94FEF736FF002801D072B6FEE704
:101860000FB030BD704700000148FFF71BBB000000
:101870004C0100200148FFF715BB00009401002037
:101880000148FFF70FBB0000DC0100200148FFF713
:1018900009BB000024020020F0B502681C4B1D4D5E
:1018A0001D4E1E4F1E4C4FF0804C984209D0A04256
:1018B00007D0604505D0A84203D0B04201D0B8425D
:1018C00004D122F0700E4A6842EA0E02984209D012
:1018D000A04207D0604505D0A84203D0B04201D055
:1018E000B84203D122F44075CA682A434D6922F0F8
:1018F00080022A4302608A68C2620A688262984251
:1019000001D0A04201D10969016301214161F0BD0B
:10191000002C01400004004000080040000C004082
:101920000034014010B501F01F030121046A994001
:101930008C430462016A9A401143016210BD10B5E4
:10194000846842EA032224F47F440A4322438260EB
:1019500010BD826822F070020A4342F007018160E4
:1019600070470000F0B5026A22F001020262036AC9
:1019700042688469124E24F073050C682C4323F0EE
:1019800002058B682B430D4DA84201D0B04205D112
:1019900023F00807CB683B4323F00403A84201D09F
:1019A000B04205D14D6922F4407215438A692A4339
:1019B00042608461496841630362F0BD002C0140CC
:1019C00000340140F0B5026A22F010020262026A9D
:1019D000436884690D6824F4E64444EA05248D686C
:1019E00022F0200242EA05120F4D104EA84201D00B
:1019F000B04206D1CF6822F0800242EA071222F0FC
:101A00004002A84201D0B04207D14D6923F440639F
:101A100043EA85038D6943EA85034360846149682D
:101A200081630262F0BD0000002C014000340140DF
:101A3000F0B5026A22F480720262026A4368C469E5
:101A400022F4007224F073050C68124E2C438D684A
:101A500042EA05220E4DA84201D0B04206D1CF681D
:101A600022F4006242EA072222F48062A84201D0F6
:101A7000B04207D14D6923F4405343EA05138D6901
:101A800043EA05134360C4614968C1630262F0BD63
:101A9000002C01400034014030B5026A22F480522B
:101AA0000262046A4268C3690D6823F4E64343EAAC
:101AB00005238D6824F4005444EA0534084DA842F7
:101AC00002D0084DA84204D14D6922F4804242EA76
:101AD00085124260C36149680164046230BD000040
:101AE000002C01400034014010B503689A6822F0D0
:101AF00070044A68224322F007040A6822439A606D
:101B00004A6812F00F0F30D11211082A2DD2DFE8E7
:101B100002F02C2C2C2C0B2127040B69D1E902217B
:101B20000068FFF70CFF20E00A68052A10D0026861
:101B3000136A146A24F00104146202689469096942
:101B400024F0F00444EA01119161006803620CE0A2
:101B5000012010BD0A698968006800F008F804E0F7
:101B60000A698968006800F013F8002010BD10B5FC
:101B7000036A046A24F001040462846924F0F00416
:101B800044EA021423F00A020A438461026210BD8F
:101B900010B5036A23F0100303628369046A23F417
:101BA000704343EA023224F0A00343EA0111826148
:101BB000016210BDFEE70907090E002804DB00F1F1
:101BC000E02080F80014704700F00F0000F1E020E2
:101BD00080F8141D70470000FEF7E4FCFFF714FEC8
:101BE000FFF75EFCFFF778FDFFF71AFDFFF7D2FD68
:101BF000FFF7E4FC04216348FFF7A4FA04216248DC
:101C0000FFF78CFB00215F48FFF788FB5F48FFF779
:101C10008FF85F48FFF78CF85A4E3068416C41F4FA
:101C2000004141643068016841F001010160012711
:101C3000DFF85481574C4FF01F0A4FF063094FF003
:101C40003F0B0025E06870B10128FBD12068012816
:101C500042D002286AD00328F4D125604C48E560C0
:101C6000FFF79CF8EEE72068012809D002281ED073
:101C70000328E7D145482560FFF790F8E760E1E7E2
:101C80004449256060683431326831F8101091623F
:101C9000404B3268203333F81010D16233F8101003
:101CA000401CF16060600A28CCD16560CAE72560FD
:101CB000A06848B10128C5D13748C0F888513348D9
:101CC000FFF76CF8A560BDE73348C0F888712F486E
:101CD000FFF72EF8A760B5E72560206910B96069A5
:101CE000401C606127613168C1F828A03068C0F8E5
:101CF0002C90C6F80C90D8F80030C3F828B0D8F86B
:101D00000020C2F82C90234AC8F80C9061696A320E
:101D1000336832F811209A63D8F8000032228263C7
:101D2000491C616105298DD165618BE725602069BA
:101D3000012802D16069401E606125613168C1F8E7
:101D400028A03168C1F82C90C6F80C90D8F8003063
:101D5000C3F828B0D8F80020C2F82C900D4AC8F873
:101D60000C9060696A32336832F810209A63D8F8B0
:101D7000001032228A63401E6061401C96D104200C
:101D800060615FE7DC010020940100202402002054
:101D90004C010020000000200080224200000000D2
:101DA000000000000102030406070809CC1D00081A
:101DB000000000204C0100006C010008E01E00083B
:101DC0004C01002084070000C8010008415A0104AA
:101DD000411AFF01C11EF301F30110041C3F017CF5
:101DE0000212C714100131123F121F1226120F12D5
:101DF00013120D1A0B061A0C12125A125512501207
:101E00004B12461241123C12371232122D12281276
:101E100023121E12191A142C320A1A14121A3C26F2
:101E200018344006A40608076B07CD072E088C0857
:101E3000E90842099909EC093B0A870ACE0A100B06
:101E40004E0B860BBA0BE70B0F0C310C4D0C630CD1
:101E5000730C7C0C80041A730C1A4D141C0F0CE7C5
:101E6000201A86281C100BCE341C3B0AEC401C4266
:101E700009E94C1C2E08CD5810260807A406400678
:101E8000DB0577051405B2045104F30396033D0303
:101E9000E60293024402F801B1016F013101F91227
:101EA000C5129812701A4EAA1A1CC232031A0308DD
:101EB0001A1C101A4E181A982012F91A312C1EB139
:101EC00001F801443C1CE6023D481808F3035104A4
:101ED000B204145C34DB050182101324F40000000A
:0400000508000131BD
:00000001FF
