:020000040800F2
:100000003004002049010008AB560008CD0E00085E
:10001000795600080D050008CD62000800000000B8
:1000200000000000000000000000000077620008EF
:100030000F050008000000007562000879620008E2
:100040006301000863010008630100086301000800
:1000500063010008630100086301000863010008F0
:1000600063010008630100086301000863010008E0
:1000700063010008630100086301000863010008D0
:1000800063010008630100086301000863010008C0
:1000900063010008630100086301000863010008B0
:1000A00063010008630100086301000863010008A0
:1000B0006301000863010008630100086301000890
:1000C0006301000863010008630100086301000880
:1000D0006301000863010008630100086301000870
:1000E0006301000863010008630100086301000860
:1000F0006301000863010008630100086301000850
:10010000630100086301000863010008630100083F
:10011000630100086301000863010008630100082F
:10012000630100086301000863010008630100081F
:10013000DFF810D000F032F9004800477163000882
:10014000AFF300803004002006488047064800478F
:10015000FEE7FEE7FEE7FEE7FEE7FEE7FEE7FEE777
:10016000FEE7FEE7CB62000831010008202A04DB2D
:10017000203A21FA02F00021704721FA02F3D04020
:10018000C2F120029140084319467047D2B201E003
:1001900000F8012B491EFBD270470022F6E710B58C
:1001A00013460A4604461946FFF7F0FF204610BDE5
:1001B0002DE9FE4F81EA030404F0004421F00041E0
:1001C00000944FF0000B23F0004350EA01045ED08E
:1001D00052EA03045BD0C3F30A54C1F30A552C441A
:1001E000A4F2F3340194A0FB0254C1F3130141F4CF
:1001F0008011C3F3130343F4801301FB024400FB9B
:10020000034E840A970A44EA815447EA8357A4FBC1
:10021000076802958D0A05FB07854FEA932C04FBBE
:100220000C542705029D4FEA065847EA1637B5EBEE
:1002300008056EEB070C870E920E47EA811742EA1B
:100240008312A7FB0201B6EB0B0164EB00042B0D3C
:1002500043EA0C335E1844EB1C50DA465146E7FB88
:100260000201C5F313044FEA0B3343EA14534FEA78
:100270000432019C43EA0603A4F10C040294009C9E
:10028000CDE900B400F03BF803B0BDE8F08F0020EA
:100290000146F9E70EB540F2334102910021CDE964
:1002A00000110A460B4600F02AF803B000BDC1F366
:1002B0000A5210B5C1F3130140F2FF3341F480112B
:1002C0009A4201DA002010BD40F233439A42A2F272
:1002D000334203DC5242FFF749FF10BD904010BD8E
:1002E00010B5141E73F1000408DA401C41F100013E
:1002F00092185B411A4301D120F0010010BD2DE995
:10030000F04D92469B4611B1B1FA81F202E0B0FA8B
:1003100080F22032904600F053F804460F4640EA3F
:100320000A0041EA0B0153465A46084313D01146CE
:1003300053EA010019D0C8F140025046FFF716FFFA
:1003400005460E4650465946424600F039F80843E5
:1003500005D0012004E020463946BDE8F08D00209C
:10036000054346EAE0762C4337430A986305E40ADE
:10037000A0EB08000022FD0A44EA47540A3002D5E7
:1003800000200146E9E7010510196941DDE908454A
:1003900000196941BDE8F04DA2E70000064C074D89
:1003A00006E0E06840F0010394E807009847103445
:1003B000AC42F6D3FFF7C0FE807B0008A07B0008AC
:1003C000202A04DB203A00FA02F100207047914015
:1003D000C2F1200320FA03F3194390407047000054
:1003E0002DE9FC4740F2E934C82005F099FF374D6C
:1003F000374E4FF0180A4FF000094FF0010835A0B2
:10040000CDE900A057461823C82228211E2005F058
:1004100055F834A0CDE900701823C82246211420D5
:1004200005F04CF85FF00107C5F8A081C6F8888197
:10043000384605F083FFC5F8A091C6F88891E01B07
:1004400005F07CFF00F044FD012822D0022820D0D6
:1004500003281ED07F1CA742E6DB2746C5F8A081F3
:10046000C6F88881384605F069FFC5F8A091C6F83E
:100470008891E01B401C05F061FF00F029FD012878
:1004800007D0022805D0032803D07F1E002FE5DC0B
:10049000B5E710A0CDE900A054461823C8222821B2
:1004A0001E2005F00BF814A0CDE900401823C82247
:1004B0004621142005F002F8C5F8A081C6F888810D
:1004C000BDE8FC47C82000F0DDB800000000214274
:1004D000008022424D696E692053544D33324631BB
:1004E0003033000020427265617468204C616D7089
:1004F00020202020200000002042726561746820C6
:100500004C616D70204F666600000000FEE770478A
:100510002DE9FC47642000F0B5F8454D454C4FF0FF
:1005200018084FF00109002643A0CDE90080474696
:100530001823C82228211E2004F0C0FF42A0CDE9C4
:1005400000701823C8224621142004F0B7FFC5F814
:10055000A0614F46C4F88891322000F093F8C5F8A6
:10056000A071C4F88861322000F08CF800F0B0FC73
:1005700001281FD0022801D00328D5D12EA0CDE913
:10058000008046461823C82228211E2004F096FF2A
:1005900032A0CDE900601823C8224621142004F0BF
:1005A0008DFFC5F8A091C4F88891BDE8FC47C8202C
:1005B00000F068B8642000F065F8B9461EA0CDE9E7
:1005C000008047461823C82228211E2004F076FF09
:1005D00027A0CDE900701823C8224621142004F07A
:1005E0006DFFC5F8A091C4F88891322000F04AF858
:1005F00000F06EFC0746322000F044F8012FBDD019
:10060000022FBBD0032FB9D0C5F8A061C4F8886110
:10061000322000F037F800F05BFC0746322000F093
:1006200031F8012FAAD0022FA8D0032FC6D1A5E7F9
:1006300000002142008022424D696E692053544DD2
:10064000333246313033000020486F7273652052D8
:10065000616365204C616D7020000000204C4544B2
:10066000204973204F6666202020202020000000B3
:10067000204C454420466C617368696E67202020D9
:100680002000000070B5044600F014F90546601C17
:1006900002D004480078044400F00CF9401BA0424A
:1006A000FAD370BD080000202DE9F84FDFF8C8919B
:1006B000002409F1040A0AF1040B23460F270BF169
:1006C000040ED1E00125A54006EA0502AA4276D132
:1006D000DFF8A8C14E68A6EB0C0866452BD00DDCF0
:1006E000032E34D005DC36B3012E19D0022E2FD1C3
:1006F0001BE0112E16D0122E2AD119E0B8F5881F52
:1007000019D006DCB8F5803F15D0B8F5801F1FD191
:1007100011E0B8F5001F0ED0B8F5041F18D10AE09B
:10072000CB6815E0CB681B1D12E0CB6808330FE0E7
:10073000CB680C330CE08B682BB1012B4FF0080316
:1007400003D0456104E0042302E0056100E00023DA
:10075000FF2A01D8064601E000F104064FEA8405AD
:1007600001D9A5F12005D6F8008007FA05FC28EA92
:100770000C0803FA05F548EA0508C6F800804D683C
:10078000ED0070D53E4DAE6946F00106AE61AD6933
:1007900024F0030605F0010500953A4D06EB050C23
:1007A000DCF80850A607360F07FA06F825EA080510
:1007B000DFF8D480404503D14FF0000825E052E037
:1007C000DFF8C880404502D14FF001081DE0DFF896
:1007D000C080404502D14FF0020816E0DFF8B48037
:1007E000404502D14FF003080FE0DFF8AC804045F0
:1007F00002D14FF0040808E0DFF8A080404502D1A4
:100800004FF0050801E04FF0060808FA06F848EA3C
:100810000508CCF808804D68D9F80060ED034D4616
:1008200001D5164300E096432E604D68DAF800606B
:10083000AD03554601D5164300E096432E604D6842
:10084000DBF80060ED025D4601D5164300E09643FB
:100850002E604D68DEF80060AD02754601D5164386
:1008600000E096432E60641C0A681646E2407FF45E
:1008700029AFBDE8F88F000000040140000011100E
:10088000001002400000014000080140000C01403F
:10089000001001400014014000180140001C0140FC
:1008A0008068084000D0012070470AB1016170479C
:1008B0000904FBE701488068704700000800002039
:1008C0000248816802781144816070470800002066
:1008D000074810B5016841F010010160032000F0E5
:1008E00067F8002000F006F800F024F8002010BDA2
:1008F0000020024070B50D4D04464FF47A712878FF
:10090000B1FBF0F00A490968B1FBF0F000F0CAFA57
:1009100048B9102C07D200222146501E00F028F8BA
:1009200000206C6070BD012070BD00000800002038
:10093000140000200C4808B5816941F00101816173
:10094000816901F001010091C16941F08051C161EB
:10095000C06900F0805000900448416821F0E061D7
:1009600041F00071416008BD0010024000000140EC
:10097000F0B40E4B1B680C46C3F30223C3F107050A
:10098000042D00D90425191D072901D2002300E0F8
:10099000DB1E012606FA05F1491E214099409E40C2
:1009A000761E16403143F0BC05F091BC0CED00E022
:1009B000064900F0070208684FF6FF03184040EAB6
:1009C0000220034A10430860704700000CED00E06D
:1009D0000000FA052DE9F0470F46050061D0434EAF
:1009E000306800F00700B84209D2306820F00700F4
:1009F00038433060306800F00700B84251D12868B1
:100A00003B4C810712D5400703D5606840F4E06095
:100A100060602878000703D5606840F4605060602B
:100A20006068A96820F0F000084360602878C0077B
:100A300028D06868012810D02168022810D08907C2
:100A400000292EDA616821F0030101436160FFF79C
:100A500031FF804641F288390DE021688903EFE7D4
:100A60008901EDE7FFF726FFA0EB0801494502D910
:100A70000320BDE8F0876068696800F00C00B0EB07
:100A8000810FEFD1306800F00700B8420BD9306811
:100A900020F0070038433060306800F00700B842AB
:100AA00001D00120E5E72878400705D56068E968AE
:100AB00020F4E060084360602878000706D560688D
:100AC000296920F4605040EAC100606000F018F825
:100AD0006168084AC1F30311515CC84006490860C7
:100AE00006480068FFF706FF0020C2E7002002402A
:100AF00000100240B0630008140000200C00002029
:100B000012A185B00FC98DE80F0014A0144A006827
:100B100004905168134801F00C03042B10D0082BEB
:100B20000ED1C1F38343C9031DF803000AD55168F0
:100B300004AAC1F34041515C0A4A5043B0FBF1F0B2
:100B400005B0704708494843FAE70000020304056E
:100B5000060708090A0B0C0D0E0F10100102000009
:100B60000010024000127A0000093D002DE9F84F04
:100B7000040070D02078C04DC00749D06868C0F329
:100B80008100012807D06868C0F38100022809D1DC
:100B90006868C00306D52868800339D560680028D6
:100BA000E7D035E06068B0F5803F0BD010B1B0F50C
:100BB000A02F11D0286820F480302860286820F405
:100BC000802002E0286840F480302860606890B19E
:100BD000FFF770FE06460AE0286840F4802028608F
:100BE000F0E700BFFFF766FE801B642873D8286813
:100BF0008003F7D50CE0FFF75DFE064605E000BF79
:100C0000FFF758FE801B6428F0D828688003F7D4CB
:100C100020789A4E80074FF001094FF0000839D52F
:100C2000686810F00C0F07D06868C0F381000228D4
:100C300009D16868C00306D42868800714D52069E4
:100C4000012808D110E02069B0B1C6F80090FFF784
:100C500031FE074605E00AE1FFF72CFEC01B022823
:100C6000C4D828688007F7D52868616920F0F800A3
:100C700040EAC10028600DE0C6F80080FFF71AFEC8
:100C8000074604E0FFF716FEC01B022823D8286899
:100C90008007F7D4207800072CD57948A169D9B10D
:100CA000C0F80090FFF706FE074604E0FFF702FEDB
:100CB000C01B02280FD8686A8007F7D571484FF427
:100CC000FA510068B0FBF1F0009000BF0098411E9F
:100CD0000091FAD20EE080E0C0F80080FFF7EAFD54
:100CE000074604E0FFF7E6FDC01B022875D8686AD6
:100CF0008007F7D42078400760D5E8690027C00056
:100D000008D4E86940F08050E861E869012700F004
:100D1000805000905C480168C90513D4016883467F
:100D200041F480710160FFF7C5FD824606E000BF17
:100D3000FFF7C0FDA0EB0A0064284ED8DBF80000E6
:100D4000C005F5D5E06801280AD008B1052813D000
:100D5000286A20F001002862286A20F0040002E0DE
:100D6000286A40F001002862E06841F2883B98B1AF
:100D7000FFF7A0FD82460BE0286A40F004002862DD
:100D8000EEE700BFFFF796FDA0EB0A0159455AD8E0
:100D9000286A8007F6D50CE0FFF78CFD824605E057
:100DA000FFF788FDA0EB0A0159454CD8286A800757
:100DB000F6D41FB1E86920F08050E861E06988B39B
:100DC0006968C1F38101022944D00228C6F8608015
:100DD00004D0FFF76FFD044638E034E0FFF76AFD0A
:100DE000074604E0FFF766FDC01B02282BD82868E1
:100DF0008001F7D4206AB0F5803F05D16868A1680A
:100E000020F4003008436860D4E9080108436968A9
:100E100021F4741108436860C6F86090FFF74AFD3A
:100E2000044606E025E000BFFFF744FD001B022852
:100E300009D828688001F7D51BE000BFFFF73AFD0D
:100E4000001B022802D90320BDE8F88F2868800122
:100E5000F4D40EE00128F7D06868226A00F48031EB
:100E6000914204D1616A00F47010884201D00120DF
:100E7000EAE70020E8E700000010024000004242DC
:100E80008004424214000020007000404FF0E02136
:100E90000428086903D020F004000861704740F07E
:100EA0000400FAE710B5401EB0F1807F01D30120A5
:100EB00010BD4FF0E02460610F21601705F007FAC4
:100EC0000020A06107202061002010BDFEE7000087
:100ED0002DE9F041244D254E254C28684FF400475C
:100EE00078B120213046FFF7DBFC88B13946204637
:100EF000FFF7D6FC60B101212046FFF7D1FC0128A5
:100F000006D020213046FFF7CBFC01281DD029E078
:100F10000120FFF7B7FB0020286020213046FFF7B3
:100F2000BFFC58B139462046FFF7BAFC48B1012151
:100F30002046FFF7B5FC012805D013E00120BDE8ED
:100F4000F0810220FBE70320F9E739462046FFF74E
:100F5000A7FC012806D101212046FFF7A1FC08B912
:100F6000012028600020EAE7000000200010014076
:100F7000000801402DE9F0431B4C814600252088E4
:100F800066884643A088A0F5D041043902D1A079F3
:100F900001280CD00021084604F080F804F0DCFAA7
:100FA00012484FF480734115114C802218E0002044
:100FB000A0712A2767814FF02B08A4F80C80014606
:100FC00004F06CF80120A071A4F80A80A781E5E77D
:100FD00003614161C4F800904261026101616D1CCE
:100FE000B542F5D3BDE8F0831C000020001001409D
:100FF0000C0C01402DE9F04F4A492A242B25898801
:1010000045F2105A4FF4305B4FF4285E4FF44876A7
:101010004FF0F00C49F241394FF4A07345F210370C
:101020004FF4F07280B13F484FF00108494580F815
:1010300006800380A0F802C001D0B9423ED12C2620
:1010400006814481858157E036484FF000084945C4
:1010500080F80680A0F800C0438006D0A1F5D04CEF
:10106000BCF1040C01D0B9420CD12C26068144817C
:10107000A1F5D0448581043C01D0B94244D103801C
:10108000428041E0514507D1A0F808B0A0F80AE03D
:101090004FF42C5181810EE0A1F5C853633B06D07B
:1010A0002221018120214181212181812CE02C21DB
:1010B0000181458184810280468025E0A1F5D04CE4
:1010C000BCF1040C09D051450BD1A0F808B0A0F830
:1010D0000AE04FF42C54848121E02C2606814581BE
:1010E00009E0A1F5C85CBCF1630C12D02224048194
:1010F0002124448120248481A1F5D044043C01D0E2
:10110000B94201D102804380BDE8F04F002003F0D6
:101110001DBE4FF02C0CA0F808C0448185810680CC
:101120004280E9E71C0000202DE9FE4F161ACDE9A8
:1011300000104FF000085D1A47464FF0FF30002EB8
:1011400002DD4FF0010102E003D14FF000018B46B8
:1011500002E08346C6F10006002D02DD4FF00100DB
:1011600002E003D14FF00000824602E08246C5F162
:101170000005AE4201DD344600E02C46601C4FF015
:101180000009029018E0009881B2019880B200F046
:1011900019F8B0442F44A04504DD0198A8EB0408D9
:1011A00058440190A74203DD00983F1B5044009033
:1011B00009F101001FFA80F902998945E3DDBDE8D4
:1011C000FE8F000000B503F069FF04F0C5F9074881
:1011D0004FF48071016141154161054A054B128848
:1011E0001A60802242610261016100BD001001406D
:1011F000180000200C0C01402DE9F74F07468F48DE
:1012000081B0DFF83CA2818802983E0A00F0FF0915
:101210004FEA1028F8B200908848A1F513434FF424
:10122000807B42894FF40074413B18D00546A1F5FC
:10123000A640103813D0A1F5AA40103833D0284664
:10124000A1F5C85683790088C01B401E633E5ED05E
:10125000A1F5D046043E7CD0012B7BD0CEE01046D9
:1012600004F068F9774DC5F810B06C615746CAF8BC
:10127000006080266E612E612C61C5F810B06C6133
:101280000098CAF800006E612E612C616B4880895D
:1012900004F050F9C5F810B06C61C7F800806E61B9
:1012A0002E612C612DE0104604F044F9654DC5F81F
:1012B00010B06C615746CAF8006080266E612E61DE
:1012C0002C615E484089401C80B204F033F9C5F8B7
:1012D00010B06C61009838606E612E612C615748C7
:1012E000808904F027F9C5F810B06C61C7F8008058
:1012F0006E612E612C6151488089401C80B204F0DF
:1013000019F9C5F810B06C61C7F8009071E003B925
:1013100087B2104604F00EF94A4DC5F810B06C6162
:10132000380ACAF8000080266E612E612C61C5F86B
:1013300010B06C61F9B2CAF800106E612E612C61B8
:10134000C5F810B06C61CAF800006E612E612C61A6
:1013500001E022E051E0C5F810B06C61CAF800105D
:101360006E612E612C613548808904F0E3F8C5F880
:1013700010B06C615146CAF800806E612E612C611C
:10138000C5F810B06C61CAF800906E612E612C61D6
:10139000C5F810B06C61404622E0012B00D187B245
:1013A000104604F0C7F8274DC5F810B06C61390A33
:1013B000CAF8001080266E612E612C61C5F810B04D
:1013C0006C61F9B2CAF800106E612E612C611B4885
:1013D000808904F0AFF8C5F810B06C614046514602
:1013E00008606E612E612C61C5F810B06C61C1F8A7
:1013F00000906E612E612C6108E087B2394610467C
:1014000004F0B0F8A889029904F0ACF80D48C0F8CF
:1014100014B0446109490989CAF80010802141616A
:1014200001610461C0F810B04461039ACAF8002059
:10143000416101610461BDE8FF8F00001C000020D4
:101440000C0C0140001001402DE9F04FFE4887B020
:101450008069FD4940F008008861886900F0080053
:101460000090886940F01000886188694FF0010A97
:1014700000F0100000904FF4F860CDE9020A03205C
:10148000CDE904A002A9F148FFF70EF94FF6FF706D
:10149000029002A9EE48FFF707F9EE48416821F0F3
:1014A000E06141F080614160322004F039FF0121A8
:1014B000002004F057F8322004F032FF002003F03F
:1014C000EFFBE54D4FF4807449F24138A88046F6B1
:1014D000040945F2103B45F21057FF2806D3A0F54A
:1014E0007F41FF3902D0B0F5134F6DD1D32004F006
:1014F00021F803F09DFB03F09BFB03F099FB4FF6F3
:10150000FF7606EA0020A88003F092FBA988084332
:10151000A880404558D0BF2004F00CF803F088FBA9
:1015200003F086FB03F084FB03F082FB06EA002055
:10153000A88003F07DFBA9880843A880484543D0D4
:10154000D42003F0F7FF03F073FB03F071FB03F00B
:101550006FFB06EA0020A88003F06AFBA988084315
:10156000A880584530D04FF45A4003F0E3FF03F011
:101570005FFB4FF45B4003F0DDFF03F059FB06EA2D
:101580000020A8804FF45C4003F0D4FF03F050FB30
:10159000A9880843A880B0F5004F7DD0B84213D089
:1015A000A12003F0C7FF03F043FBA88003F040FB3A
:1015B00006EA0020A88003F03BFBA9880843A0F5B9
:1015C000AE41A880613968D080B2404566D1CF2055
:1015D00003F0B0FF002003F09BFFC12003F098FF51
:1015E000302003F095FFED2003F0A4FF642003F00A
:1015F0008FFF032003F08CFF122003F089FF81206E
:1016000003F086FFE82003F095FF852003F080FFBC
:10161000102003F07DFF7A2003F07AFFCB2003F047
:1016200089FF392003F074FF2C2003F071FF0020A4
:1016300003F06EFF342003F06BFF022003F068FF1D
:10164000F72003F077FF202003F062FFEA2003F089
:1016500071FF002003F05CFF002003F059FFC02061
:1016600003F068FF1B2003F053FFC12003F062FF6B
:10167000012003F04DFFC52003F05CFF302003F094
:1016800047FF302003F044FFC72003F053FFB7208B
:1016900003F03EFF362002E0B1E0ABE0B2E003F041
:1016A00049FF482003F034FF3A2003F043FF552060
:1016B00003F02EFFB12003F03DFF002003F028FFD0
:1016C0001A2003F025FFB62003F034FF0A2003F0B0
:1016D0001FFFA22003F01CFFF22003F02BFF0020CD
:1016E00003F016FF262003F025FF012003F010FF72
:1016F000E02003F01FFF0F2003F00AFF2A2003F071
:1017000007FF282003F004FF082003F001FF0E204C
:1017100003F0FEFE082003F0FBFE542003F0F8FE69
:10172000A92003F0F5FE432003F0F2FE0A2003F0A7
:10173000EFFE0F2003F0ECFE002003F0E9FE002096
:1017400003F0E6FE002003F0E3FE002003F0E0FEDD
:10175000E12003F0EFFE002003F0DAFE152003F095
:10176000D7FE172003F0D4FE072003F0D1FE11208E
:1017700003F0CEFE062003F0CBFE2B2003F0C8FEC4
:10178000562003F0C5FE3C2003F0C2FE052003F006
:10179000BFFE102003F0BCFE0F2003F0B9FE3F2077
:1017A00003F0B6FE3F2003F0B3FE0F2003F0B0FEBF
:1017B0002B2003F0BFFE002003F0AAFE002003F060
:1017C000A7FE012003F0A4FE3F2003F0A1FE2A2083
:1017D00003F0B0FE002003F09BFE002003F098FE13
:1017E000002003F095FEEF2003F092FE112003F09D
:1017F000A1FEB8E041F66310A88003F08CB8AF807A
:1018000001F035B848457DD1112003F093FE142036
:1018100004F086FDD02003F08DFE072003F078FE53
:10182000422003F075FE1D2003F072FED12003F06C
:1018300081FE002003F06CFE1A2003F069FE0920EF
:1018400003F066FED22009E00010024000100140C3
:10185000000C0140000001401C00002003F06AFE63
:10186000012003F055FE222003F052FEC02003F0B9
:1018700061FE102003F04CFE3B2003F049FE0020E7
:1018800003F046FE022003F043FE112003F040FE69
:10189000C52003F04FFE032003F03AFEC82003F0FA
:1018A00049FE002003F034FE252003F031FE212004
:1018B00003F02EFE052003F02BFE002003F028FE8F
:1018C0000A2003F025FE652003F022FE252003F008
:1018D0001FFE772003F01CFE502003F019FE0F209E
:1018E00003F016FE002003F013FEF82003F022FEA2
:1018F000012003F00DFEFE2003F01CFE002003F08B
:1019000007FE00E035E0022003F002FE202003F095
:1019100011FE362003F00EFE082003F0F9FD3A20F8
:1019200003F008FE552003F0F3FD2B2003F002FE28
:10193000002003F0EDFD002003F0EAFD012003F09C
:10194000E7FD3F2003F0E4FD2A2003F0F3FD002033
:1019500003F0DEFD002003F0DBFD012003F0D8FDE5
:10196000DF2003F0D5FD782004F0DAFC292001F017
:10197000FBBE58457ED1ED2003F0DCFD012003F0D5
:10198000C7FDFE2003F0C4FDEE2003F0D3FDDE20F2
:1019900003F0BEFD212003F0BBFDF12003F0CAFDE2
:1019A000012003F0B5FDDF2003F0C4FD102003F09B
:1019B000AFFDC42003F0BEFD8F2003F0A9FDC620BB
:1019C00003F0B8FD002003F0A3FDE22003F0A0FD2A
:1019D000E22003F09DFDE22003F09AFDBF2003F01A
:1019E000A9FDAA2003F094FDB02003F0A3FD0D2073
:1019F00003F08EFD002003F08BFD0D2003F088FD29
:101A0000002003F085FD112003F082FD002003F08B
:101A10007FFD192003F07CFD002003F079FD2120DB
:101A200003F076FD002003F073FD2D2003F070FD20
:101A3000002003F06DFD3D2003F06AFD002003F05F
:101A400067FD5D2003F064FD002003F061FD5D2073
:101A500003F05EFD002003F05BFDB12003F06AFDA2
:101A6000802003F055FD002003F052FD8B2003F091
:101A70004FFD00E0FDE3002003F04AFD962003F057
:101A800047FD002003F044FDB22003F053FD002089
:101A900003F03EFD002003F03BFD022003F038FD83
:101AA000002003F035FD032003F032FD002003F099
:101AB0002FFDB32003F03EFD002003F029FD0020A0
:101AC00003F026FD002003F023FD002003F020FD9D
:101AD000002003F01DFD002003F01AFD002003F09C
:101AE00017FD002003F014FD002003F011FD00207D
:101AF00003F00EFD002003F00BFD002003F008FDB5
:101B0000002003F005FD002003F002FD002003F09B
:101B1000FFFC002003F0FCFC002003F0F9FC002097
:101B200003F0F6FC002003F0F3FC002003F0F0FCCF
:101B3000002003F0EDFC002003F0EAFC002003F09D
:101B4000E7FC002003F0E4FCB42003F0F3FC8B205E
:101B500003F0DEFC002003F0DBFC962003F0D8FC51
:101B6000002003F0D5FCA12003F0D2FC002003F0FC
:101B7000CFFCB52003F0DEFC022003F0C9FC0020FE
:101B800003F0C6FC032003F0C3FC002003F0C0FCFC
:101B9000042003F0BDFC002003F0BAFCB62003F0E3
:101BA000C9FC002003F0B4FC002003F0B1FCB72016
:101BB00003F0C0FC002003F0ABFC002003F0A8FC05
:101BC0003F2003F0A5FC002003F0A2FC5E2003F000
:101BD0009FFC002003F09CFC642003F099FC002093
:101BE00003F096FC8C2003F093FC002003F090FCA3
:101BF000AC2003F08DFC002003F08AFCDC2003F015
:101C000087FC002003F084FC702003F081FC00209E
:101C100003F07EFC902003F07BFC002003F078FCB6
:101C2000EB2003F075FC002003F072FCDC2003F0D5
:101C30006FFC002003F06CFCB82003F07BFC00205C
:101C400003F066FC002003F063FC002003F060FC5E
:101C5000002003F05DFC002003F05AFC002003F09C
:101C600057FC002003F054FC002003F051FCBA2084
:101C700003F060FC242003F04BFC002003F048FC40
:101C8000002003F045FC002003F042FCC12003F0DB
:101C900051FC202003F03CFC002003F039FC5420D0
:101CA00003F036FC002003F033FCFF2003F030FC8F
:101CB000002003F02DFCC22003F03CFC0A2003F0BE
:101CC00027FC002003F024FC042003F021FC00206A
:101CD00003F01EFCC32003F02DFC3C2003F018FC95
:101CE000002003F015FC3A2003F012FC002003F062
:101CF0000FFC392003F00CFC002003F009FC372016
:101D000003F006FC002003F003FC3C2003F000FC81
:101D1000002003F0FDFB362003F0FAFB002003F067
:101D2000F7FB322003F0F4FB002003F0F1FB2F203F
:101D300003F0EEFB002003F0EBFB2C2003F0E8FBAC
:101D4000002003F0E5FB292003F0E2FB002003F074
:101D5000DFFB262003F0DCFB002003F0D9FB24206E
:101D600003F0D6FB002003F0D3FB242003F0D0FBCC
:101D7000002003F0CDFB232003F0CAFB002003F07A
:101D8000C7FB3C2003F0C4FB002003F0C1FB36205E
:101D900003F0BEFB002003F0BBFB322003F0B8FBD6
:101DA000002003F0B5FB2F2003F0B2FB002003F06E
:101DB000AFFB2C2003F0ACFB002003F0A9FB292093
:101DC00003F0A6FB002003F0A3FB262003F0A0FBFA
:101DD000002003F09DFB242003F09AFB002003F079
:101DE00097FB242003F094FB002003F091FB2320B9
:101DF00003F08EFB002003F08BFBC42003F09AFB62
:101E0000622003F085FB002003F082FB052003F035
:101E10007FFB002003F07CFB842003F079FB002093
:101E200003F076FBF02003F073FB002003F070FB5F
:101E3000182003F06DFB002003F06AFBA42003F0E0
:101E400067FB002003F064FB182003F061FB002017
:101E500003F05EFB502003F05BFB002003F058FB17
:101E60000C2003F055FB002003F052FB172003F079
:101E70004FFB002003F04CFB952003F049FB0020B2
:101E800003F046FBF32003F043FB002003F040FB8C
:101E9000E62003F03DFB002003F03AFBC52003F0F1
:101EA00049FB322003F034FB002003F031FB4420D7
:101EB00003F02EFB002003F02BFB652003F028FB32
:101EC000002003F025FB762003F022FB002003F026
:101ED0001FFB882003F01CFB002003F019FBC62029
:101EE00003F028FB202003F013FB002003F010FB7D
:101EF000172003F00DFB002003F00AFB012003F084
:101F000007FB002003F004FBC72003F013FB0020B5
:101F100003F0FEFA002003F0FBFA002003F0F8FAC9
:101F2000002003F0F5FAC82003F004FB002003F0C2
:101F3000EFFA002003F0ECFA002003F0E9FA0020A9
:101F400003F0E6FAC92003F0F5FA002003F0E0FA06
:101F5000002003F0DDFA002003F0DAFA002003F09D
:101F6000D7FA002003F0D4FA002003F0D1FA0020C1
:101F700003F0CEFA002003F0CBFA002003F0C8FAF9
:101F8000002003F0C5FA002003F0C2FA002003F09D
:101F9000BFFA002003F0BCFA002003F0B9FA0020D9
:101FA00003F0B6FA002003F0B3FAE02003F0C2FA1F
:101FB000162003F0ADFA002003F0AAFA1C2003F06B
:101FC000A7FA002003F0A4FA212003F0A1FA0020D0
:101FD00003F09EFA362003F09BFA002003F098FAF3
:101FE000462003F095FA002003F092FA522003F005
:101FF0008FFA002003F08CFA642003F089FA0020A5
:1020000003F086FA7A2003F083FA002003F080FAC6
:102010008B2003F07DFA002003F07AFA992003F078
:1020200077FA002003F074FAA82003F071FA002078
:1020300003F06EFAB92003F06BFA002003F068FA9F
:10204000C42003F065FA002003F062FACA2003F00E
:102050005FFA002003F05CFAD22003F059FA002066
:1020600003F056FAD92003F053FA002003F050FA97
:10207000E02003F04DFA002003F04AFAF32003F0C9
:1020800047FA002003F044FAE12003F053FA162047
:1020900003F03EFA002003F03BFA1C2003F038FA6C
:1020A000002003F035FA222003F032FA002003F07A
:1020B0002FFA362003F02CFA002003F029FA4520ED
:1020C00003F026FA002003F023FA522003F020FA4E
:1020D000002003F01DFA642003F01AFA002003F038
:1020E00017FA7A2003F014FA002003F011FA8B207B
:1020F00003F00EFA002003F00BFA992003F008FA1F
:10210000002003F005FAA82003F002FA002003F0F3
:10211000FFF9B92003F0FCF9002003F0F9F9C4201D
:1021200003F0F6F9002003F0F3F9CA2003F0F0F908
:10213000002003F0EDF9D22003F0EAF9002003F0CB
:10214000E7F9D82003F0E4F9002003F0E1F9E020FA
:1021500003F0DEF9002003F0DBF9F32003F0D8F9F7
:10216000002003F0D5F9E22003F0E4F9052003F0A4
:10217000CFF9002003F0CCF90B2003F0C9F90020BF
:1021800003F0C6F91B2003F0C3F9002003F0C0F9E7
:10219000342003F0BDF9002003F0BAF9442003F025
:1021A000B7F9002003F0B4F94F2003F0B1F9002093
:1021B00003F0AEF9612003F0ABF9002003F0A8F9B9
:1021C000792003F0A5F9002003F0A2F9882003F09C
:1021D0009FF9002003F09CF9972003F099F9002063
:1021E00003F096F9A62003F093F9002003F090F98C
:1021F000B72003F08DF9002003F08AF9C22003F024
:1022000087F9002003F084F9C72003F081F900204A
:1022100003F07EF9D12003F07BF9002003F078F978
:10222000D62003F075F9002003F072F9DD2003F0E9
:102230006FF9002003F06CF9F32003F069F9002036
:1022400003F066F9E32003F075F9052003F060F967
:10225000002003F05DF90A2003F05AF9002003F092
:1022600057F91C2003F054F9002003F051F93320F2
:1022700000E0FAE203F04CF9002003F049F94420B1
:1022800003F046F9002003F043F9502003F040F931
:10229000002003F03DF9622003F03AF9002003F03A
:1022A00037F9782003F034F9002003F031F9882061
:1022B00003F02EF9002003F02BF9972003F028F902
:1022C000002003F025F9A62003F022F9002003F0F6
:1022D0001FF9B72003F01CF9002003F019F9C22000
:1022E00003F016F9002003F013F9C72003F010F9EA
:1022F000002003F00DF9D12003F00AF9002003F0CB
:1023000007F9D52003F004F9002003F001F9DD20DE
:1023100003F0FEF8002003F0FBF8F32003F0F8F8D8
:10232000002003F0F5F8E42003F004F9012003F0A5
:10233000EFF8002003F0ECF8012003F0E9F80020AA
:1023400003F0E6F8022003F0E3F8002003F0E0F8E1
:102350002A2003F0DDF8002003F0DAF83C2003F037
:10236000D7F8002003F0D4F84B2003F0D1F8002078
:1023700003F0CEF85D2003F0CBF8002003F0C8F89E
:10238000742003F0C5F8002003F0C2F8842003F0A5
:10239000BFF8002003F0BCF8932003F0B9F8002048
:1023A00003F0B6F8A22003F0B3F8002003F0B0F871
:1023B000B32003F0ADF8002003F0AAF8BE2003F02C
:1023C000A7F8002003F0A4F8C42003F0A1F800202F
:1023D00003F09EF8CD2003F09BF8002003F098F85E
:1023E000D32003F095F8002003F092F8DD2003F0ED
:1023F0008FF8002003F08CF8F32003F089F8002018
:1024000003F086F8E52003F095F8002003F080F84B
:10241000002003F07DF8002003F07AF8002003F09C
:1024200077F8022003F074F8002003F071F82920F7
:1024300003F06EF8002003F06BF83C2003F068F81E
:10244000002003F065F84B2003F062F8002003F051
:102450005FF85D2003F05CF8002003F059F8742069
:1024600003F056F8002003F053F8842003F050F8EE
:10247000002003F04DF8932003F04AF8002003F009
:1024800047F8A22003F044F8002003F041F8B320FD
:1024900003F03EF8002003F03BF8BE2003F038F8CC
:1024A000002003F035F8C42003F032F8002003F0D8
:1024B0002FF8CD2003F02CF8002003F029F8D320CA
:1024C00003F026F8002003F023F8DC2003F020F8C6
:1024D000002003F01DF8F32003F01AF8002003F0A9
:1024E00017F8E62003F026F8112003F011F8002079
:1024F00003F00EF8342003F00BF8002003F008F886
:10250000562003F005F8002003F002F8762002F0D0
:10251000FFFF002002F0FCFF772002F0F9FF00200F
:1025200002F0F6FF662002F0F3FF002002F0F0FF59
:10253000882002F0EDFF002002F0EAFF992002F06F
:10254000E7FF002002F0E4FFBB2002F0E1FF0020E3
:1025500002F0DEFF992002F0DBFF002002F0D8FF3E
:10256000662002F0D5FF002002F0D2FF552002F0D5
:10257000CFFF002002F0CCFF552002F0C9FF002061
:1025800002F0C6FF452002F0C3FF002002F0C0FFAA
:10259000432002F0BDFF002002F0BAFF442002F009
:1025A000B7FF002002F0B4FFE72002F0C3FF3220A3
:1025B00002F0AEFF002002F0ABFF552002F0A8FFB2
:1025C000002002F0A5FF762002F0A2FF002002F01A
:1025D0009FFF662002F09CFF002002F099FF672019
:1025E00002F096FF002002F093FF672002F090FFB8
:1025F000002002F08DFF872002F08AFF002002F009
:1026000087FF992002F084FF002002F081FFBB20A9
:1026100002F07EFF002002F07BFF992002F078FF9D
:10262000002002F075FF772002F072FF002002F018
:102630006FFF442002F06CFF002002F069FF56207B
:1026400002F066FF002002F063FF232002F060FF2B
:10265000002002F05DFF332002F05AFF002002F05C
:1026600057FF452002F054FF002002F051FFE82000
:1026700002F060FF002002F04BFF002002F048FF54
:10268000992002F045FF002002F042FF872002F06F
:102690003FFF002002F03CFF882002F039FF0020BD
:1026A00002F036FF772002F033FF002002F030FF07
:1026B000662002F02DFF002002F02AFF882002F0A1
:1026C00027FF002002F024FFAA2002F021FF0020B3
:1026D00002F01EFFBB2002F01BFF002002F018FFDB
:1026E000992002F015FF002002F012FF662002F090
:1026F0000FFF002002F00CFF552002F009FF002020
:1027000002F006FF552002F003FF002002F000FF58
:10271000442002F0FDFE002002F0FAFE442002F008
:10272000F7FE002002F0F4FE552002F0F1FE00203A
:1027300002F0EEFEE92002F0FDFEAA2002F0E8FE23
:10274000002002F0E5FE002002F0E2FE002002F090
:10275000DFFE002002F0EEFEAA2002F0D9FECF201C
:1027600002F0E8FE002002F0D3FE002002F0D0FECE
:10277000002002F0CDFE002002F0CAFE002002F090
:10278000C7FE002002F0C4FE002002F0C1FE0020BF
:1027900002F0BEFE002002F0BBFE002002F0B8FEF8
:1027A000002002F0B5FE002002F0B2FE002002F090
:1027B000AFFE002002F0ACFE002002F0A9FE0020D7
:1027C00002F0A6FE002002F0A3FEF02002F0B2FE0E
:1027D000002002F09DFE502002F09AFE002002F040
:1027E00097FE002002F094FE002002F091FEF320FC
:1027F00002F0A0FE002002F08BFEF92002F09AFE0B
:10280000062002F085FE102002F082FE292002F050
:102810007FFE002002F07CFE3A2002F08BFE552065
:1028200002F076FE112002F085FE642003F078FDB0
:10283000292002F07FFE352002F07CFE002002F00D
:1028400067FE512002F076FEFF2002F061FE532069
:1028500002F070FE2C2002F05BFE552002F06AFEB2
:10286000822002F055FE2C20FDE3B8427DD14FF4CA
:1028700070445521204602F075FE651CAA212846A9
:1028800002F070FEA61C5221304602F06BFEE71CDF
:102890000821384602F066FE4FF204080121404646
:1028A00002F060FE0D214FF4304002F05BFE0D217E
:1028B0004BF2010002F056FE0D214BF2020002F035
:1028C00051FE4FF436493421484602F04BFE342184
:1028D0004BF2016002F046FE34214BF2026002F03E
:1028E00041FE4FF4314B0D21584602F03BFE0D21C5
:1028F0004BF2011002F036FE0D214BF2021002F0F5
:1029000031FE34214FF4374002F02CFE34214BF2DB
:10291000017002F027FE34214BF2027002F022FE19
:1029200000214FF4324002F01DFE00214BF2012045
:1029300002F018FE00214BF2022002F013FE2421C7
:102940004FF4384002F00EFE24214BF6010002F055
:1029500009FE24214BF6020002F004FE01214FF48F
:102960003F4002F0FFFD0F2100E0FDE34FF4334054
:1029700002F0F8FD0F214BF2013002F0F3FD0F21C0
:102980004BF2023002F0EEFD34214FF4394002F0F8
:10299000E9FD34214BF6011002F0E4FD34214BF641
:1029A000021002F0DFFD08214FF4354002F0DAFD9D
:1029B00008214BF2015002F0D5FD08214BF20250E4
:1029C00002F0D0FD03214FF4424002F0CBFD242160
:1029D0004FF43A4002F0C6FD24214BF6012002F0EC
:1029E000C1FD24214BF6022002F0BCFD00214FF472
:1029F0003C4002F0B7FD78214BF6014002F0B2FDF9
:102A000000214BF6024002F0ADFD00214FF43D40A5
:102A100002F0A8FD78214BF6015002F0A3FD002141
:102A20004BF6025002F09EFD00214FF43E4002F0B2
:102A300099FD64214BF6016002F094FD00214FF4F2
:102A4000514002F08FFD33214DF2011002F08AFD5A
:102A500000214DF2021002F085FD34214DF20310E9
:102A600002F080FD00214DF2041002F07BFD3A21BE
:102A70004DF2051002F076FD00214DF2061002F035
:102A800071FD4A214DF2071002F06CFD00214DF25C
:102A9000081002F067FD5C214DF2091002F062FDA2
:102AA00000214DF20A1002F05DFD81214DF20B1064
:102AB00002F058FD00214DF20C1002F053FDA6214A
:102AC0004DF20D1002F04EFD00214DF20E1002F0FD
:102AD00049FDE5214DF20F1002F044FD01214DF2B8
:102AE000101002F03FFD13214DF2111002F03AFDDB
:102AF00001214DF2121002F035FD54214DF2131058
:102B000002F030FD01214DF2141002F02BFD822164
:102B10004DF2151002F026FD01214DF2161002F0C3
:102B200021FDCA214DF2171002F01CFD02214DF2C9
:102B3000181002F017FD00214DF2191002F012FDDD
:102B400002214DF21A1002F00DFD01214DF21B1071
:102B500002F008FD02214DF21C1002F003FD3421A9
:102B60004DF21D1002F0FEFC02214DF21E1002F08B
:102B7000F9FC67214DF21F1002F0F4FC02214DF226
:102B8000201002F0EFFC84214DF2211002F0EAFC4B
:102B900002214DF2221002F0E5FCA4214DF2231097
:102BA00002F0E0FC02214DF2241002F0DBFCB72120
:102BB0004DF2251002F0D6FC02214DF2261002F053
:102BC000D1FCCF214DF2271002F0CCFC02214DF2B6
:102BD000281002F0C7FCDE214DF2291002F0C2FCE1
:102BE00002214DF22A1002F0BDFCF2214DF22B1011
:102BF00002F0B8FC02214DF22C1002F0B3FCFE21D1
:102C00004DF22D1002F0AEFC03214DF22E1002F019
:102C1000A9FC10214DF22F1002F0A4FC03214DF26B
:102C2000301002F09FFC33214DF2311002F09AFC7B
:102C300003214DF2321002F095FC6D214DF233105C
:102C400002F090FC00214FF4524002F08BFC332143
:102C50004DF2012002F086FC00214DF2022002F02C
:102C600081FC34214DF2032002F07CFC00214DF266
:102C7000042002F077FC3A214DF2052002F072FCAC
:102C800000214DF2062002F06DFC4A214DF2072092
:102C900002F068FC00214DF2082002F063FC5C2188
:102CA0004DF2092002F05EFC00214DF20A2002F0F4
:102CB00059FC81214DF20B2002F054FC00214DF211
:102CC0000C2002F04FFCA6214DF20D2002F04AFC30
:102CD00000214DF20E2002F045FCE5214DF20F20BF
:102CE00002F040FC01214DF2102002F03BFC1321C8
:102CF0004DF2112002F036FC01214DF2122002F0BB
:102D000031FC54214DF2132002F02CFC01214DF234
:102D1000142002F027FC82214DF2152002F022FC43
:102D200001214DF2162002F01DFCCA214DF21720A0
:102D300002F018FC02214DF2182002F013FC0021D1
:102D40004DF2192002F00EFC02214DF21A2002F081
:102D500009FC01214DF21B2002F004FC02214DF27E
:102D60001C2002F0FFFB34214DF21D2002F0FAFB83
:102D700002214DF21E2002F0F5FB67214DF21F20CB
:102D800002F0F0FB02214DF2202002F0EBFB842147
:102D90004DF2212002F0E6FB02214DF2222002F04A
:102DA000E1FBA4214DF2232002F0DCFB02214DF2D5
:102DB000242002F0D7FBB7214DF2252002F0D2FBF0
:102DC00002214DF2262002F0CDFBCF214DF227202B
:102DD00002F0C8FB02214DF2282002F0C3FBDE21E5
:102DE0004DF2292002F0BEFB02214DF22A2002F012
:102DF000B9FBF2214DF22B2002F0B4FB02214DF27F
:102E00002C2002F0AFFBFE214DF22D2002F0AAFB98
:102E100003214DF22E2002F0A5FB10214DF22F20B0
:102E200002F0A0FB03214DF2302002F09BFB332186
:102E30004DF2312002F096FB03214DF2322002F0D8
:102E400091FB6D214DF2332002F08CFB00214FF4F9
:102E5000534002F087FB33214DF2013002F082FB38
:102E600000214DF2023002F07DFB34214DF203309F
:102E700002F078FB00214DF2043002F073FB3A219E
:102E80004DF2053002F06EFB00214DF2063002F0EB
:102E900069FB4A214DF2073002F064FB00214DF23C
:102EA000083002F05FFB5C214DF2093002F05AFB62
:102EB00000214DF20A3002F055FB81214DF20B301A
:102EC00002F050FB00214DF20C3002F04BFBA6212A
:102ED0004DF20D3002F046FB00214DF20E3002F0B3
:102EE00041FBE5214DF20F3002F03CFB01214DF298
:102EF000103002F037FB13214DF2113002F032FB9B
:102F000001214DF2123002F02DFB54214DF213300D
:102F100002F028FB01214DF2143002F023FB822144
:102F20004DF2153002F01EFB01214DF2163002F079
:102F300019FBCA214DF2173002F014FB02214DF2A9
:102F4000183002F00FFB00214DF2193002F00AFB9D
:102F500002214DF21A3002F005FB01214DF21B3027
:102F600002F000FB02214DF21C3002F0FBFA34218A
:102F70004DF21D3002F0F6FA02214DF21E3002F041
:102F8000F1FA67214DF21F3002F0ECFA02214DF206
:102F9000203002F0E7FA84214DF2213002F0E2FA0B
:102FA00002214DF2223002F0DDFAA4214DF223304D
:102FB00002F0D8FA02214DF2243002F0D3FAB72100
:102FC0004DF2253002F0CEFA02214DF2263002F009
:102FD000C9FACF214DF2273002F0C4FA02214DF296
:102FE000283002F0BFFADE214DF2293002F0BAFAA1
:102FF00002214DF22A3002F0B5FAF2214DF22B30C7
:1030000002F0B0FA02214DF22C3002F0ABFAFE21B0
:103010004DF22D3002F0A6FA03214DF22E3002F0CF
:10302000A1FA10214DF22F3002F09CFA03214DF24B
:10303000303002F097FA33214DF2313002F092FA3B
:1030400003214DF2323002F08DFA6D214DF2333012
:1030500002F088FA00214FF4544002F083FA332141
:103060004DF2014000E07FE302F07CFA00214DF2D6
:10307000024002F077FA34214DF2034002F072FA76
:1030800000214DF2044002F06DFA3A214DF2054064
:1030900002F068FA00214DF2064002F063FA4A217C
:1030A0004DF2074002F05EFA00214DF2084002F0B6
:1030B00059FA5C214DF2094002F054FA00214DF218
:1030C0000A4002F04FFA81214DF20B4002F04AFA19
:1030D00000214DF20C4002F045FAA6214DF20D40C0
:1030E00002F040FA00214DF20E4002F03BFAE521D9
:1030F0004DF20F4002F036FA01214DF2104002F07D
:1031000031FA13214DF2114002F02CFA01214DF257
:10311000124002F027FA54214DF2134002F022FA35
:1031200001214DF2144002F01DFA82214DF21540AA
:1031300002F018FA01214DF2164002F013FACA21EA
:103140004DF2174002F00EFA02214DF2184002F043
:1031500009FA00214DF2194002F004FA02214DF261
:103160001A4002F0FFF900E002E301214DF21B409A
:1031700002F0F8F902214DF21C4002F0F3F934217B
:103180004DF21D4002F0EEF902214DF21E4002F018
:10319000E9F967214DF21F4002F0E4F902214DF2F6
:1031A000204002F0DFF984214DF2214002F0DAF9EB
:1031B00002214DF2224002F0D5F9A4214DF2234024
:1031C00002F0D0F902214DF2244002F0CBF9B721F0
:1031D0004DF2254002F0C6F902214DF2264002F0E0
:1031E000C1F9CF214DF2274002F0BCF902214DF286
:1031F000284002F0B7F9DE214DF2294002F0B2F981
:1032000002214DF22A4002F0ADF9F2214DF22B409D
:1032100002F0A8F902214DF22C4002F0A3F9FE21A0
:103220004DF22D4002F09EF903214DF22E4002F0A6
:1032300099F910214DF22F4002F094F903214DF23B
:10324000304002F08FF933214DF2314002F08AF91B
:1032500003214DF2324002F085F96D214DF23340E9
:1032600002F080F900214FF4554002F07BF9332140
:103270004DF2015002F076F900214DF2025002F0B9
:1032800071F934214DF2035002F06CF900214DF236
:10329000045002F067F93A214DF2055002F062F94C
:1032A00000214DF2065002F05DF94A214DF207501F
:1032B00002F058F900214DF2085002F053F95C2158
:1032C0004DF2095002F04EF900214DF20A5002F081
:1032D00049F981214DF20B5002F044F900214DF2E1
:1032E0000C5002F03FF9A6214DF20D5002F03AF9D0
:1032F00000214DF20E5002F035F9E5214DF20F504C
:1033000002F030F901214DF2105002F02BF9132197
:103310004DF2115002F026F901214DF2125002F047
:1033200021F954214DF2135002F01CF901214DF204
:10333000145002F017F982214DF2155002F012F9E3
:1033400001214DF2165002F00DF9CA214DF217502D
:1033500002F008F902214DF2185002F003F90021A1
:103360004DF2195002F0FEF802214DF21A5002F00F
:10337000F9F801214DF21B5002F0F4F802214DF250
:103380001C5002F0EFF834214DF21D5002F0EAF823
:1033900002214DF21E5002F0E5F867214DF21F5058
:1033A00002F0E0F802214DF2205002F0DBF8842117
:1033B0004DF2215002F0D6F802214DF2225002F0D7
:1033C000D1F8A4214DF2235002F0CCF802214DF2A5
:1033D000245002F0C7F8B7214DF2255002F0C2F890
:1033E00002214DF2265002F0BDF8CF214DF22750B8
:1033F00002F0B8F802214DF2285002F0B3F8DE21B5
:103400004DF2295002F0AEF802214DF22A5002F09E
:10341000A9F8F2214DF22B5002F0A4F802214DF24E
:103420002C5002F09FF8FE214DF22D5002F09AF838
:1034300003214DF22E5002F095F810214DF22F503D
:1034400002F090F803214DF2305002F08BF8332156
:103450004DF2315002F086F803214DF2325002F065
:1034600081F86D214DF2335002F07CF800214FF4C9
:10347000564002F077F833214DF2016002F072F805
:1034800000214DF2026002F06DF834214DF203602C
:1034900002F068F800214DF2046002F063F83A216E
:1034A0004DF2056002F05EF800214DF2066002F078
:1034B00059F84A214DF2076002F054F800214DF20C
:1034C000086002F04FF85C214DF2096002F04AF802
:1034D00000214DF20A6002F045F881214DF20B60A7
:1034E00002F040F800214DF20C6002F03BF8A621FA
:1034F0004DF20D6002F036F800214DF20E6002F040
:1035000031F8E5214DF20F6002F02CF801214DF267
:10351000106002F027F813214DF2116002F022F83A
:1035200001214DF2126002F01DF854214DF213609A
:1035300002F018F801214DF2146002F013F8822114
:103540004DF2156002F00EF801214DF2166002F006
:1035500009F8CA214DF2176002F004F802214DF279
:10356000186001F0FFFF00214DF2196001F0FAFF31
:1035700002214DF21A6001F0F5FF01214DF21B60AE
:1035800001F0F0FF02214DF21C6001F0EBFF34214D
:103590004DF21D6001F0E6FF02214DF21E6001F0C8
:1035A000E1FF67214DF21F6001F0DCFF02214DF2C7
:1035B000206001F0D7FF84214DF2216001F0D2FF9D
:1035C00002214DF2226001F0CDFFA4214DF22360D3
:1035D00001F0C8FF02214DF2246001F0C3FFB721C2
:1035E0004DF2256001F0BEFF02214DF2266001F090
:1035F000B9FFCF214DF2276001F0B4FF02214DF257
:10360000286001F0AFFFDE214DF2296001F0AAFF32
:1036100002214DF22A6001F0A5FFF2214DF22B604C
:1036200001F0A0FF02214DF22C6001F09BFFFE2172
:103630004DF22D6001F096FF03214DF22E6001F056
:1036400091FF10214DF22F6001F08CFF03214DF20C
:10365000306001F087FF33214DF2316001F082FFCD
:1036600003214DF2326001F07DFF6D214DF2336098
:1036700001F078FF5521204601F074FFAA21284669
:1036800001F070FF5221304601F06CFF08213846EE
:1036900001F068FF0021404601F064FFCC2158464C
:1036A00001F060FF00214BF2011001F05BFF0521EA
:1036B000484601F057FF70214FF4374001F052FFA8
:1036C00070214BF2017001F04DFF01214FF43840A1
:1036D00001F048FF03214BF6010001F043FF0321F5
:1036E0004BF6020001F03EFF03214BF6030001F010
:1036F00039FF02214FF43C4001F034FF00214BF62A
:10370000014001F02FFF00214BF6024001F02AFF9B
:10371000D0214FF4494001F025FF02214CF6011061
:1037200001F020FF50214CF6021001F01BFF502148
:103730004CF6031001F016FF50214CF6041001F076
:1037400011FF00214FF4545001F00CFF55214FF4AC
:10375000685001F007FF4FF4885001F0EBFE78202D
:1037600002F0ECFD4FF4245001F0E4FE01F04CBAFD
:10377000A0F513414FF4E06840F23F154FF427479E
:10378000253936D0A0F513414FF4017940F2077680
:1037900028397DD0A0F513414FF488774FF41C5B96
:1037A000203976D0A0F51341313973D0A0F5A84166
:1037B000083970D0A0F5A8514FF4407705396BD087
:1037C000A0F53541053968D0A0F5454105397DD0D2
:1037D000A0F5094189397AD0A0F58A41313977D0ED
:1037E000A0F58A41353974D0A0F5C851633971D03C
:1037F000BCE747F6F001E52001F0B4FE21460120C8
:1038000001F0B0FE4146022001F0ACFE41F2300171
:10381000032001F0A7FE0021042001F0A3FE40F2E6
:103820000221082001F09EFE0021092001F09AFEED
:1038300000210A2001F096FE00210C2001F092FEEA
:1038400000210D2001F08EFE00210F2001F08AFEE4
:103850000021102001F086FE0721112001F082FED8
:103860000021122001F07EFE0021132001F07AFEDB
:103870000021072001F076FE41F29061102001F056
:1038800071FE40F22721112001F06CFE9D2105E020
:1038900088E043E1E6E1B9E253E3FDE3122001F001
:1038A00061FE4FF4C851132001F05CFE2521292050
:1038B00001F058FE0D212B2001F054FE072130208D
:1038C00001F050FE40F20331312004E0E5E3E5E38E
:1038D000E5E3E5E3E5E301F045FE0321322001F0F5
:1038E00041FE40F20621352001F03CFE0821362041
:1038F00001F038FE40F20641372001F033FE4FF46C
:103900004171382001F02EFE0721392001F02AFEF6
:1039100040F202613C2001F025FE08213D2001F02B
:1039200021FE0021502001F01DFEEF21512001F069
:1039300019FE0021522001F015FE2946532001F006
:1039400011FE3946602001F00DFE0121612001F0D9
:1039500009FE00216A2001F005FE0021802001F00F
:1039600001FE0021812001F0FDFD0021822001F0F7
:10397000F9FD0021832001F0F5FD0021842001F0F4
:10398000F1FD0021852001F0EDFD1021902001F0D6
:10399000E9FD4FF4C061922001F0E4FD40F23311E3
:1039A0000720FCE341F28F01EC2001F0DBFD41F246
:1039B0003421EF2001F0D6FD2146012001F0D2FD97
:1039C0004146022001F0CEFD41F23001032001F01A
:1039D000C9FD0021042001F0C5FD40F202210820AC
:1039E00001F0C0FD0021092001F0BCFD00210A20EA
:1039F00001F0B8FD01210C2001F0B4FD00210D20E3
:103A000001F0B0FD00210F2001F0ACFD00211020DD
:103A100001F0A8FD0721112001F0A4FD00211220D2
:103A200001F0A0FD0021132001F09CFD01210720E1
:103A300001F098FD322002F073FC41F29041102019
:103A400001F090FD40F22721112001F08BFD322082
:103A500002F066FC8A21122001F084FD322002F07F
:103A60005FFC4FF4D051132001F07CFD062129208A
:103A700001F078FD0D212B2001F074FD322002F0C1
:103A80004FFC0021202001F06DFD0021212001F0DC
:103A900069FD322002F044FC0021302001F062FD7B
:103AA00040F20461312001F05DFD40F20531322029
:103AB00001F058FD0021352001F054FD40F6094188
:103AC000362001F04FFD4946372001F04BFD40F212
:103AD0000131382001F046FD3146392001F042FD28
:103AE00000213C2001F03EFD40F60A213D2001F07E
:103AF00039FD322002F014FC0021502001F032FD8B
:103B0000EF21512001F02EFD0021522001F02AFD6D
:103B10002946532001F026FD39464CE10021084694
:103B200001F020FD2146012001F01CFD414602204C
:103B300001F018FD41F23001032001F013FD0021D6
:103B4000042001F00FFD40F20221082001F00AFDDF
:103B50000021092001F006FD00210A2001F002FDEC
:103B600001210C2001F0FEFC00210D2001F0FAFCE7
:103B700000210F2001F0F6FC322002F0D1FB40F2D0
:103B80000111072001F0EEFC322002F0C9FB4FF4D6
:103B90008651102001F0E6FC0721112001F0E2FC23
:103BA0003946122001F0DEFC4FF43061132001F0A1
:103BB000D9FC0021292001F0D5FC44F210012B2072
:103BC00001F0D0FC0021502001F0CCFCEF2151206D
:103BD00001F0C8FC0021522001F0C4FC294653200A
:103BE00001F0C0FC5946602001F0BCFC01216120BD
:103BF00001F0B8FC00216A2001F0B4FC0021802013
:103C000001F0B0FC0021812001F0ACFC00218220F9
:103C100001F0A8FC0021832001F0A4FC00218420F5
:103C200001F0A0FC0021852001F09CFC10219020D7
:103C300001F098FC0021922001F094FC01219320D6
:103C400001F090FC3946952001F08CFC0021972072
:103C500001F088FC0021982001F084FC40F27311EF
:103C600007207EE341F21401E72001F07BFC2146AE
:103C7000012001F077FC4FF40071022001F072FC8A
:103C800041F23801032001F06DFC40F202210820CE
:103C900001F068FC0021092001F064FC00210A20E9
:103CA00001F060FC00210C2001F05CFC00210D20E3
:103CB00001F058FC00210F2001F054FC00211020DD
:103CC00001F050FC0721112001F04CFC00211220D2
:103CD00001F048FC0021132001F044FCC82002F050
:103CE0001FFB41F29061102001F03CFC40F22721C3
:103CF000112001F037FC322002F012FB0C211220BF
:103D000001F030FC322002F00BFB4FF40061132075
:103D100001F028FC1121292001F024FC0B212B208B
:103D200001F020FC322002F0FBFA0021202001F0FB
:103D300019FC2946212001F015FC0021302001F05A
:103D400011FC4FF483742146312001F00BFC00215B
:103D5000322001F007FC4946352001F003FC41F216
:103D60000A61362001F0FEFB3146372001F0FAFBF4
:103D70002146382001F0F6FB3146392001F0F2FBF4
:103D800040F202413C2001F0EDFB40F60F413D20A6
:103D900001F0E8FB0021502001F0E4FBEF2151206D
:103DA00001F0E0FB0021522001F0DCFB294653200A
:103DB00001F0D8FB5946602001F0D4FB01216120BD
:103DC00001F0D0FB00216A2001F0CCFB0021802013
:103DD00001F0C8FB0021812001F0C4FB00218220FA
:103DE00001F0C0FB0021832001F0BCFB00218420F6
:103DF00001F0B8FB0021852001F0B4FB10219020D8
:103E000001F0B0FB4FF4C0619220FDE32146012098
:103E100001F0A8FB4146022001F0A4FB41F2300171
:103E2000032001F09FFB0021042001F09BFB40F2E6
:103E30000721082001F096FB0021092001F092FBE8
:103E400000210A2001F08EFB00210C2001F08AFBEA
:103E500000210D2001F086FB00210F2001F082FBE4
:103E6000142002F05DFA41F2B061102001F07AFBFB
:103E70000121112001F076FB0121172001F072FBD6
:103E80004FF49C71122001F06DFB4FF40061132080
:103E900001F068FB0921292001F064FB09212A2097
:103EA00001F060FB0021A42001F05CFB0021502008
:103EB00001F058FBEF21512001F054FB002152206A
:103EC00001F050FB2946532001F04CFB594660207D
:103ED00001F048FB0121612001F044FB00216A2030
:103EE00001F040FB0021802001F03CFB00218120FB
:103EF00001F038FB0021822001F034FB00218320F7
:103F000001F030FB0021842001F02CFB00218520F2
:103F100001F028FB1321902001F024FB00219220C6
:103F200001F020FB0321932001F01CFB3946952072
:103F300001F018FB40F27311072001F013FB32204F
:103F40000FE10021072001F00DFB322002F0E8F91B
:103F50004FF48E71122001F005FB0121A42001F025
:103F600001FB0F21082001F0FDFA08210A2001F0D1
:103F7000F9FA08210D2001F0F5FAB146314630205A
:103F800001F0F0FA0721312001F0ECFA40F2036170
:103F9000322001F0E7FA46464146332001F0E2FACA
:103FA00040F20221342001F0DDFA0221352001F037
:103FB000D9FA41F60F71362001F0D4FA494637207C
:103FC00001F0D0FA0021382001F0CCFA002139208C
:103FD00001F0C8FA49463A2001F0C4FA00213B201A
:103FE00001F0C0FA07213C2001F0BCFA00213D207D
:103FF00001F0B8FA322002F093F90121072001F014
:10400000B1FA0121172001F0ADFA322002F088F94F
:104010004FF4BD51102001F0A5FA40F217211120F4
:1040200001F0A0FA4FF48F71122001F09BFA4FF4C7
:104030007061132001F096FA00212A2001F092FA13
:104040000A21292001F08EFA4FF49F71122001F00D
:1040500089FA0021502001F085FAEF21512001F06A
:1040600081FA0021522001F07DFA2946532001F007
:1040700079FA5946602001F075FA0121612001F0BA
:1040800071FA00216A2001F06DFA0021802001F010
:1040900069FA0021812005E066E063E129E2DCE2C3
:1040A00090E3FDE301F05EFA0021822001F05AFA6C
:1040B0000021832001F056FA0021842001F052FAF9
:1040C0000021852001F04EFA1321902001F04AFAD8
:1040D0003946922001F046FA0521932001F042FA78
:1040E0000021952001F03EFA0021972001F03AFAD4
:1040F0000021982001F036FA2146012001F032FA21
:104100003146022001F02EFA41F23801032001F07D
:1041100029FA0021042001F025FA00210C2001F0E9
:1041200021FA00210F2001F01DFA0021202001F0CA
:1041300019FA0021212001F015FA2121072001F0B0
:1041400011FA142002F0ECF86121072001F00AFABC
:10415000142002F0E5F840F27311072001F002FA92
:10416000142002F0DDF82CE30021084601F0FAF9F2
:104170000021084601F0F6F90021084601F0F2F9A5
:104180000021084601F0EEF90121A42001F0EAF92E
:10419000142002F0C5F85E465946602000E0DCE0DD
:1041A00001F0E0F940F202273946082001F0DAF97F
:1041B0004FF40571302001F0D5F943F2157131202B
:1041C00001F0D0F940F20461322001F0CBF940F661
:1041D0001661332001F0C6F942F21121342001F0BA
:1041E000C1F94FF4A851352001F0BCF948F207514C
:1041F000362001F0B7F941F20741372001F0B2F95A
:1042000041F20341382001F0ADF92021392001F0BD
:10421000A9F91A21902001F0A5F90021102001F040
:10422000A1F90721112001F09DF90021122001F0D0
:1042300099F90021132001F095F9142002F070F88B
:104240004FF4E661102001F08DF940F23711112092
:1042500001F088F9142002F063F84FF4DC711220A9
:1042600001F080F9142002F05BF84FF47061132024
:1042700001F078F980212A2001F074F948212920E1
:1042800001F070F9142002F04BF82146012001F0F2
:1042900069F94146022001F065F941F23801032035
:1042A00001F060F93946082001F05CF900210A208C
:1042B00001F058F900210C2001F054F900210D20E3
:1042C00001F050F930210E2001F04CF9002150206E
:1042D00001F048F9EF21512001F044F9002152206A
:1042E00001F040F92946532001F03CF931466020A5
:1042F00001F038F90121612001F034F900216A2030
:1043000001F030F91121902001F02CF94FF4C06137
:10431000922001F027F940F20241932001F022F9A6
:104320000221942001F01EF9142001F0F9FF01216F
:10433000072001F017F9142001F0F2FF6121072096
:1043400001F010F940F27311072001F00BF9002180
:10435000202001F007F90021212001F003F922219A
:1043600000202CE20021084601F0FCF8002108465C
:1043700001F0F8F8142001F0D3FF0021084601F005
:10438000F1F80021084601F0EDF80021084601F09F
:10439000E9F80021084601F0E5F80121A42001F028
:1043A000E1F8142001F0BCFF5946602001F0DAF872
:1043B00040F60601082001F0D5F840F203763146B8
:1043C000302001F0CFF80121312001F0CBF8042199
:1043D000322001F0C7F84FF48171332001F0C2F8A8
:1043E0003946342001F0BEF840F20311352001F0C7
:1043F000B9F81F21362001F0B5F83146372001F019
:10440000B1F80121382001F0ADF80421392001F084
:10441000A9F81521902001F0A5F84FF48261102031
:1044200001F0A0F840F24721112001F09BF84FF471
:10443000DE71122001F096F84FF46061132001F054
:1044400091F8782001F06CFF2146012001F08AF8F4
:104450004FF40071022001F085F841F23001032091
:1044600001F080F808210A2001F07CF800210C20DE
:1044700001F078F820210E2001F074F800210F20BF
:1044800001F070F80021202001F06CF800212120BB
:1044900001F068F83D212A2001F064F8142001F0B1
:1044A0003FFF2D21292001F05DF80021502001F06F
:1044B00059F84DF2EF01512001F054F8002152203B
:1044C00001F050F82946532001F04CF800216120FA
:1044D00001F048F800216A2001F044F839469220A2
:1044E00001F040F80521932001F03CF82146FFF748
:1044F000B7BB0121002001F035F84AF6A4010320E2
:1045000001F030F800210C2001F02CF840F60C01ED
:104510000D2001F027F84FF42C510E2001F022F865
:10452000B0211E2001F01EF842F63F31012001F0BB
:1045300019F84FF4C061022001F014F80021102096
:1045400001F010F846F27801112001F00BF800217B
:10455000052001F007F80021062001F003F84EF6CF
:104560001C71162000F0FEFF0321172000F0FAFF57
:1045700040F23321072000F0F5FF00210B2000F06E
:10458000F1FF00210F2000F0EDFF0021412000F09D
:10459000E9FF0021422000F0E5FF0021482000F063
:1045A000E1FF2946492000F0DDFF00214A2000F00C
:1045B000D9FF00214B2000F0D5FF4FF46F4144207C
:1045C00000F0D0FF0021452000F0CCFF2946462016
:1045D00000F0C8FF3146302000F0C4FF4C46494689
:1045E000312000F0BFFF2146322000F0BBFF40F237
:1045F00002552946332000F0B5FF691D342000F034
:10460000B1FF2146352000E080E100F0ABFF2146FC
:10461000362000F0A7FF2946372000F0A3FF40F224
:10462000023421463A2000F09DFF21463B2000F055
:1046300099FF0021232000F095FF0021242000F0A5
:1046400091FF4FF40041252000F08CFF00214F2006
:1046500000F088FF00214E20B1E00121002000F091
:1046600081FF0A2001F05CFE41F22861102000F079
:1046700079FF0E21122000F075FF40F6392113203A
:1046800000F070FF0A2001F04BFE4021112000F0E5
:1046900069FF5021152000F065FF0A2001F040FE5F
:1046A0001E21122000F05EFF0A2001F039FE4FF4B7
:1046B000B151102000F056FF42F63921132000F0CE
:1046C00051FF0A2001F02CFE2146012000F04AFF94
:1046D0003946022000F046FF41F23801032000F085
:1046E00041FF40F20221082000F03CFF08210A208F
:1046F00000F038FF0021302000F034FF40F202418A
:10470000312000F02FFF4FF48371322000F02AFF98
:1047100040F20351332000F025FF4FF48271342022
:1047200000F020FF40F20131352000F01BFF314640
:10473000362000F017FF40F20531372000F012FF5D
:104740004FF40271382000F00DFF40F60B71392054
:1047500000F008FF0221412000F004FF59466020CC
:1047600000F000FF0121612000F0FCFE4FF4047115
:10477000902000F0F7FE4FF48571922000F0F2FED9
:104780000421932000F0EEFE2146A02000F0EAFE76
:104790000121072000F0E6FE2121072000F0E2FEC3
:1047A0002321072000F0DEFE3321072000F0DAFE8F
:1047B00040F23311072000F0D5FE0021A02000F0C8
:1047C000D1FE21E23021152000F0CCFE10219A20EC
:1047D00000F0C8FE2021112000F0C4FE43F2284161
:1047E000102000F0BFFE0221122000F0BBFE41F2BB
:1047F0003801132000F0B6FE282001F091FD1221AF
:10480000084600F0AFFE282001F08AFD43F2204167
:10481000102000F0A7FE43F23801132000F0A2FEA2
:10482000462001F07DFD0021302000F09BFE40F28B
:104830000241312000F096FE40F20731322000F0B4
:1048400091FE4FF44171332000F08CFE042134209E
:1048500000F088FE40F20141352000F083FE314631
:10486000362000F07FFE40F20531372000F07AFE5E
:104870004FF4C2652946382000F074FE29463920DD
:1048800000F070FE2146012000F06CFE3946022047
:1048900000F068FE41F23001032000F063FE00E00A
:1048A00039E040F60801082000F05CFE08210A20EB
:1048B00000F058FE5946602000F054FE01216120AE
:1048C00000F050FE4FF49F71902000F04BFE214607
:1048D000922000F047FE2146932000F043FE4FF463
:1048E0004051A02000F03EFE1021A32000F03AFE2F
:1048F0000121072000F036FE2121072000F032FEC2
:104900002321072000F02EFE3321072000F02AFE8D
:1049100040F23311EBE5E22000F00CFE2746C14CDB
:10492000276165156561DFF800831D21C8F8001057
:104930008026666126612561276165610220C8F8CD
:104940000000666126612561276165610420C8F861
:104950000000666126612561642001F0EFFCE02023
:1049600000F0E8FD27616561C8F800A06661266176
:1049700025610A2001F0D4FCE02000F0DBFD276176
:1049800065614FF0030BC8F800B0666126612561D0
:104990000C2001F0C5FC012000F0CCFD0A2001F044
:1049A000BFFCE62000F0C6FD276165612F21C8F835
:1049B000001066612661256127616561FF20C8F8E6
:1049C000000066612661256127616561C8F8000005
:1049D000666126612561B02000F0ACFD276165614C
:1049E0002021C8F800106661266125612761656194
:1049F0004FF00009C8F800906661266125612761C3
:104A00006561C8F800B0666126612561276165614E
:104A100040F21F31C8F800106661266125612761E8
:104A20006561C8F800A0666126612561276165613E
:104A300040F2DF11C8F80010666126612561276128
:104A40006561C8F80090666126612561B42000F0B8
:104A500071FD276165610420C8F800006661266168
:104A600025612761656140F21F41C8F80010666149
:104A70002661256127616561C8F80090666126613D
:104A80002561276165612E21C8F8001066612661E5
:104A90002561276165614146C8F80090666126611D
:104AA000256127616561C8F800906661266125610E
:104AB00027616561C8F800906661266125612761FC
:104AC0006561C1F80090666126612561B62000F03D
:104AD00031FD276165610221C8F800106661266119
:104AE0002561276165614FF40371C8F800106661A4
:104AF0002661256127616561C8F8009066612661BD
:104B00002561276165611721C8F80010666126617B
:104B10002561276165611521C8F80010666126616D
:104B2000256127616561C8F800906661266125618D
:104B300027616561C8F80090666126612561F020F3
:104B400000F0F8FC27616561C8F800B06661266175
:104B50002561292000F0EEFCD02000F0EBFC27615D
:104B60006561C8F80090666126612561BE2000F08D
:104B7000E1FC276165610521C8F8001066612661C6
:104B8000256127616561FE21C8F800106661266114
:104B90002561276165614146C8F800A0666126610C
:104BA000256127616561C8F800906661266125610D
:104BB00027616561C8F800906661266125612761FB
:104BC0006561C1F80090666126612561B82000F03A
:104BD000B1FC27616561C8F800B066612661256196
:104BE00027616561C8F800A0666126612561BA2069
:104BF00000F0A0FC27616561C8F800A0666126612D
:104C00002561642000F054F80020FCF7F3F907490F
:104C1000C1F8A8A14FF6FF70FCF7ACF907B0BDE8EA
:104C2000F08F0000001001400C0C014000002242F7
:104C30002DE9F047DFF85C904FF08830C9F80000AC
:104C400009F104052860134E00200C363060124C28
:104C5000A8152061470067614FF04008C4F8148030
:104C60000E488088A0F50941893902D1022001F05F
:104C700065FB084808300068C4F8108080B22761DE
:104C80004FF03331C9F8001029604FF6FF713160E1
:104C9000BDE8F087000C0140001001401C0000201E
:104CA00010B500F047FCBDE81040FFF7C1BF0000A1
:104CB0002DE9F0478146BE2000F03CFC204C4FF42B
:104CC0008077276165156561DFF878800521C8F870
:104CD000001080266661266125612761656148466E
:104CE000FBF7D8FA4FF06632174BFBF761FAFBF788
:104CF000DEFAC8F8000066612661256127616561FA
:104D00000121C8F80010666126612561276165618F
:104D1000FF21C8F800106661266125612761656181
:104D20000020C8F800006661266125612761656181
:104D3000C8F80000666126612561BDE8F0870000C3
:104D4000001001400C0C0140666604402DE9F04F54
:104D5000CF4C00252146A379898846F6040241F606
:104D60006316012B01D02BB11DE091421BD0B14243
:104D700002D118E0B14216D1082814D2DFE800F0C1
:104D80000406080A0C0E101206200CE007200AE0A8
:104D9000042008E0052006E0012004E0002002E0F5
:104DA000032000E00220A1F5134C45F2103345F238
:104DB0001057BCF1410C07D0914205D0994203D065
:104DC000B94201D0B1427CD1082812D2DFE800F00C
:104DD000110406080A0C0E1080250AE0402508E0A0
:104DE000C02506E0202504E0602502E0A02500E0C3
:104DF000E025B94202D14FF4585000E036209942E4
:104E000005D0B94203D0B14201D045F00805914226
:104E100001D145F00205294600F0A4FBA088B0426C
:104E20000AD0A9062188628802D5914202D303E004
:104E3000914201D9228061804FF48076DFF854825C
:104E40007500DFF854B24FF0000AB8427ED1608995
:104E500000F070FBB146C8F81060C8F814505F4607
:104E6000CBF800A08026C8F81460C8F81060C8F815
:104E700010506089401C80B200F05CFBC8F81090B4
:104E8000C8F81450C7F800A0C8F81460C8F810603B
:104E9000C8F810506089801C80B200F04BFBC8F845
:104EA0001090C8F814502088401E01123960C8F8CC
:104EB0001460C8F81060C8F810506089C01C80B237
:104EC00000E0C9E000F036FBC8F81090C8F81450B4
:104ED0002078401EC1B23960C8F81460C8F810606C
:104EE000C8F81050A08900F025FBC8F81090C8F849
:104EF0001450C7F800A0C8F81460C8F81060C8F8CB
:104F00001050A089401C80B200F014FBC8F810902B
:104F1000C8F81450C7F800A0C8F81460C8F81060AA
:104F2000C8F81050A089801C80B200F003FBC8F8BC
:104F30001090C8F814506088401E01123960C8F8FB
:104F40001460C8F81060C8F8105000E011E0A089A3
:104F5000C01C80B200F0EEFAC8F81090C8F81450E7
:104F6000A078401EC1B23960C8F81460C8F810605B
:104F70006EE0A146608900F0DDFAC8F81060C8F85C
:104F800014505F465946CBF800A08024C8F814405E
:104F9000C8F81040C8F81050C8F81060C8F814508D
:104FA000CBF800A0C8F81440C8F81040C8F810505A
:104FB000C8F81060C8F81450B9F80000401E02127A
:104FC0000A60C8F81440C8F81040C8F81050C8F873
:104FD0001060C8F81450C1B23960C8F81440C8F85D
:104FE0001040C8F81050B9F80C0000F0A3FAC8F847
:104FF0001060C8F81450C7F800A0C8F81440C8F8EA
:105000001040C8F81050C8F81060C8F81450C7F81D
:1050100000A0C8F81440C8F81040C8F81050C8F8EC
:105020001060C8F81450B9F80200401E02123A602D
:10503000C8F81440C8F81040C8F81050C8F81060FC
:10504000C8F81450C1B23960C8F81440C8F810400C
:10505000C8F81050BDE8F08F082812D2DFE800F041
:10506000040608110A0C0E1030250AE0102508E08D
:10507000202506E0382504E0282502E0182500E078
:10508000082545F48051BDE8F04F032000F06ABACE
:105090001C000020001001400C0C01402DE9F34FD2
:1050A000DFF83883019A0446160AD5B2B8F804002E
:1050B0004246DFF82CB35289A0F513414FEA142978
:1050C00004F0FF0A413917D0A0F5A641103913D0DA
:1050D0004346A0F5D04799791B881B1B5B1E043FF4
:1050E00046D0A0F5C857633F7ED0A0F5AA47103F31
:1050F0007BD001297AD066E1104600F01BFA4FF40C
:1051000080705C46CBF810004700CBF8147049461D
:10511000DFF8D092C9F800104FF08008CBF8148067
:10512000CBF81080CBF81070CBF81000CBF81470CF
:10513000C9F800A0CBF81480C4F810802761A748F4
:10514000808900F0F7F9781020616761C9F8006084
:10515000C4F81480C4F81080276120616761C9F821
:105160000050C4F81480C4F810802761BDE8FC8F9B
:10517000012900D19CB2104600F0DCF94FF4807098
:105180005F46CBF810004FF40078CBF81480DFF8BE
:1051900054A2210ACAF800104FF08009CBF81490ED
:1051A000CBF81090CBF81080CBF81000CBF814801F
:1051B000E1B2CAF80010CBF81490C7F81090C7F805
:1051C00010808648808900F0B5F94FF4807038610E
:1051D000C7F81480CAF80060C7F81490C7F8109098
:1051E000C7F81080386102E00CE0A4E0EAE0C7F8FC
:1051F0001480CAF80050C7F81490C7F81090C7F888
:105200001080B3E7002967D0DFF8D081104600F0A6
:1052100091F94FF480735846CBF810305900CBF811
:105220001410704CC4F800908022CBF81420CBF8F6
:105230001020CBF81010CBF81030CBF81410C4F8B5
:1052400000A0CBF81420CBF81020CBF8101003618D
:105250004161B8F800707F1E4FEA272CC4F800C0E7
:1052600042610261016103614161FBB223604261FD
:1052700002610161594CA08900F05CF94FF480771C
:105280005846CBF810707900CBF81410554B1E60BF
:105290008022CBF81420CBF81020CBF81010CBF8DC
:1052A0001070CBF814101D60CBF81420CBF8102030
:1052B000CBF81010CBF8107041616488641E251281
:1052C0001D6042610261016107614161E4B21C60DD
:1052D00042610261016149E71FFA83F8104600F05C
:1052E00029F94FF480735846CBF810305900CBF8A9
:1052F00014103C4C002727608022CBF81420CBF8F8
:105300001020CBF81010CBF81030CBF81410276019
:10531000CBF81420CBF81020CBF8101003614161BA
:105320004FEA182727604261026101610361416110
:1053300008F0FF039AE7104600F0FCF84FF4807085
:105340005C46CBF810004FF40078CBF81480484648
:10535000DFF89090C9F800008027CBF81470CBF8E4
:105360001070CBF810801D484089401C80B200F0BE
:10537000E1F878002061C4F81480C9F800A06761E2
:105380002761C4F810801548808900F0D3F87800B0
:105390002061C4F81480C9F8006067612761C4F80F
:1053A00010800E488089401C80B200F0C3F878005D
:1053B0002061C4F81480C9F8005067612761C4F8FF
:1053C0001080D3E69CB22146104600F0CBF8B8F826
:1053D0000C000199BDE8FC4F00F0C4B81C0000208F
:1053E000001001400C0C01402DE9FF4F1D460C46FA
:1053F0008A46580700D0012000EBD50069084843D1
:10540000203A00F0FF09D0B20026DFF89CB00290ED
:1054100045E00C2D12D0102D15D0182D41D1029839
:10542000224900EBC00000BF01EB80004FF00008F4
:10543000875D38060CD51E4802880DE002981D498C
:1054400000EB4000F0E71C49029801EB0010EDE78B
:105450000D9828B91648428821460098FBF7CCFEE3
:105460007806070E641CBBF80200A4B2A04218D94B
:10547000A4EB0A00A84209D100985446401C80B20F
:105480000090BBF8001081420BD906E008F1010042
:1054900000F0FF08B8F1080FCBD3761CF6B24E45EA
:1054A000B7D3BDE8FF8F00001C000020246E000869
:1054B00018000020C0630008346800082DE9F84F88
:1054C000044600F0FF0910190D46DDE90AB61FFA7F
:1054D00080F8581987B24FF0000A12E0444503D310
:1054E00005EB0B004C4685B2BD420FD25B46294608
:1054F0002046CDF800A0FFF777FF04EB5B0084B2F5
:10550000761C3278A2F120005E28E7D9BDE8F88F3A
:1055100006494FF480720A614A154A61044B1860CB
:105520008020486108610A61704700000010014056
:105530000C0C014006494FF480724A614A154A61D9
:10554000044B18608020486108610A6170470000C0
:10555000001001400C0C014001480089FFF7EABF30
:105560001C00002010B50C46FFF7E4FF06484FF47E
:105570008071016141154161044A146080224261D9
:105580000261016110BD0000001001400C0C0140DF
:105590002DE9F04786B0002433480094019402942A
:1055A0000394816941F010018161816901F010016A
:1055B0000491816941F020018161816901F020013C
:1055C0000491816941F0040181618069DFF89C8068
:1055D00000F004000490002210214046FBF765F91A
:1055E000DFF88C904FF48077002239464846FBF76D
:1055F0005CF9DFF880A0002204215046FBF755F942
:105600000125CDE900540226694648460296FBF77B
:105610004BF81020CDE90005CDE902466946404629
:10562000FBF742F820208DE8310069464046FBF741
:105630003BF800970396CDE9015469464846FBF7CD
:1056400033F8E8038DE8310069464846FBF72CF84B
:105650000420CDE90005CDE9024669465046FBF736
:1056600023F806B0BDE8F0870010024000100140AA
:105670000008014000140140FEE700006420FBF731
:1056800001F800BFFBF724FC0028FBD0012806D05E
:10569000022807D00328F5D100F008F8F2E7FAF75E
:1056A00037FFEFE7FAF79CFEECE770472DE9FC5F68
:1056B00000F09CF96420FAF7E5FF0026904D0127E1
:1056C000C5F89071052000F02BFEC5F8906105200B
:1056D00000F026FEFBF7FCFB032807D0012C03D0CB
:1056E000022C01D0032CEBD1BDE8FC9F6420FAF71B
:1056F000C9FF4FF6FF784046FBF73CFC00F0EEF99F
:10570000C5F89061092000F00BFEC5F890710120EA
:1057100000F006FEFBF7DCFB032806D0012CE3D0EB
:10572000022CE1D0032CEBD1DEE76420FAF7AAFFCC
:105730004046FBF71FFC00F0EDF840F6C41941F6B7
:105740004C5A00BFC5F89061484600F0F7FDC5F817
:105750009071504600F0F2FDFBF7BAFB032806D02B
:10576000012CC1D0022CBFD0032CEBD1BCE76420AC
:10577000FAF788FF4046FBF7FDFB00F0EBFC00BFAB
:10578000C5F890610A2000F0CBFDC5F890710A20A1
:1057900000F0C6FDFBF79CFB032806D0012CA3D02C
:1057A000022CA1D0032CEBD19EE76420FAF76AFF0C
:1057B0004046FBF7DFFB00F015FD00BFC5F8906128
:1057C000122000F0ADFDC5F89071022000F0A8FD98
:1057D000FBF77EFB032806D0012C85D0022C83D05A
:1057E000032CEBD180E76420FAF74CFF4046FBF72F
:1057F000C1FB00F05BFC41F2883943F6982A00BFF8
:10580000C5F89061484600F099FDC5F89071504682
:1058100000F094FDFBF75CFB032806D0012CA5D01B
:10582000022CA3D0032CEBD15EE76420FAF72AFF09
:105830004046FBF79FFB00F0ADFA00BFC5F8906152
:10584000022000F06DFDC5F89071022000F068FDA7
:10585000FBF73EFB032806D0012C87D0022C85D015
:10586000032CEBD140E76420FAF70CFF4046FBF72E
:1058700081FB00F067FB4FF461694FF4C87A00BF09
:10588000C5F89061484600F059FDC5F89071504642
:1058900000F054FDFBF71CFB03282AD16420FAF723
:1058A000F1FE4046FBF766FB00F090F94FF47A7B7F
:1058B000C5F89061584600F041FDC5F8907140F67A
:1058C000B83000F03BFDFBF703FB0446012803D092
:1058D000022C01D0032CEBD14046FBF74BFB1820E8
:1058E00008A1CDE900010346C82228211E20FFF7A8
:1058F000E5FD012C98D0022C96D0032CC0D1F3E604
:10590000000022424D696E692053544D33324631B6
:10591000303300001CB518242BA0CDE900402346ED
:10592000C82228211E20FFF7C9FD2BA0CDE9004089
:105930001823C82246211420FFF7C0FDB4233C22BF
:1059400019460020FBF7F0FB3C229623B4211046B9
:10595000FBF7EAFB9623502219463C20FBF7E4FBB9
:105960005022B42396211046FBF7DEFBB4238C2291
:1059700019465020FBF7D8FB8C229623B421104601
:10598000FBF7D2FB9623A02219468C20FBF7CCFB19
:10599000A022B42396211046FBF7C6FBB423DC22D9
:1059A0001946A020FBF7C0FBDC229623B421104649
:1059B000FBF7BAFB02B09623F022BDE8104019466F
:1059C000DC20FBF7B1BB00004D696E692053544DDC
:1059D000333246313033000050574D3A3130304881
:1059E0005A2C323525447574790000001CB51824F2
:1059F00031A0CDE900402346C82228211E20FFF710
:105A00005DFD31A0CDE900401823C82246211420B5
:105A1000FFF754FDB423142219460020FBF784FB42
:105A200014229623B4211046FBF77EFB96233C22DA
:105A300019461420FBF778FB3C22B423962110462C
:105A4000FBF772FBB423642219463C20FBF76CFB86
:105A500064229623B4211046FBF766FB96238C2222
:105A600019466420FBF760FB8C22B4239621104674
:105A7000FBF75AFBB4231A4619468C20FBF754FB5C
:105A8000B422962311461046FBF74EFB9623DC22E8
:105A90001946B420FBF748FBDC22B42396211046BC
:105AA000FBF742FB02B0B423F022BDE810401946D8
:105AB000DC20FBF739BB00004D696E692053544D63
:105AC000333246313033000050574D3A3130304890
:105AD0005A2C353025447574790000001CB5182403
